{
  "_format": "hh-sol-artifact-1",
  "contractName": "CollateralModule",
  "sourceName": "contracts/modules/core/CollateralModule.sol",
  "abi": [
    {
      "inputs": [
        {
          "internalType": "address",
          "name": "from",
          "type": "address"
        },
        {
          "internalType": "address",
          "name": "to",
          "type": "address"
        },
        {
          "internalType": "uint256",
          "name": "value",
          "type": "uint256"
        }
      ],
      "name": "FailedTransfer",
      "type": "error"
    },
    {
      "inputs": [
        {
          "internalType": "uint256",
          "name": "amount",
          "type": "uint256"
        }
      ],
      "name": "InsufficientAccountCollateral",
      "type": "error"
    },
    {
      "inputs": [
        {
          "internalType": "uint256",
          "name": "required",
          "type": "uint256"
        },
        {
          "internalType": "uint256",
          "name": "existing",
          "type": "uint256"
        }
      ],
      "name": "InsufficientAllowance",
      "type": "error"
    },
    {
      "inputs": [
        {
          "internalType": "address",
          "name": "collateralType",
          "type": "address"
        }
      ],
      "name": "InvalidCollateral",
      "type": "error"
    },
    {
      "inputs": [
        {
          "internalType": "address",
          "name": "collateralType",
          "type": "address"
        }
      ],
      "name": "InvalidCollateral",
      "type": "error"
    },
    {
      "inputs": [],
      "name": "OutOfBounds",
      "type": "error"
    },
    {
      "inputs": [
        {
          "internalType": "uint128",
          "name": "accountId",
          "type": "uint128"
        },
        {
          "internalType": "bytes32",
          "name": "permission",
          "type": "bytes32"
        },
        {
          "internalType": "address",
          "name": "target",
          "type": "address"
        }
      ],
      "name": "PermissionDenied",
      "type": "error"
    },
    {
      "inputs": [],
      "name": "PositionOutOfBounds",
      "type": "error"
    },
    {
      "inputs": [
        {
          "internalType": "address",
          "name": "addr",
          "type": "address"
        }
      ],
      "name": "Unauthorized",
      "type": "error"
    },
    {
      "inputs": [],
      "name": "ValueAlreadyInSet",
      "type": "error"
    },
    {
      "anonymous": false,
      "inputs": [
        {
          "indexed": true,
          "internalType": "address",
          "name": "collateralType",
          "type": "address"
        },
        {
          "indexed": true,
          "internalType": "address",
          "name": "priceFeed",
          "type": "address"
        },
        {
          "indexed": false,
          "internalType": "uint256",
          "name": "targetCollateralizationRatio",
          "type": "uint256"
        },
        {
          "indexed": false,
          "internalType": "uint256",
          "name": "minimumCollateralizationRatio",
          "type": "uint256"
        },
        {
          "indexed": false,
          "internalType": "uint256",
          "name": "liquidationReward",
          "type": "uint256"
        },
        {
          "indexed": true,
          "internalType": "bool",
          "name": "stakingEnabled",
          "type": "bool"
        }
      ],
      "name": "CollateralConfigured",
      "type": "event"
    },
    {
      "anonymous": false,
      "inputs": [
        {
          "indexed": true,
          "internalType": "uint128",
          "name": "accountId",
          "type": "uint128"
        },
        {
          "indexed": true,
          "internalType": "address",
          "name": "collateralType",
          "type": "address"
        },
        {
          "indexed": false,
          "internalType": "uint256",
          "name": "amount",
          "type": "uint256"
        },
        {
          "indexed": true,
          "internalType": "address",
          "name": "sender",
          "type": "address"
        }
      ],
      "name": "CollateralDeposited",
      "type": "event"
    },
    {
      "anonymous": false,
      "inputs": [
        {
          "indexed": true,
          "internalType": "uint128",
          "name": "accountId",
          "type": "uint128"
        },
        {
          "indexed": true,
          "internalType": "address",
          "name": "collateralType",
          "type": "address"
        },
        {
          "indexed": false,
          "internalType": "uint256",
          "name": "amount",
          "type": "uint256"
        },
        {
          "indexed": true,
          "internalType": "address",
          "name": "sender",
          "type": "address"
        }
      ],
      "name": "CollateralWithdrawn",
      "type": "event"
    },
    {
      "inputs": [
        {
          "internalType": "uint128",
          "name": "accountId",
          "type": "uint128"
        },
        {
          "internalType": "address",
          "name": "collateralType",
          "type": "address"
        },
        {
          "internalType": "uint256",
          "name": "offset",
          "type": "uint256"
        },
        {
          "internalType": "uint256",
          "name": "items",
          "type": "uint256"
        }
      ],
      "name": "cleanExpiredLocks",
      "outputs": [],
      "stateMutability": "nonpayable",
      "type": "function"
    },
    {
      "inputs": [
        {
          "internalType": "address",
          "name": "collateralType",
          "type": "address"
        },
        {
          "internalType": "address",
          "name": "priceFeed",
          "type": "address"
        },
        {
          "internalType": "uint256",
          "name": "targetCRatio",
          "type": "uint256"
        },
        {
          "internalType": "uint256",
          "name": "minimumCRatio",
          "type": "uint256"
        },
        {
          "internalType": "uint256",
          "name": "liquidationReward",
          "type": "uint256"
        },
        {
          "internalType": "bool",
          "name": "stakingEnabled",
          "type": "bool"
        }
      ],
      "name": "configureCollateral",
      "outputs": [],
      "stateMutability": "nonpayable",
      "type": "function"
    },
    {
      "inputs": [
        {
          "internalType": "uint128",
          "name": "accountId",
          "type": "uint128"
        },
        {
          "internalType": "address",
          "name": "collateralType",
          "type": "address"
        },
        {
          "internalType": "uint256",
          "name": "amount",
          "type": "uint256"
        },
        {
          "internalType": "uint64",
          "name": "expireTimestamp",
          "type": "uint64"
        }
      ],
      "name": "createLock",
      "outputs": [],
      "stateMutability": "nonpayable",
      "type": "function"
    },
    {
      "inputs": [
        {
          "internalType": "uint128",
          "name": "accountId",
          "type": "uint128"
        },
        {
          "internalType": "address",
          "name": "collateralType",
          "type": "address"
        },
        {
          "internalType": "uint256",
          "name": "amount",
          "type": "uint256"
        }
      ],
      "name": "depositCollateral",
      "outputs": [],
      "stateMutability": "nonpayable",
      "type": "function"
    },
    {
      "inputs": [
        {
          "internalType": "uint128",
          "name": "accountId",
          "type": "uint128"
        },
        {
          "internalType": "address",
          "name": "collateralType",
          "type": "address"
        }
      ],
      "name": "getAccountAvailableCollateral",
      "outputs": [
        {
          "internalType": "uint256",
          "name": "",
          "type": "uint256"
        }
      ],
      "stateMutability": "view",
      "type": "function"
    },
    {
      "inputs": [
        {
          "internalType": "uint128",
          "name": "accountId",
          "type": "uint128"
        },
        {
          "internalType": "address",
          "name": "collateralType",
          "type": "address"
        }
      ],
      "name": "getAccountCollateral",
      "outputs": [
        {
          "internalType": "uint256",
          "name": "totalDeposited",
          "type": "uint256"
        },
        {
          "internalType": "uint256",
          "name": "totalAssigned",
          "type": "uint256"
        },
        {
          "internalType": "uint256",
          "name": "totalLocked",
          "type": "uint256"
        }
      ],
      "stateMutability": "view",
      "type": "function"
    },
    {
      "inputs": [
        {
          "internalType": "address",
          "name": "collateralType",
          "type": "address"
        }
      ],
      "name": "getCollateralConfiguration",
      "outputs": [
        {
          "components": [
            {
              "internalType": "bool",
              "name": "stakingEnabled",
              "type": "bool"
            },
            {
              "internalType": "uint256",
              "name": "targetCRatio",
              "type": "uint256"
            },
            {
              "internalType": "uint256",
              "name": "minimumCRatio",
              "type": "uint256"
            },
            {
              "internalType": "uint256",
              "name": "liquidationReward",
              "type": "uint256"
            },
            {
              "internalType": "address",
              "name": "priceFeed",
              "type": "address"
            },
            {
              "internalType": "address",
              "name": "tokenAddress",
              "type": "address"
            }
          ],
          "internalType": "struct CollateralConfiguration.Data",
          "name": "",
          "type": "tuple"
        }
      ],
      "stateMutability": "view",
      "type": "function"
    },
    {
      "inputs": [
        {
          "internalType": "bool",
          "name": "hideDisabled",
          "type": "bool"
        }
      ],
      "name": "getCollateralConfigurations",
      "outputs": [
        {
          "components": [
            {
              "internalType": "bool",
              "name": "stakingEnabled",
              "type": "bool"
            },
            {
              "internalType": "uint256",
              "name": "targetCRatio",
              "type": "uint256"
            },
            {
              "internalType": "uint256",
              "name": "minimumCRatio",
              "type": "uint256"
            },
            {
              "internalType": "uint256",
              "name": "liquidationReward",
              "type": "uint256"
            },
            {
              "internalType": "address",
              "name": "priceFeed",
              "type": "address"
            },
            {
              "internalType": "address",
              "name": "tokenAddress",
              "type": "address"
            }
          ],
          "internalType": "struct CollateralConfiguration.Data[]",
          "name": "",
          "type": "tuple[]"
        }
      ],
      "stateMutability": "view",
      "type": "function"
    },
    {
      "inputs": [
        {
          "internalType": "address",
          "name": "collateralType",
          "type": "address"
        }
      ],
      "name": "getCollateralPrice",
      "outputs": [
        {
          "internalType": "uint256",
          "name": "",
          "type": "uint256"
        }
      ],
      "stateMutability": "view",
      "type": "function"
    },
    {
      "inputs": [
        {
          "internalType": "uint128",
          "name": "accountId",
          "type": "uint128"
        },
        {
          "internalType": "address",
          "name": "collateralType",
          "type": "address"
        },
        {
          "internalType": "uint256",
          "name": "amount",
          "type": "uint256"
        }
      ],
      "name": "withdrawCollateral",
      "outputs": [],
      "stateMutability": "nonpayable",
      "type": "function"
    }
  ],
  "bytecode": "0x608060405234801561001057600080fd5b50612ebb806100206000396000f3fe608060405234801561001057600080fd5b506004361061009e5760003560e01c8063927482ff11610066578063927482ff146101575780639cbbb82414610187578063c93f54c1146101a3578063dc0b3f52146101bf578063ef45148e146101ef5761009e565b80630bae9893146100a3578063198f0aa1146100bf57806351a40994146100db57806375bf24441461010b5780637f2113b31461013b575b600080fd5b6100bd60048036038101906100b89190611eac565b610221565b005b6100d960048036038101906100d49190611f13565b610393565b005b6100f560048036038101906100f09190611f7a565b6105c7565b6040516101029190611fb6565b60405180910390f35b61012560048036038101906101209190612009565b6105e1565b604051610132919061218d565b60405180910390f35b610155600480360381019061015091906121af565b6107e5565b005b610171600480360381019061016c9190612202565b6109c8565b60405161017e9190611fb6565b60405180910390f35b6101a1600480360381019061019c9190612242565b610a1f565b005b6101bd60048036038101906101b891906121af565b610aa9565b005b6101d960048036038101906101d49190611f7a565b610ce2565b6040516101e6919061234a565b60405180910390f35b61020960048036038101906102049190612202565b610dea565b60405161021893929190612365565b60405180910390f35b61024b847f41444d494e000000000000000000000000000000000000000000000000000000610e17565b600061025685610e80565b905060008061026e8684610eb590919063ffffffff16565b925050915084818361028091906123cb565b10156102c357846040517f4c8cb9dc0000000000000000000000000000000000000000000000000000000081526004016102ba9190611fb6565b60405180910390fd5b8260070160008773ffffffffffffffffffffffffffffffffffffffff1673ffffffffffffffffffffffffffffffffffffffff16815260200190815260200160002060040160405180604001604052808781526020018667ffffffffffffffff1681525090806001815401808255809150506001900390600052602060002090600202016000909190919091506000820151816000015560208201518160010160006101000a81548167ffffffffffffffff021916908367ffffffffffffffff160217905550505050505050505050565b600061039e85610e80565b60070160008573ffffffffffffffffffffffffffffffffffffffff1673ffffffffffffffffffffffffffffffffffffffff168152602001908152602001600020600401905080805490508311806103f85750808054905082115b1561042f576040517fb4120f1400000000000000000000000000000000000000000000000000000000815260040160405180910390fd5b60004290506000841480156104445750600083145b1561045157818054905092505b60008490505b82805490508110156105be578167ffffffffffffffff16838281548110610481576104806123ff565b5b906000526020600020906002020160010160009054906101000a900467ffffffffffffffff1667ffffffffffffffff16116105aa5782600184805490506104c891906123cb565b815481106104d9576104d86123ff565b5b90600052602060002090600202018382815481106104fa576104f96123ff565b5b9060005260206000209060020201600082015481600001556001820160009054906101000a900467ffffffffffffffff168160010160006101000a81548167ffffffffffffffff021916908367ffffffffffffffff160217905550905050828054806105695761056861242e565b5b60019003818190600052602060002090600202016000808201600090556001820160006101000a81549067ffffffffffffffff0219169055505090556105b9565b80806105b59061245d565b9150505b610457565b50505050505050565b60006105da6105d583610f6a565b610f9f565b9050919050565b606060006105ed611087565b905060006105fa826110b8565b905060008167ffffffffffffffff811115610618576106176124a6565b5b60405190808252806020026020018201604052801561065157816020015b61063e611d27565b8152602001906001900390816106365790505b509050600080600190505b8381116107d857600061067882876110cd90919063ffffffff16565b9050600061068582610f6a565b90508815806106a257508060000160009054906101000a900460ff165b156107c357806040518060c00160405290816000820160009054906101000a900460ff161515151581526020016001820154815260200160028201548152602001600382015481526020016004820160009054906101000a900473ffffffffffffffffffffffffffffffffffffffff1673ffffffffffffffffffffffffffffffffffffffff1673ffffffffffffffffffffffffffffffffffffffff1681526020016005820160009054906101000a900473ffffffffffffffffffffffffffffffffffffffff1673ffffffffffffffffffffffffffffffffffffffff1673ffffffffffffffffffffffffffffffffffffffff16815250508585806107a49061245d565b9650815181106107b7576107b66123ff565b5b60200260200101819052505b505080806107d09061245d565b91505061065c565b5081945050505050919050565b61080f837f5749544844524157000000000000000000000000000000000000000000000000610e17565b600061081a84610e80565b9050818160070160008573ffffffffffffffffffffffffffffffffffffffff1673ffffffffffffffffffffffffffffffffffffffff1681526020019081526020016000206001015410156108a557816040517f4c8cb9dc00000000000000000000000000000000000000000000000000000000815260040161089c9190611fb6565b60405180910390fd5b6108f8828260070160008673ffffffffffffffffffffffffffffffffffffffff1673ffffffffffffffffffffffffffffffffffffffff1681526020019081526020016000206110e790919063ffffffff16565b61094a8160010160000160009054906101000a900473ffffffffffffffffffffffffffffffffffffffff16838573ffffffffffffffffffffffffffffffffffffffff166111069092919063ffffffff16565b3373ffffffffffffffffffffffffffffffffffffffff168373ffffffffffffffffffffffffffffffffffffffff16856fffffffffffffffffffffffffffffffff167f4fc0831e7eb8b489bcac3f5b6d1e027ac986efbfb6e79b40871e41eb8ca43957856040516109ba9190611fb6565b60405180910390a450505050565b60006109d383610e80565b60070160008373ffffffffffffffffffffffffffffffffffffffff1673ffffffffffffffffffffffffffffffffffffffff16815260200190815260200160002060010154905092915050565b610a27611265565b610a358686868686866112de565b8015158573ffffffffffffffffffffffffffffffffffffffff168773ffffffffffffffffffffffffffffffffffffffff167fbf04712a493c2a6936157298ee23c6ededad50eba5660d2c80f4be11aef74c0a878787604051610a9993929190612365565b60405180910390a4505050505050565b610ab2826113e9565b610adc837f4445504f53495400000000000000000000000000000000000000000000000000610e17565b6000610ae784610e80565b905060008160010160000160009054906101000a900473ffffffffffffffffffffffffffffffffffffffff169050600030905060008573ffffffffffffffffffffffffffffffffffffffff1663dd62ed3e84846040518363ffffffff1660e01b8152600401610b579291906124e4565b602060405180830381865afa158015610b74573d6000803e3d6000fd5b505050506040513d601f19601f82011682018060405250810190610b989190612522565b905084811015610be15784816040517f2a1b2dd8000000000000000000000000000000000000000000000000000000008152600401610bd892919061254f565b60405180910390fd5b610c0e8383878973ffffffffffffffffffffffffffffffffffffffff16611447909392919063ffffffff16565b610c61858560070160008973ffffffffffffffffffffffffffffffffffffffff1673ffffffffffffffffffffffffffffffffffffffff1681526020019081526020016000206115a990919063ffffffff16565b3373ffffffffffffffffffffffffffffffffffffffff168673ffffffffffffffffffffffffffffffffffffffff16886fffffffffffffffffffffffffffffffff167fe129a089c40b14ad605bf8bd47c82af67cb34b3d0707b721b84a78b4662dc8d188604051610cd19190611fb6565b60405180910390a450505050505050565b610cea611d27565b610cf382610f6a565b6040518060c00160405290816000820160009054906101000a900460ff161515151581526020016001820154815260200160028201548152602001600382015481526020016004820160009054906101000a900473ffffffffffffffffffffffffffffffffffffffff1673ffffffffffffffffffffffffffffffffffffffff1673ffffffffffffffffffffffffffffffffffffffff1681526020016005820160009054906101000a900473ffffffffffffffffffffffffffffffffffffffff1673ffffffffffffffffffffffffffffffffffffffff1673ffffffffffffffffffffffffffffffffffffffff16815250509050919050565b6000806000610e0a84610dfc87610e80565b610eb590919063ffffffff16565b9250925092509250925092565b610e378133610e2585610e80565b60010161160a9092919063ffffffff16565b610e7c578181336040517f01de5522000000000000000000000000000000000000000000000000000000008152600401610e73939291906125a0565b60405180910390fd5b5050565b60008082604051602001610e949190612634565b60405160208183030381529060405280519060200120905080915050919050565b6000806000610ec485856116ac565b91508460070160008573ffffffffffffffffffffffffffffffffffffffff1673ffffffffffffffffffffffffffffffffffffffff1681526020019081526020016000206001015482610f169190612662565b9250610f618560070160008673ffffffffffffffffffffffffffffffffffffffff1673ffffffffffffffffffffffffffffffffffffffff16815260200190815260200160002061179f565b90509250925092565b60008082604051602001610f7e9190612704565b60405160208183030381529060405280519060200120905080915050919050565b6000808260040160009054906101000a900473ffffffffffffffffffffffffffffffffffffffff1673ffffffffffffffffffffffffffffffffffffffff1663feaf968c6040518163ffffffff1660e01b815260040160a060405180830381865afa158015611011573d6000803e3d6000fd5b505050506040513d601f19601f8201168201806040525081019061103591906127aa565b5050509150506000811361107e576040517f08c379a000000000000000000000000000000000000000000000000000000000815260040161107590612871565b60405180910390fd5b80915050919050565b60008060405160200161109990612903565b6040516020818303038152906040528051906020012090508091505090565b60006110c68260000161184a565b9050919050565b60006110dc836000018361185b565b60001c905092915050565b808260010160008282546110fb91906123cb565b925050819055505050565b6000808473ffffffffffffffffffffffffffffffffffffffff1663a9059cbb60e01b858560405160240161113b929190612923565b604051602081830303815290604052907bffffffffffffffffffffffffffffffffffffffffffffffffffffffff19166020820180517bffffffffffffffffffffffffffffffffffffffffffffffffffffffff83818316178352505050506040516111a591906129c6565b6000604051808303816000865af19150503d80600081146111e2576040519150601f19603f3d011682016040523d82523d6000602084013e6111e7565b606091505b50915091508115806112185750600081511415801561121757508080602001905181019061121591906129f2565b155b5b1561125e573084846040517f3210e1d900000000000000000000000000000000000000000000000000000000815260040161125593929190612a1f565b60405180910390fd5b5050505050565b61126d6118e3565b73ffffffffffffffffffffffffffffffffffffffff163373ffffffffffffffffffffffffffffffffffffffff16146112dc57336040517f8e4a23d60000000000000000000000000000000000000000000000000000000081526004016112d39190612a56565b60405180910390fd5b565b60006112e8611087565b90506112fd878261191690919063ffffffff16565b61131557611314878261194690919063ffffffff16565b5b600061132088610f6a565b9050878160050160006101000a81548173ffffffffffffffffffffffffffffffffffffffff021916908373ffffffffffffffffffffffffffffffffffffffff160217905550858160010181905550848160020181905550868160040160006101000a81548173ffffffffffffffffffffffffffffffffffffffff021916908373ffffffffffffffffffffffffffffffffffffffff160217905550838160030181905550828160000160006101000a81548160ff0219169083151502179055505050505050505050565b6113f281610f6a565b60000160009054906101000a900460ff1661144457806040517f719d818500000000000000000000000000000000000000000000000000000000815260040161143b9190612a56565b60405180910390fd5b50565b6000808573ffffffffffffffffffffffffffffffffffffffff166323b872dd60e01b86868660405160240161147e93929190612a1f565b604051602081830303815290604052907bffffffffffffffffffffffffffffffffffffffffffffffffffffffff19166020820180517bffffffffffffffffffffffffffffffffffffffffffffffffffffffff83818316178352505050506040516114e891906129c6565b6000604051808303816000865af19150503d8060008114611525576040519150601f19603f3d011682016040523d82523d6000602084013e61152a565b606091505b509150915081158061155b5750600081511415801561155a57508080602001905181019061155891906129f2565b155b5b156115a1578484846040517f3210e1d900000000000000000000000000000000000000000000000000000000815260040161159893929190612a1f565b60405180910390fd5b505050505050565b8160000160009054906101000a900460ff166115ea5760018260000160006101000a81548160ff021916908315150217905550808260010181905550611606565b808260010160008282546115fe9190612662565b925050819055505b5050565b60008360000160009054906101000a900473ffffffffffffffffffffffffffffffffffffffff1673ffffffffffffffffffffffffffffffffffffffff168273ffffffffffffffffffffffffffffffffffffffff1614806116915750611690847f41444d494e00000000000000000000000000000000000000000000000000000084611970565b5b806116a357506116a2848484611970565b5b90509392505050565b6000806000905060008460070160008573ffffffffffffffffffffffffffffffffffffffff1673ffffffffffffffffffffffffffffffffffffffff16815260200190815260200160002060020190506000600190505b61170b82611a06565b81116117935760006117268284611a1b90919063ffffffff16565b9050600061173382611a35565b9050600061176c888a60000160009054906101000a90046fffffffffffffffffffffffffffffffff1684611a6a9092919063ffffffff16565b509050808661177b9190612662565b9550505050808061178b9061245d565b915050611702565b50819250505092915050565b600080429050600080600090505b846004018054905081101561183f5760008560040182815481106117d4576117d36123ff565b5b906000526020600020906002020190508367ffffffffffffffff168160010160009054906101000a900467ffffffffffffffff1667ffffffffffffffff16111561182b578060000154836118289190612662565b92505b5080806118379061245d565b9150506117ad565b508092505050919050565b600081600001805490509050919050565b6000808214806118715750826000018054905082115b156118a8576040517feb9bc44700000000000000000000000000000000000000000000000000000000815260040160405180910390fd5b60006001836118b791906123cb565b90508360000181815481106118cf576118ce6123ff565b5b906000526020600020015491505092915050565b60006118ed611aef565b60000160019054906101000a900473ffffffffffffffffffffffffffffffffffffffff16905090565b600061193e836000018373ffffffffffffffffffffffffffffffffffffffff1660001b611b20565b905092915050565b61196c826000018273ffffffffffffffffffffffffffffffffffffffff1660001b611b43565b5050565b60008073ffffffffffffffffffffffffffffffffffffffff168273ffffffffffffffffffffffffffffffffffffffff16141580156119fd57506119fc838560010160008573ffffffffffffffffffffffffffffffffffffffff1673ffffffffffffffffffffffffffffffffffffffff168152602001908152602001600020611b2090919063ffffffff16565b5b90509392505050565b6000611a148260000161184a565b9050919050565b6000611a2a836000018361185b565b60001c905092915050565b60008082604051602001611a499190612abd565b60405160208183030381529060405280519060200120905080915050919050565b600080611ac08386600a0160008773ffffffffffffffffffffffffffffffffffffffff1673ffffffffffffffffffffffffffffffffffffffff168152602001908152602001600020611bd490919063ffffffff16565b9150611ae582611ad7611ad287610f6a565b610f9f565b611bf990919063ffffffff16565b9050935093915050565b600080604051602001611b0190612b37565b6040516020818303038152906040528051906020012090508091505090565b600080836001016000848152602001908152602001600020541415905092915050565b611b4d8282611b20565b15611b84576040517f682ad32d00000000000000000000000000000000000000000000000000000000815260040160405180910390fd5b816000018190806001815401808255809150506001900390600052602060002001600090919091909150558160000180549050826001016000838152602001908152602001600020819055505050565b6000611bf182611be385611c1e565b611c4090919063ffffffff16565b905092915050565b6000611c168383601260ff16600a611c119190612c8a565b611c68565b905092915050565b6000816002016000836000015481526020019081526020016000209050919050565b6000611c60611c4e83611c90565b84600301611caf90919063ffffffff16565b905092915050565b60008284029050828482041484151782151516611c8457600080fd5b81810490509392505050565b6000816fffffffffffffffffffffffffffffffff1660001b9050919050565b60006b033b2e3c9fd0803ce800000083600101600084815260200190815260200160002060000160009054906101000a90046fffffffffffffffffffffffffffffffff16600f0b8460000160109054906101000a9004600f0b600f0b611d159190612cd5565b611d1f9190612e1b565b905092915050565b6040518060c00160405280600015158152602001600081526020016000815260200160008152602001600073ffffffffffffffffffffffffffffffffffffffff168152602001600073ffffffffffffffffffffffffffffffffffffffff1681525090565b600080fd5b60006fffffffffffffffffffffffffffffffff82169050919050565b611db581611d90565b8114611dc057600080fd5b50565b600081359050611dd281611dac565b92915050565b600073ffffffffffffffffffffffffffffffffffffffff82169050919050565b6000611e0382611dd8565b9050919050565b611e1381611df8565b8114611e1e57600080fd5b50565b600081359050611e3081611e0a565b92915050565b6000819050919050565b611e4981611e36565b8114611e5457600080fd5b50565b600081359050611e6681611e40565b92915050565b600067ffffffffffffffff82169050919050565b611e8981611e6c565b8114611e9457600080fd5b50565b600081359050611ea681611e80565b92915050565b60008060008060808587031215611ec657611ec5611d8b565b5b6000611ed487828801611dc3565b9450506020611ee587828801611e21565b9350506040611ef687828801611e57565b9250506060611f0787828801611e97565b91505092959194509250565b60008060008060808587031215611f2d57611f2c611d8b565b5b6000611f3b87828801611dc3565b9450506020611f4c87828801611e21565b9350506040611f5d87828801611e57565b9250506060611f6e87828801611e57565b91505092959194509250565b600060208284031215611f9057611f8f611d8b565b5b6000611f9e84828501611e21565b91505092915050565b611fb081611e36565b82525050565b6000602082019050611fcb6000830184611fa7565b92915050565b60008115159050919050565b611fe681611fd1565b8114611ff157600080fd5b50565b60008135905061200381611fdd565b92915050565b60006020828403121561201f5761201e611d8b565b5b600061202d84828501611ff4565b91505092915050565b600081519050919050565b600082825260208201905092915050565b6000819050602082019050919050565b61206b81611fd1565b82525050565b61207a81611e36565b82525050565b61208981611df8565b82525050565b60c0820160008201516120a56000850182612062565b5060208201516120b86020850182612071565b5060408201516120cb6040850182612071565b5060608201516120de6060850182612071565b5060808201516120f16080850182612080565b5060a082015161210460a0850182612080565b50505050565b6000612116838361208f565b60c08301905092915050565b6000602082019050919050565b600061213a82612036565b6121448185612041565b935061214f83612052565b8060005b83811015612180578151612167888261210a565b975061217283612122565b925050600181019050612153565b5085935050505092915050565b600060208201905081810360008301526121a7818461212f565b905092915050565b6000806000606084860312156121c8576121c7611d8b565b5b60006121d686828701611dc3565b93505060206121e786828701611e21565b92505060406121f886828701611e57565b9150509250925092565b6000806040838503121561221957612218611d8b565b5b600061222785828601611dc3565b925050602061223885828601611e21565b9150509250929050565b60008060008060008060c0878903121561225f5761225e611d8b565b5b600061226d89828a01611e21565b965050602061227e89828a01611e21565b955050604061228f89828a01611e57565b94505060606122a089828a01611e57565b93505060806122b189828a01611e57565b92505060a06122c289828a01611ff4565b9150509295509295509295565b60c0820160008201516122e56000850182612062565b5060208201516122f86020850182612071565b50604082015161230b6040850182612071565b50606082015161231e6060850182612071565b5060808201516123316080850182612080565b5060a082015161234460a0850182612080565b50505050565b600060c08201905061235f60008301846122cf565b92915050565b600060608201905061237a6000830186611fa7565b6123876020830185611fa7565b6123946040830184611fa7565b949350505050565b7f4e487b7100000000000000000000000000000000000000000000000000000000600052601160045260246000fd5b60006123d682611e36565b91506123e183611e36565b9250828210156123f4576123f361239c565b5b828203905092915050565b7f4e487b7100000000000000000000000000000000000000000000000000000000600052603260045260246000fd5b7f4e487b7100000000000000000000000000000000000000000000000000000000600052603160045260246000fd5b600061246882611e36565b91507fffffffffffffffffffffffffffffffffffffffffffffffffffffffffffffffff82141561249b5761249a61239c565b5b600182019050919050565b7f4e487b7100000000000000000000000000000000000000000000000000000000600052604160045260246000fd5b6124de81611df8565b82525050565b60006040820190506124f960008301856124d5565b61250660208301846124d5565b9392505050565b60008151905061251c81611e40565b92915050565b60006020828403121561253857612537611d8b565b5b60006125468482850161250d565b91505092915050565b60006040820190506125646000830185611fa7565b6125716020830184611fa7565b9392505050565b61258181611d90565b82525050565b6000819050919050565b61259a81612587565b82525050565b60006060820190506125b56000830186612578565b6125c26020830185612591565b6125cf60408301846124d5565b949350505050565b600082825260208201905092915050565b7f4163636f756e7400000000000000000000000000000000000000000000000000600082015250565b600061261e6007836125d7565b9150612629826125e8565b602082019050919050565b6000604082019050818103600083015261264d81612611565b905061265c6020830184612578565b92915050565b600061266d82611e36565b915061267883611e36565b9250827fffffffffffffffffffffffffffffffffffffffffffffffffffffffffffffffff038211156126ad576126ac61239c565b5b828201905092915050565b7f436f6c6c61746572616c436f6e66696775726174696f6e000000000000000000600082015250565b60006126ee6017836125d7565b91506126f9826126b8565b602082019050919050565b6000604082019050818103600083015261271d816126e1565b905061272c60208301846124d5565b92915050565b600069ffffffffffffffffffff82169050919050565b61275181612732565b811461275c57600080fd5b50565b60008151905061276e81612748565b92915050565b6000819050919050565b61278781612774565b811461279257600080fd5b50565b6000815190506127a48161277e565b92915050565b600080600080600060a086880312156127c6576127c5611d8b565b5b60006127d48882890161275f565b95505060206127e588828901612795565b94505060406127f68882890161250d565b93505060606128078882890161250d565b92505060806128188882890161275f565b9150509295509295909350565b7f54686520636f6c6c61746572616c2076616c7565206973203000000000000000600082015250565b600061285b6019836125d7565b915061286682612825565b602082019050919050565b6000602082019050818103600083015261288a8161284e565b9050919050565b7f436f6c6c61746572616c436f6e66696775726174696f6e5f617661696c61626c60008201527f65436f6c6c61746572616c730000000000000000000000000000000000000000602082015250565b60006128ed602c836125d7565b91506128f882612891565b604082019050919050565b6000602082019050818103600083015261291c816128e0565b9050919050565b600060408201905061293860008301856124d5565b6129456020830184611fa7565b9392505050565b600081519050919050565b600081905092915050565b60005b83811015612980578082015181840152602081019050612965565b8381111561298f576000848401525b50505050565b60006129a08261294c565b6129aa8185612957565b93506129ba818560208601612962565b80840191505092915050565b60006129d28284612995565b915081905092915050565b6000815190506129ec81611fdd565b92915050565b600060208284031215612a0857612a07611d8b565b5b6000612a16848285016129dd565b91505092915050565b6000606082019050612a3460008301866124d5565b612a4160208301856124d5565b612a4e6040830184611fa7565b949350505050565b6000602082019050612a6b60008301846124d5565b92915050565b7f506f6f6c00000000000000000000000000000000000000000000000000000000600082015250565b6000612aa76004836125d7565b9150612ab282612a71565b602082019050919050565b60006040820190508181036000830152612ad681612a9a565b9050612ae56020830184612578565b92915050565b7f4f776e61626c6500000000000000000000000000000000000000000000000000600082015250565b6000612b216007836125d7565b9150612b2c82612aeb565b602082019050919050565b60006020820190508181036000830152612b5081612b14565b9050919050565b60008160011c9050919050565b6000808291508390505b6001851115612bae57808604811115612b8a57612b8961239c565b5b6001851615612b995780820291505b8081029050612ba785612b57565b9450612b6e565b94509492505050565b600082612bc75760019050612c83565b81612bd55760009050612c83565b8160018114612beb5760028114612bf557612c24565b6001915050612c83565b60ff841115612c0757612c0661239c565b5b8360020a915084821115612c1e57612c1d61239c565b5b50612c83565b5060208310610133831016604e8410600b8410161715612c595782820a905083811115612c5457612c5361239c565b5b612c83565b612c668484846001612b64565b92509050818404811115612c7d57612c7c61239c565b5b81810290505b9392505050565b6000612c9582611e36565b9150612ca083611e36565b9250612ccd7fffffffffffffffffffffffffffffffffffffffffffffffffffffffffffffffff8484612bb7565b905092915050565b6000612ce082612774565b9150612ceb83612774565b9250827f7fffffffffffffffffffffffffffffffffffffffffffffffffffffffffffffff0482116000841360008413161615612d2a57612d2961239c565b5b817f80000000000000000000000000000000000000000000000000000000000000000583126000841260008413161615612d6757612d6661239c565b5b827f80000000000000000000000000000000000000000000000000000000000000000582126000841360008412161615612da457612da361239c565b5b827f7fffffffffffffffffffffffffffffffffffffffffffffffffffffffffffffff0582126000841260008412161615612de157612de061239c565b5b828202905092915050565b7f4e487b7100000000000000000000000000000000000000000000000000000000600052601260045260246000fd5b6000612e2682612774565b9150612e3183612774565b925082612e4157612e40612dec565b5b600160000383147f800000000000000000000000000000000000000000000000000000000000000083141615612e7a57612e7961239c565b5b82820590509291505056fea2646970667358221220f6576897bed592cb58264c78116cd4130a198167ee6cc8a90a6bce4c106c6cfd64736f6c634300080b0033",
  "linkReferences": {},
  "deployedLinkReferences": {}
}