{
  "_format": "hh-sol-artifact-1",
  "contractName": "LiquidationModule",
  "sourceName": "contracts/modules/core/LiquidationModule.sol",
  "abi": [
    {
      "inputs": [],
      "name": "EmptyDistribution",
      "type": "error"
    },
    {
      "inputs": [
        {
          "internalType": "address",
          "name": "from",
          "type": "address"
        },
        {
          "internalType": "address",
          "name": "to",
          "type": "address"
        },
        {
          "internalType": "uint256",
          "name": "value",
          "type": "uint256"
        }
      ],
      "name": "FailedTransfer",
      "type": "error"
    },
    {
      "inputs": [],
      "name": "InconsistentDistribution",
      "type": "error"
    },
    {
      "inputs": [
        {
          "internalType": "uint256",
          "name": "collateralValue",
          "type": "uint256"
        },
        {
          "internalType": "uint256",
          "name": "debt",
          "type": "uint256"
        },
        {
          "internalType": "uint256",
          "name": "currentCRatio",
          "type": "uint256"
        },
        {
          "internalType": "uint256",
          "name": "cratio",
          "type": "uint256"
        }
      ],
      "name": "IneligibleForLiquidation",
      "type": "error"
    },
    {
      "inputs": [
        {
          "internalType": "string",
          "name": "incorrectParameter",
          "type": "string"
        },
        {
          "internalType": "string",
          "name": "help",
          "type": "string"
        }
      ],
      "name": "InvalidParameters",
      "type": "error"
    },
    {
      "inputs": [
        {
          "internalType": "uint128",
          "name": "marketId",
          "type": "uint128"
        }
      ],
      "name": "MarketNotFound",
      "type": "error"
    },
    {
      "inputs": [
        {
          "internalType": "bytes32",
          "name": "expected",
          "type": "bytes32"
        },
        {
          "internalType": "bytes32",
          "name": "actual",
          "type": "bytes32"
        }
      ],
      "name": "MismatchAssociatedSystemKind",
      "type": "error"
    },
    {
      "inputs": [],
      "name": "MustBeVaultLiquidated",
      "type": "error"
    },
    {
      "inputs": [],
      "name": "OverflowInt256ToInt128",
      "type": "error"
    },
    {
      "inputs": [],
      "name": "OverflowInt256ToUint256",
      "type": "error"
    },
    {
      "inputs": [],
      "name": "OverflowUint128ToInt128",
      "type": "error"
    },
    {
      "inputs": [],
      "name": "OverflowUint256ToUint128",
      "type": "error"
    },
    {
      "inputs": [],
      "name": "ZeroValuePerShare",
      "type": "error"
    },
    {
      "anonymous": false,
      "inputs": [
        {
          "indexed": true,
          "internalType": "uint128",
          "name": "accountId",
          "type": "uint128"
        },
        {
          "indexed": true,
          "internalType": "uint128",
          "name": "poolId",
          "type": "uint128"
        },
        {
          "indexed": true,
          "internalType": "address",
          "name": "collateralType",
          "type": "address"
        },
        {
          "indexed": false,
          "internalType": "uint256",
          "name": "debtLiquidated",
          "type": "uint256"
        },
        {
          "indexed": false,
          "internalType": "uint256",
          "name": "collateralLiquidated",
          "type": "uint256"
        },
        {
          "indexed": false,
          "internalType": "uint256",
          "name": "amountRewarded",
          "type": "uint256"
        }
      ],
      "name": "Liquidation",
      "type": "event"
    },
    {
      "anonymous": false,
      "inputs": [
        {
          "indexed": true,
          "internalType": "uint128",
          "name": "poolId",
          "type": "uint128"
        },
        {
          "indexed": true,
          "internalType": "address",
          "name": "collateralType",
          "type": "address"
        },
        {
          "indexed": false,
          "internalType": "uint256",
          "name": "debtLiquidated",
          "type": "uint256"
        },
        {
          "indexed": false,
          "internalType": "uint256",
          "name": "collateralLiquidated",
          "type": "uint256"
        },
        {
          "indexed": false,
          "internalType": "uint256",
          "name": "amountRewarded",
          "type": "uint256"
        }
      ],
      "name": "VaultLiquidation",
      "type": "event"
    },
    {
      "inputs": [
        {
          "internalType": "uint128",
          "name": "accountId",
          "type": "uint128"
        },
        {
          "internalType": "uint128",
          "name": "poolId",
          "type": "uint128"
        },
        {
          "internalType": "address",
          "name": "collateralType",
          "type": "address"
        }
      ],
      "name": "isLiquidatable",
      "outputs": [
        {
          "internalType": "bool",
          "name": "",
          "type": "bool"
        }
      ],
      "stateMutability": "nonpayable",
      "type": "function"
    },
    {
      "inputs": [
        {
          "internalType": "uint128",
          "name": "accountId",
          "type": "uint128"
        },
        {
          "internalType": "uint128",
          "name": "poolId",
          "type": "uint128"
        },
        {
          "internalType": "address",
          "name": "collateralType",
          "type": "address"
        }
      ],
      "name": "liquidate",
      "outputs": [
        {
          "internalType": "uint256",
          "name": "amountRewarded",
          "type": "uint256"
        },
        {
          "internalType": "uint256",
          "name": "debtLiquidated",
          "type": "uint256"
        },
        {
          "internalType": "uint256",
          "name": "collateralLiquidated",
          "type": "uint256"
        }
      ],
      "stateMutability": "nonpayable",
      "type": "function"
    },
    {
      "inputs": [
        {
          "internalType": "uint128",
          "name": "poolId",
          "type": "uint128"
        },
        {
          "internalType": "address",
          "name": "collateralType",
          "type": "address"
        },
        {
          "internalType": "uint128",
          "name": "liquidateAsAccountId",
          "type": "uint128"
        },
        {
          "internalType": "uint256",
          "name": "maxUsd",
          "type": "uint256"
        }
      ],
      "name": "liquidateVault",
      "outputs": [
        {
          "internalType": "uint256",
          "name": "amountLiquidated",
          "type": "uint256"
        },
        {
          "internalType": "uint256",
          "name": "collateralRewarded",
          "type": "uint256"
        }
      ],
      "stateMutability": "nonpayable",
      "type": "function"
    }
  ],
  "bytecode": "0x608060405234801561001057600080fd5b5061510c806100206000396000f3fe608060405234801561001057600080fd5b50600436106100415760003560e01c80633115393d1461004657806361525e71146100765780637d8a4140146100a8575b600080fd5b610060600480360381019061005b9190613ec2565b6100d9565b60405161006d9190613f30565b60405180910390f35b610090600480360381019061008b9190613ec2565b61013e565b60405161009f93929190613f64565b60405180910390f35b6100c260048036038101906100bd9190613fc7565b610481565b6040516100d092919061402e565b60405180910390f35b6000806100e58461098f565b905060006100fe8487846109c49092919063ffffffff16565b90506000610117858885610a2d9092919063ffffffff16565b915050600082121580156101325750610131858383610ab8565b5b93505050509392505050565b60008060008061014d8661098f565b9050600061015a86610af6565b905060006101a783600a0160008973ffffffffffffffffffffffffffffffffffffffff1673ffffffffffffffffffffffffffffffffffffffff168152602001908152602001600020610b2b565b905060006101c0888b866109c49092919063ffffffff16565b90506000806101da8a8d88610a2d9092919063ffffffff16565b915091508196508297506000831315806101fc57506101fa8a8483610ab8565b155b1561026a57808860008a146102235761021e8a84610b4d90919063ffffffff16565b610226565b60005b87600201546040517fc3e9777c0000000000000000000000000000000000000000000000000000000081526004016102619493929190614057565b60405180910390fd5b60006102978d6fffffffffffffffffffffffffffffffff1660001b86600101610b7690919063ffffffff16565b9050808560010160000160009054906101000a90046fffffffffffffffffffffffffffffffff166fffffffffffffffffffffffffffffffff161415610308576040517f2603071d00000000000000000000000000000000000000000000000000000000815260040160405180910390fd5b8560030154995061031b85600301610bc7565b8a10610353576040517f2603071d00000000000000000000000000000000000000000000000000000000815260040160405180910390fd5b61036b8d60008088610c1b909392919063ffffffff16565b61038c8a8961037a91906140d5565b86600301610c9390919063ffffffff16565b6103ba8d6fffffffffffffffffffffffffffffffff1660001b600087600501610d919092919063ffffffff16565b506103ce8986610f7890919063ffffffff16565b6103f9338b8d73ffffffffffffffffffffffffffffffffffffffff16610feb9092919063ffffffff16565b8a73ffffffffffffffffffffffffffffffffffffffff168c6fffffffffffffffffffffffffffffffff168e6fffffffffffffffffffffffffffffffff167f894d7822bfdb431ff1e7928a0789999585890c45d1fccbae70410dbc8c35f0108c8c8f60405161046993929190613f64565b60405180910390a45050505050505093509350939050565b600080600073ffffffffffffffffffffffffffffffffffffffff166104a58561114a565b60010160000160009054906101000a900473ffffffffffffffffffffffffffffffffffffffff1673ffffffffffffffffffffffffffffffffffffffff161415610523576040517f01674a6b00000000000000000000000000000000000000000000000000000000815260040161051a90614212565b60405180910390fd5b6000831415610567576040517f01674a6b00000000000000000000000000000000000000000000000000000000815260040161055e906142dd565b60405180910390fd5b60006105728761098f565b9050600061057f87610af6565b9050600082600a0160008973ffffffffffffffffffffffffffffffffffffffff1673ffffffffffffffffffffffffffffffffffffffff168152602001908152602001600020905060006105db898561117f90919063ffffffff16565b905060008082126105ec57816105ef565b60005b905060006106068b876111dd90919063ffffffff16565b9150506106148b8383610ab8565b6106815780826000841161062957600061063d565b61063c8484610b4d90919063ffffffff16565b5b87600201546040517fc3e9777c0000000000000000000000000000000000000000000000000000000081526004016106789493929190614057565b60405180910390fd5b888211610756576106b96106b47f555344546f6b656e00000000000000000000000000000000000000000000000061125d565b611292565b73ffffffffffffffffffffffffffffffffffffffff16639dc29fac33846040518363ffffffff1660e01b81526004016106f392919061431f565b600060405180830381600087803b15801561070d57600080fd5b505af1158015610721573d6000803e3d6000fd5b5050505081975061073c61073485610b2b565b600301610bc7565b96506107518b876112ea90919063ffffffff16565b6108c0565b6107876107827f555344546f6b656e00000000000000000000000000000000000000000000000061125d565b611292565b73ffffffffffffffffffffffffffffffffffffffff16639dc29fac338b6040518363ffffffff1660e01b81526004016107c192919061431f565b600060405180830381600087803b1580156107db57600080fd5b505af11580156107ef573d6000803e3d6000fd5b5050505060006107fe85610b2b565b9050899850828961081183600301610bc7565b61081b9190614348565b61082591906143d1565b97506108468961083490614402565b82600101610c9390919063ffffffff16565b888160000160008282829054906101000a9004600f0b6108669190614458565b92506101000a8154816fffffffffffffffffffffffffffffffff0219169083600f0b6fffffffffffffffffffffffffffffffff1602179055506108be886108ac90614402565b82600301610c9390919063ffffffff16565b505b61091b876108cd8c61114a565b60070160008e73ffffffffffffffffffffffffffffffffffffffff1673ffffffffffffffffffffffffffffffffffffffff16815260200190815260200160002061134290919063ffffffff16565b8a73ffffffffffffffffffffffffffffffffffffffff168c6fffffffffffffffffffffffffffffffff167f3e827066f2890bb19a90247d5f802d3301f20d54e7b7dc27e61ad5e96461024e8a8a8b60405161097893929190613f64565b60405180910390a350505050505094509492505050565b600080826040516020016109a39190614537565b60405160208183030381529060405280519060200120905080915050919050565b60006109d084846113a3565b50610a248285600a0160008673ffffffffffffffffffffffffffffffffffffffff1673ffffffffffffffffffffffffffffffffffffffff16815260200190815260200160002061152290919063ffffffff16565b90509392505050565b6000806000610a43610a3e86610af6565b611547565b9050610a988487600a0160008873ffffffffffffffffffffffffffffffffffffffff1673ffffffffffffffffffffffffffffffffffffffff16815260200190815260200160002061162f90919063ffffffff16565b9250610aad838261165490919063ffffffff16565b915050935093915050565b600080831415610acb5760009050610aef565b610ad484610af6565b60020154610aeb8484610b4d90919063ffffffff16565b1090505b9392505050565b60008082604051602001610b0a91906145b1565b60405160208183030381529060405280519060200120905080915050919050565b6000816002016000836000015481526020019081526020016000209050919050565b600081670de0b6b3a764000084610b649190614348565b610b6e91906143d1565b905092915050565b600082600101600083815260200190815260200160002060000160009054906101000a90046fffffffffffffffffffffffffffffffff166fffffffffffffffffffffffffffffffff16905092915050565b6000610c148260000160009054906101000a90046fffffffffffffffffffffffffffffffff16600f0b8360000160109054906101000a9004600f0b600f0b610c0f91906145df565b61167d565b9050919050565b6000610c268461169e565b9050610c3285856116bd565b50610c4b8184876003016117859092919063ffffffff16565b50610c8b81610c7884610c6a858a600301610b7690919063ffffffff16565b61165490919063ffffffff16565b87600101610d919092919063ffffffff16565b505050505050565b6000811415610ca157610d8d565b60008260000160009054906101000a90046fffffffffffffffffffffffffffffffff166fffffffffffffffffffffffffffffffff1690506000811415610d13576040517f3b182f5500000000000000000000000000000000000000000000000000000000815260040160405180910390fd5b6000610d1e83611a75565b905060008282610d2e91906146f6565b9050808560000160108282829054906101000a9004600f0b610d509190614760565b92506101000a8154816fffffffffffffffffffffffffffffffff0219169083600f0b6fffffffffffffffffffffffffffffffff1602179055505050505b5050565b600080846001016000858152602001908152602001600020905060008160000160109054906101000a9004600f0b8660000160109054906101000a9004600f0b610ddb9190614458565b90506000610e1a8360000160009054906101000a90046fffffffffffffffffffffffffffffffff166fffffffffffffffffffffffffffffffff16611a96565b82600f0b610e2891906145df565b9050610e338161167d565b93506000610e4086611aab565b90508360000160009054906101000a90046fffffffffffffffffffffffffffffffff16818960000160009054906101000a90046fffffffffffffffffffffffffffffffff16610e8f91906147e4565b610e99919061482a565b8860000160006101000a8154816fffffffffffffffffffffffffffffffff02191690836fffffffffffffffffffffffffffffffff160217905550808460000160006101000a8154816fffffffffffffffffffffffffffffffff02191690836fffffffffffffffffffffffffffffffff16021790555060008614610f2d578760000160109054906101000a9004600f0b610f30565b60005b8460000160106101000a8154816fffffffffffffffffffffffffffffffff0219169083600f0b6fffffffffffffffffffffffffffffffff160217905550505050509392505050565b610f8e8183600101610c9390919063ffffffff16565b808260000160008282829054906101000a9004600f0b610fae9190614760565b92506101000a8154816fffffffffffffffffffffffffffffffff0219169083600f0b6fffffffffffffffffffffffffffffffff1602179055505050565b6000808473ffffffffffffffffffffffffffffffffffffffff1663a9059cbb60e01b858560405160240161102092919061431f565b604051602081830303815290604052907bffffffffffffffffffffffffffffffffffffffffffffffffffffffff19166020820180517bffffffffffffffffffffffffffffffffffffffffffffffffffffffff838183161783525050505060405161108a91906148d8565b6000604051808303816000865af19150503d80600081146110c7576040519150601f19603f3d011682016040523d82523d6000602084013e6110cc565b606091505b50915091508115806110fd575060008151141580156110fc5750808060200190518101906110fa919061491b565b155b5b15611143573084846040517f3210e1d900000000000000000000000000000000000000000000000000000000815260040161113a93929190614948565b60405180910390fd5b5050505050565b6000808260405160200161115e91906149cb565b60405160208183030381529060405280519060200120905080915050919050565b600061118b83836113a3565b506111d583600a0160008473ffffffffffffffffffffffffffffffffffffffff1673ffffffffffffffffffffffffffffffffffffffff168152602001908152602001600020611b01565b905092915050565b60008060006111f36111ee85610af6565b611547565b905061123e85600a0160008673ffffffffffffffffffffffffffffffffffffffff1673ffffffffffffffffffffffffffffffffffffffff168152602001908152602001600020611b1b565b9250611253838261165490919063ffffffff16565b9150509250929050565b600080826040516020016112719190614a5e565b60405160208183030381529060405280519060200120905080915050919050565b60006112be827f6572633230000000000000000000000000000000000000000000000000000000611b38565b8160000160009054906101000a900473ffffffffffffffffffffffffffffffffffffffff169050919050565b61133382600a0160008373ffffffffffffffffffffffffffffffffffffffff1673ffffffffffffffffffffffffffffffffffffffff168152602001908152602001600020611bba565b61133d82826113a3565b505050565b8160000160009054906101000a900460ff166113835760018260000160006101000a81548160ff02191690831515021790555080826001018190555061139f565b808260010160008282546113979190614a8c565b925050819055505b5050565b60006113ae83611bd7565b6113bf6113ba83610af6565b611547565b90506000806114178386600a0160008773ffffffffffffffffffffffffffffffffffffffff1673ffffffffffffffffffffffffffffffffffffffff168152602001908152602001600020611e2e90919063ffffffff16565b925050915060008473ffffffffffffffffffffffffffffffffffffffff1660001b90506000611454828589600601610d919092919063ffffffff16565b9050828760040160109054906101000a90046fffffffffffffffffffffffffffffffff166114829190614760565b8760040160106101000a8154816fffffffffffffffffffffffffffffffff02191690836fffffffffffffffffffffffffffffffff16021790555061150f8188600a0160008973ffffffffffffffffffffffffffffffffffffffff1673ffffffffffffffffffffffffffffffffffffffff168152602001908152602001600020611f4b90919063ffffffff16565b61151887611bd7565b5050505092915050565b600061153f8261153185610b2b565b6116bd90919063ffffffff16565b905092915050565b6000808260040160009054906101000a900473ffffffffffffffffffffffffffffffffffffffff1673ffffffffffffffffffffffffffffffffffffffff1663feaf968c6040518163ffffffff1660e01b815260040160a060405180830381865afa1580156115b9573d6000803e3d6000fd5b505050506040513d601f19601f820116820180604052508101906115dd9190614b65565b50505091505060008113611626576040517f08c379a000000000000000000000000000000000000000000000000000000000815260040161161d90614c2c565b60405180910390fd5b80915050919050565b600061164c8261163e85610b2b565b611f6a90919063ffffffff16565b905092915050565b6000670de0b6b3a7640000828461166b9190614348565b61167591906143d1565b905092915050565b60006b033b2e3c9fd0803ce80000008261169791906146f6565b9050919050565b6000816fffffffffffffffffffffffffffffffff1660001b9050919050565b6000806116c98361169e565b90506116e18185600501611f9290919063ffffffff16565b915060006116fb8286600101611ffb90919063ffffffff16565b905080836117099190614c4c565b92506117238284876005016117859092919063ffffffff16565b50808560000160008282829054906101000a9004600f0b6117449190614458565b92506101000a8154816fffffffffffffffffffffffffffffffff0219169083600f0b6fffffffffffffffffffffffffffffffff160217905550505092915050565b6000808460000160109054906101000a9004600f0b600f0b1480156117dd575060008460000160009054906101000a90046fffffffffffffffffffffffffffffffff166fffffffffffffffffffffffffffffffff1614155b15611814576040517f7d06244800000000000000000000000000000000000000000000000000000000815260040160405180910390fd5b6000846001016000858152602001908152602001600020905060008160000160109054906101000a9004600f0b600f0b1461187b576040517f842be92f00000000000000000000000000000000000000000000000000000000815260040160405180910390fd5b60008560000160009054906101000a90046fffffffffffffffffffffffffffffffff166fffffffffffffffffffffffffffffffff161415611928576b033b2e3c9fd0803ce80000008560000160106101000a8154816fffffffffffffffffffffffffffffffff0219169083600f0b6fffffffffffffffffffffffffffffffff1602179055506119216000841361191a578361191590614402565b61191c565b835b612019565b915061196d565b61193185610bc7565b8560000160009054906101000a90046fffffffffffffffffffffffffffffffff16600f0b8461196091906145df565b61196a91906146f6565b91505b6119f08160000160009054906101000a90046fffffffffffffffffffffffffffffffff166fffffffffffffffffffffffffffffffff16838760000160009054906101000a90046fffffffffffffffffffffffffffffffff166fffffffffffffffffffffffffffffffff166119e19190614a8c565b6119eb9190614ce0565b611aab565b8560000160006101000a8154816fffffffffffffffffffffffffffffffff02191690836fffffffffffffffffffffffffffffffff160217905550611a3382611aab565b8160000160006101000a8154816fffffffffffffffffffffffffffffffff02191690836fffffffffffffffffffffffffffffffff160217905550509392505050565b60006b033b2e3c9fd0803ce800000082611a8f91906145df565b9050919050565b6000611aa18261205d565b600f0b9050919050565b60006fffffffffffffffffffffffffffffffff8016821115611af9576040517ffab0c95e00000000000000000000000000000000000000000000000000000000815260040160405180910390fd5b819050919050565b6000611b14611b0f83610b2b565b6120d5565b9050919050565b6000611b31611b2983610b2b565b600301610bc7565b9050919050565b600082600201549050818114158015611b7157507f756e6d616e6167656400000000000000000000000000000000000000000000008114155b15611bb55781816040517f06a98cf8000000000000000000000000000000000000000000000000000000008152600401611bac929190614d14565b60405180910390fd5b505050565b806000016000815480929190611bcf90614d3d565b919050555050565b60008160040160009054906101000a90046fffffffffffffffffffffffffffffffff166fffffffffffffffffffffffffffffffff1690506000811415611c1d5750611e2b565b60008260060160000160009054906101000a90046fffffffffffffffffffffffffffffffff16600f0b905060008360040160109054906101000a90046fffffffffffffffffffffffffffffffff1690506000805b8560050180549050811015611e0f576000866005018281548110611c9857611c97614d86565b5b9060005260206000209060020201905060008160000160109054906101000a90046fffffffffffffffffffffffffffffffff166fffffffffffffffffffffffffffffffff1690506000808713611cef576000611d07565b878288611cfc9190614348565b611d0691906143d1565b5b905060008883886fffffffffffffffffffffffffffffffff16611d2a9190614348565b611d3491906143d1565b90506000611d618560000160009054906101000a90046fffffffffffffffffffffffffffffffff16612109565b90506000611d708c838561213e565b905060008660010160009054906101000a9004600f0b600f0b9050808212611d985780611d9a565b815b9150611de88760000160009054906101000a90046fffffffffffffffffffffffffffffffff168e60000160009054906101000a90046fffffffffffffffffffffffffffffffff1684886121ff565b89611df39190614c4c565b9850505050505050508080611e0790614d3d565b915050611c71565b50611e268186600601610c9390919063ffffffff16565b505050505b50565b600080600080611e3d86610b2b565b9050611e87858260010160000160009054906101000a90046fffffffffffffffffffffffffffffffff166fffffffffffffffffffffffffffffffff1661165490919063ffffffff16565b93506000611ea986611e9b84600301610bc7565b61165490919063ffffffff16565b90506000611eb6836120d5565b9050808213611ec6576000611ed3565b8082611ed291906140d5565b5b94508760010160109054906101000a90046fffffffffffffffffffffffffffffffff16600f0b85611f0491906140d5565b9350848860010160106101000a8154816fffffffffffffffffffffffffffffffff02191690836fffffffffffffffffffffffffffffffff1602179055505050509250925092565b611f6681611f5884610b2b565b610f7890919063ffffffff16565b5050565b6000611f8a611f788361169e565b84600301611f9290919063ffffffff16565b905092915050565b6000611ff383600101600084815260200190815260200160002060000160009054906101000a90046fffffffffffffffffffffffffffffffff16600f0b8460000160109054906101000a9004600f0b600f0b611fee91906145df565b61167d565b905092915050565b6000612011838361200c8686610b76565b610d91565b905092915050565b600080821215612055576040517f14f8126800000000000000000000000000000000000000000000000000000000815260040160405180910390fd5b819050919050565b60006f7fffffffffffffffffffffffffffffff6fffffffffffffffffffffffffffffffff16826fffffffffffffffffffffffffffffffff1611156120cd576040517f8b26f05e00000000000000000000000000000000000000000000000000000000815260040160405180910390fd5b819050919050565b60006120e382600501610bc7565b8260000160009054906101000a9004600f0b600f0b6121029190614c4c565b9050919050565b6000808260405160200161211d9190614e01565b60405160208183030381529060405280519060200120905080915050919050565b6000806121496122c9565b60000154905060008082141561216957670de0b6b3a764000090506121c6565b6121c38660060160000160009054906101000a90046fffffffffffffffffffffffffffffffff166fffffffffffffffffffffffffffffffff166121b58487610b4d90919063ffffffff16565b610b4d90919063ffffffff16565b90505b806121e786600a0160000160109054906101000a9004600f0b600f0b6122fa565b600f0b6121f49190614c4c565b925050509392505050565b60008061220b86612109565b9050600073ffffffffffffffffffffffffffffffffffffffff168160010160009054906101000a900473ffffffffffffffffffffffffffffffffffffffff1673ffffffffffffffffffffffffffffffffffffffff1614156122a357856040517ff080c1ea00000000000000000000000000000000000000000000000000000000815260040161229a9190614e2f565b60405180910390fd5b6122b2816402540be3ff612313565b6122be8186858761243a565b915050949350505050565b6000806040516020016122db90614e96565b6040516020818303038152906040528051906020012090508091505090565b6000633b9aca008261230c9190614eb6565b9050919050565b600061231e836127ee565b905060008360030160009054906101000a9004600f0b600f0b8261234291906140d5565b90506000612351858386612832565b9150506000612361868487612bc4565b91505080158015612370575081155b80156123b15750600086600a0160000160009054906101000a90046fffffffffffffffffffffffffffffffff166fffffffffffffffffffffffffffffffff16115b15612432576123eb8660030160009054906101000a9004600f0b600f0b856123d991906140d5565b87600a01610c9390919063ffffffff16565b6123f484612f45565b8660030160006101000a8154816fffffffffffffffffffffffffffffffff0219169083600f0b6fffffffffffffffffffffffffffffffff1602179055505b505050505050565b6000806124478686612fc9565b905060006124618688600401612ffe90919063ffffffff16565b6020015161246e90614f20565b600f0b905061247c85611aab565b87600c016000886fffffffffffffffffffffffffffffffff166fffffffffffffffffffffffffffffffff16815260200190815260200160002060000160006101000a8154816fffffffffffffffffffffffffffffffff02191690836fffffffffffffffffffffffffffffffff160217905550600061251088600a0160000160109054906101000a9004600f0b600f0b6122fa565b905080600f0b851215612578576000955061255161253f886fffffffffffffffffffffffffffffffff16611aab565b8960040161305190919063ffffffff16565b506125728761255f87612f45565b8a6007016130a49092919063ffffffff16565b506125ba565b6125a18761258587612f45565b61258e90614f20565b8a6004016130a49092919063ffffffff16565b506125b8878960070161305190919063ffffffff16565b505b6125e7876fffffffffffffffffffffffffffffffff1660001b878a600a01610d919092919063ffffffff16565b61265a89600c0160008a6fffffffffffffffffffffffffffffffff166fffffffffffffffffffffffffffffffff16815260200190815260200160002060010160009054906101000a90046fffffffffffffffffffffffffffffffff166fffffffffffffffffffffffffffffffff1661205d565b600f0b6126679190614c4c565b9350600088600c016000896fffffffffffffffffffffffffffffffff166fffffffffffffffffffffffffffffffff16815260200190815260200160002060010160006101000a8154816fffffffffffffffffffffffffffffffff02191690836fffffffffffffffffffffffffffffffff16021790555080600f0b851315612760576126fb6126f68988886131b4565b611aab565b8860020160108282829054906101000a90046fffffffffffffffffffffffffffffffff1661272991906147e4565b92506101000a8154816fffffffffffffffffffffffffffffffff02191690836fffffffffffffffffffffffffffffffff1602179055505b80600f0b8213156127e35761277e6127798985856131b4565b611aab565b8860020160108282829054906101000a90046fffffffffffffffffffffffffffffffff166127ac919061482a565b92506101000a8154816fffffffffffffffffffffffffffffffff02191690836fffffffffffffffffffffffffffffffff1602179055505b505050949350505050565b60006127f982613201565b8260020160009054906101000a9004600f0b600f0b6128178461330f565b6128219190614c4c565b61282b91906140d5565b9050919050565b600080600084136128495760008091509150612bbc565b60005b83811015612b54576000612862876004016133d6565b141561286d57612b54565b60006128cd6128b088600a0160000160009054906101000a90046fffffffffffffffffffffffffffffffff166fffffffffffffffffffffffffffffffff1661205d565b600f0b85886128bf91906140d5565b61340990919063ffffffff16565b6128ed88600a0160000160109054906101000a9004600f0b600f0b613432565b6128f79190614c4c565b905060006129078860040161344b565b905081816020015161291890614f20565b600f0b12612927575050612b54565b6129378860040189600701613465565b6000816020015161294790614f20565b905060006129c861296e8b600a0160000160109054906101000a9004600f0b600f0b613432565b83600f0b61297c91906140d5565b6129ba8c600a0160000160009054906101000a90046fffffffffffffffffffffffffffffffff166fffffffffffffffffffffffffffffffff16611a96565b61349e90919063ffffffff16565b90506129e0818b600a01610c9390919063ffffffff16565b80876129ec9190614c4c565b96506000836000015190506000612a24826fffffffffffffffffffffffffffffffff1660001b8d600a01610b7690919063ffffffff16565b11612a64576040517f08c379a0000000000000000000000000000000000000000000000000000000008152600401612a5b90614fb5565b60405180910390fd5b6000612a94826fffffffffffffffffffffffffffffffff1660001b60008e600a01610d919092919063ffffffff16565b9050612a9f81611aab565b8c600c016000846fffffffffffffffffffffffffffffffff166fffffffffffffffffffffffffffffffff16815260200190815260200160002060010160008282829054906101000a90046fffffffffffffffffffffffffffffffff16612b0591906147e4565b92506101000a8154816fffffffffffffffffffffffffffffffff02191690836fffffffffffffffffffffffffffffffff1602179055505050505050508080612b4c90614d3d565b91505061284c565b612b5d83612f45565b8660030160008282829054906101000a9004600f0b612b7c9190614760565b92506101000a8154816fffffffffffffffffffffffffffffffff0219169083600f0b6fffffffffffffffffffffffffffffffff1602179055508381149150505b935093915050565b600080600084121580612c0c5750600085600a0160000160009054906101000a90046fffffffffffffffffffffffffffffffff166fffffffffffffffffffffffffffffffff16145b15612c1d5760008091509150612f3d565b60005b83811015612ed5576000612c85612c6b88600a0160000160009054906101000a90046fffffffffffffffffffffffffffffffff166fffffffffffffffffffffffffffffffff16611a96565b8588612c7791906140d5565b61340990919063ffffffff16565b612ca588600a0160000160109054906101000a9004600f0b600f0b613432565b612caf9190614c4c565b90506000612cbf886007016133d6565b1415612ccb5750612ed5565b6000612cd98860070161344b565b9050818160200151600f0b1215612cf1575050612ed5565b612d018860070189600401613465565b6000816020015190506000612d89612d2f8b600a0160000160109054906101000a9004600f0b600f0b613432565b83600f0b612d3d91906140d5565b612d7b8c600a0160000160009054906101000a90046fffffffffffffffffffffffffffffffff166fffffffffffffffffffffffffffffffff16611a96565b61349e90919063ffffffff16565b9050612da1818b600a01610c9390919063ffffffff16565b8087612dad9190614c4c565b96506000836000015190506000612de5826fffffffffffffffffffffffffffffffff1660001b8d600a01610b7690919063ffffffff16565b14612e25576040517f08c379a0000000000000000000000000000000000000000000000000000000008152600401612e1c90615021565b60405180910390fd5b612ebc816fffffffffffffffffffffffffffffffff1660001b8c600c016000846fffffffffffffffffffffffffffffffff166fffffffffffffffffffffffffffffffff16815260200190815260200160002060000160009054906101000a90046fffffffffffffffffffffffffffffffff166fffffffffffffffffffffffffffffffff168d600a01610d919092919063ffffffff16565b5050505050508080612ecd90614d3d565b915050612c20565b612ede83612f45565b8660030160008282829054906101000a9004600f0b612efd9190614760565b92506101000a8154816fffffffffffffffffffffffffffffffff0219169083600f0b6fffffffffffffffffffffffffffffffff1602179055508381149150505b935093915050565b60007fffffffffffffffffffffffffffffffff80000000000000000000000000000000600f0b821280612f8a57506f7fffffffffffffffffffffffffffffff600f0b82135b15612fc1576040517f4022cc0300000000000000000000000000000000000000000000000000000000815260040160405180910390fd5b819050919050565b6000612ff6826fffffffffffffffffffffffffffffffff1660001b84600a01610b7690919063ffffffff16565b905092915050565b613006613de8565b61304983846002016000856fffffffffffffffffffffffffffffffff166fffffffffffffffffffffffffffffffff168152602001908152602001600020546134c7565b905092915050565b613059613de8565b61309c83846002016000856fffffffffffffffffffffffffffffffff166fffffffffffffffffffffffffffffffff168152602001908152602001600020546135a9565b905092915050565b6130ac613de8565b6000846001018054905014156130c6576130c5846138b2565b5b6130ce613de8565b6130d88585613051565b5084600001600081819054906101000a90046fffffffffffffffffffffffffffffffff168092919061310990615041565b91906101000a8154816fffffffffffffffffffffffffffffffff02191690836fffffffffffffffffffffffffffffffff16021790555050846001016001816001815401808255809150500390600052602060002050506040518060400160405280856fffffffffffffffffffffffffffffffff16815260200184600f0b81525090506131a98582600188600101805490506131a49190614ce0565b61399e565b809150509392505050565b6000806131d785600a0160000160109054906101000a9004600f0b600f0b613432565b836131e291906140d5565b90506131f7848261165490919063ffffffff16565b9150509392505050565b6000806000905060005b83600d018054905081101561330557600084600d01828154811061323257613231614d86565b5b90600052602060002090600202016040518060400160405290816000820160009054906101000a900473ffffffffffffffffffffffffffffffffffffffff1673ffffffffffffffffffffffffffffffffffffffff1673ffffffffffffffffffffffffffffffffffffffff168152602001600182015481525050905060006132bc8260000151610af6565b905060006132c982611547565b90506132e283602001518261165490919063ffffffff16565b856132ed9190614a8c565b945050505080806132fd90614d3d565b91505061320b565b5080915050919050565b60008160010160009054906101000a900473ffffffffffffffffffffffffffffffffffffffff1673ffffffffffffffffffffffffffffffffffffffff1663bcec0d0f8360000160009054906101000a90046fffffffffffffffffffffffffffffffff166040518263ffffffff1660e01b815260040161338e9190614e2f565b602060405180830381865afa1580156133ab573d6000803e3d6000fd5b505050506040513d601f19601f820116820180604052508101906133cf919061507a565b9050919050565b6000808260010180549050116133ed576000613402565b600182600101805490506134019190614ce0565b5b9050919050565b600081670de0b6b3a76400008461342091906145df565b61342a91906146f6565b905092915050565b6000633b9aca008261344491906146f6565b9050919050565b613453613de8565b61345e8260016134c7565b9050919050565b600061347083613acd565b90506134988160000151826020015161348890614f20565b846130a49092919063ffffffff16565b50505050565b6000670de0b6b3a764000082846134b591906145df565b6134bf91906146f6565b905092915050565b6134cf613de8565b8183600101805490501161350e57604051806040016040528060006fffffffffffffffffffffffffffffffff1681526020016000600f0b8152506135a1565b82600101828154811061352457613523614d86565b5b906000526020600020016040518060400160405290816000820160009054906101000a90046fffffffffffffffffffffffffffffffff166fffffffffffffffffffffffffffffffff166fffffffffffffffffffffffffffffffff1681526020016000820160109054906101000a9004600f0b600f0b600f0b815250505b905092915050565b6135b1613de8565b8183600101805490501115806135c8575060008211155b1561360057604051806040016040528060006fffffffffffffffffffffffffffffffff1681526020016000600f0b81525090506138ac565b600083600101838154811061361857613617614d86565b5b906000526020600020016040518060400160405290816000820160009054906101000a90046fffffffffffffffffffffffffffffffff166fffffffffffffffffffffffffffffffff166fffffffffffffffffffffffffffffffff1681526020016000820160109054906101000a9004600f0b600f0b600f0b81525050905083600201600082600001516fffffffffffffffffffffffffffffffff166fffffffffffffffffffffffffffffffff16815260200190815260200160002060009055600084600101600186600101805490506136f19190614ce0565b8154811061370257613701614d86565b5b906000526020600020016040518060400160405290816000820160009054906101000a90046fffffffffffffffffffffffffffffffff166fffffffffffffffffffffffffffffffff166fffffffffffffffffffffffffffffffff1681526020016000820160109054906101000a9004600f0b600f0b600f0b81525050905084600101805480613794576137936150a7565b5b60019003818190600052602060002001600080820160006101000a8154906fffffffffffffffffffffffffffffffff02191690556000820160106101000a8154906fffffffffffffffffffffffffffffffff02191690555050905584600101805490508410156138a65761380985828661399e565b6138a58586600101868154811061382357613822614d86565b5b906000526020600020016040518060400160405290816000820160009054906101000a90046fffffffffffffffffffffffffffffffff166fffffffffffffffffffffffffffffffff166fffffffffffffffffffffffffffffffff1681526020016000820160109054906101000a9004600f0b600f0b600f0b8152505086613ae7565b5b81925050505b92915050565b60008160010180549050141561399b5780600101604051806040016040528060006fffffffffffffffffffffffffffffffff1681526020016000600f0b8152509080600181540180825580915050600190039060005260206000200160009091909190915060008201518160000160006101000a8154816fffffffffffffffffffffffffffffffff02191690836fffffffffffffffffffffffffffffffff16021790555060208201518160000160106101000a8154816fffffffffffffffffffffffffffffffff0219169083600f0b6fffffffffffffffffffffffffffffffff16021790555050505b50565b60018114806139f35750826001016002826139b991906143d1565b815481106139ca576139c9614d86565b5b9060005260206000200160000160109054906101000a9004600f0b600f0b8260200151600f0b13155b15613a0857613a03838383613cfc565b613ac8565b613ab08384600101600284613a1d91906143d1565b81548110613a2e57613a2d614d86565b5b906000526020600020016040518060400160405290816000820160009054906101000a90046fffffffffffffffffffffffffffffffff166fffffffffffffffffffffffffffffffff166fffffffffffffffffffffffffffffffff1681526020016000820160109054906101000a9004600f0b600f0b600f0b8152505083613cfc565b613ac78383600284613ac291906143d1565b61399e565b5b505050565b613ad5613de8565b613ae08260016135a9565b9050919050565b6000836001018054905090506000600283613b029190614348565b9050808211613b1b57613b16858585613cfc565b613cf5565b6000856001018281548110613b3357613b32614d86565b5b906000526020600020016040518060400160405290816000820160009054906101000a90046fffffffffffffffffffffffffffffffff166fffffffffffffffffffffffffffffffff166fffffffffffffffffffffffffffffffff1681526020016000820160109054906101000a9004600f0b600f0b600f0b815250509050600182613bbe9190614a8c565b83118015613c1157508060200151600f0b86600101600184613be09190614a8c565b81548110613bf157613bf0614d86565b5b9060005260206000200160000160109054906101000a9004600f0b600f0b135b15613cb7578560010182613c2490614d3d565b92508281548110613c3857613c37614d86565b5b906000526020600020016040518060400160405290816000820160009054906101000a90046fffffffffffffffffffffffffffffffff166fffffffffffffffffffffffffffffffff166fffffffffffffffffffffffffffffffff1681526020016000820160109054906101000a9004600f0b600f0b600f0b8152505090505b8460200151600f0b8160200151600f0b13613cdc57613cd7868686613cfc565b613cf3565b613ce7868286613cfc565b613cf2868684613ae7565b5b505b5050505050565b81836001018281548110613d1357613d12614d86565b5b9060005260206000200160008201518160000160006101000a8154816fffffffffffffffffffffffffffffffff02191690836fffffffffffffffffffffffffffffffff16021790555060208201518160000160106101000a8154816fffffffffffffffffffffffffffffffff0219169083600f0b6fffffffffffffffffffffffffffffffff1602179055509050508083600201600084600001516fffffffffffffffffffffffffffffffff166fffffffffffffffffffffffffffffffff16815260200190815260200160002081905550505050565b604051806040016040528060006fffffffffffffffffffffffffffffffff1681526020016000600f0b81525090565b600080fd5b60006fffffffffffffffffffffffffffffffff82169050919050565b613e4181613e1c565b8114613e4c57600080fd5b50565b600081359050613e5e81613e38565b92915050565b600073ffffffffffffffffffffffffffffffffffffffff82169050919050565b6000613e8f82613e64565b9050919050565b613e9f81613e84565b8114613eaa57600080fd5b50565b600081359050613ebc81613e96565b92915050565b600080600060608486031215613edb57613eda613e17565b5b6000613ee986828701613e4f565b9350506020613efa86828701613e4f565b9250506040613f0b86828701613ead565b9150509250925092565b60008115159050919050565b613f2a81613f15565b82525050565b6000602082019050613f456000830184613f21565b92915050565b6000819050919050565b613f5e81613f4b565b82525050565b6000606082019050613f796000830186613f55565b613f866020830185613f55565b613f936040830184613f55565b949350505050565b613fa481613f4b565b8114613faf57600080fd5b50565b600081359050613fc181613f9b565b92915050565b60008060008060808587031215613fe157613fe0613e17565b5b6000613fef87828801613e4f565b945050602061400087828801613ead565b935050604061401187828801613e4f565b925050606061402287828801613fb2565b91505092959194509250565b60006040820190506140436000830185613f55565b6140506020830184613f55565b9392505050565b600060808201905061406c6000830187613f55565b6140796020830186613f55565b6140866040830185613f55565b6140936060830184613f55565b95945050505050565b6000819050919050565b7f4e487b7100000000000000000000000000000000000000000000000000000000600052601160045260246000fd5b60006140e08261409c565b91506140eb8361409c565b9250827f800000000000000000000000000000000000000000000000000000000000000001821260008412151615614126576141256140a6565b5b827f7fffffffffffffffffffffffffffffffffffffffffffffffffffffffffffffff01821360008412161561415e5761415d6140a6565b5b828203905092915050565b600082825260208201905092915050565b7f6c697175696461746541734163636f756e744964000000000000000000000000600082015250565b60006141b0601483614169565b91506141bb8261417a565b602082019050919050565b7f6163636f756e74206973206e6f74206372656174656400000000000000000000600082015250565b60006141fc601683614169565b9150614207826141c6565b602082019050919050565b6000604082019050818103600083015261422b816141a3565b9050818103602083015261423e816141ef565b9050919050565b7f6d61785573640000000000000000000000000000000000000000000000000000600082015250565b600061427b600683614169565b915061428682614245565b602082019050919050565b7f6d75737420626520686967686572207468616e20300000000000000000000000600082015250565b60006142c7601583614169565b91506142d282614291565b602082019050919050565b600060408201905081810360008301526142f68161426e565b90508181036020830152614309816142ba565b9050919050565b61431981613e84565b82525050565b60006040820190506143346000830185614310565b6143416020830184613f55565b9392505050565b600061435382613f4b565b915061435e83613f4b565b9250817fffffffffffffffffffffffffffffffffffffffffffffffffffffffffffffffff0483118215151615614397576143966140a6565b5b828202905092915050565b7f4e487b7100000000000000000000000000000000000000000000000000000000600052601260045260246000fd5b60006143dc82613f4b565b91506143e783613f4b565b9250826143f7576143f66143a2565b5b828204905092915050565b600061440d8261409c565b91507f80000000000000000000000000000000000000000000000000000000000000008214156144405761443f6140a6565b5b816000039050919050565b600081600f0b9050919050565b60006144638261444b565b915061446e8361444b565b9250827fffffffffffffffffffffffffffffffff80000000000000000000000000000000018212600084121516156144a9576144a86140a6565b5b826f7fffffffffffffffffffffffffffffff0182136000841216156144d1576144d06140a6565b5b828203905092915050565b7f506f6f6c00000000000000000000000000000000000000000000000000000000600082015250565b6000614512600483614169565b915061451d826144dc565b602082019050919050565b61453181613e1c565b82525050565b6000604082019050818103600083015261455081614505565b905061455f6020830184614528565b92915050565b7f436f6c6c61746572616c436f6e66696775726174696f6e000000000000000000600082015250565b600061459b601783614169565b91506145a682614565565b602082019050919050565b600060408201905081810360008301526145ca8161458e565b90506145d96020830184614310565b92915050565b60006145ea8261409c565b91506145f58361409c565b9250827f7fffffffffffffffffffffffffffffffffffffffffffffffffffffffffffffff0482116000841360008413161615614634576146336140a6565b5b817f80000000000000000000000000000000000000000000000000000000000000000583126000841260008413161615614671576146706140a6565b5b827f800000000000000000000000000000000000000000000000000000000000000005821260008413600084121616156146ae576146ad6140a6565b5b827f7fffffffffffffffffffffffffffffffffffffffffffffffffffffffffffffff05821260008412600084121616156146eb576146ea6140a6565b5b828202905092915050565b60006147018261409c565b915061470c8361409c565b92508261471c5761471b6143a2565b5b600160000383147f800000000000000000000000000000000000000000000000000000000000000083141615614755576147546140a6565b5b828205905092915050565b600061476b8261444b565b91506147768361444b565b9250816f7fffffffffffffffffffffffffffffff038313600083121516156147a1576147a06140a6565b5b817fffffffffffffffffffffffffffffffff800000000000000000000000000000000383126000831216156147d9576147d86140a6565b5b828201905092915050565b60006147ef82613e1c565b91506147fa83613e1c565b9250826fffffffffffffffffffffffffffffffff0382111561481f5761481e6140a6565b5b828201905092915050565b600061483582613e1c565b915061484083613e1c565b925082821015614853576148526140a6565b5b828203905092915050565b600081519050919050565b600081905092915050565b60005b83811015614892578082015181840152602081019050614877565b838111156148a1576000848401525b50505050565b60006148b28261485e565b6148bc8185614869565b93506148cc818560208601614874565b80840191505092915050565b60006148e482846148a7565b915081905092915050565b6148f881613f15565b811461490357600080fd5b50565b600081519050614915816148ef565b92915050565b60006020828403121561493157614930613e17565b5b600061493f84828501614906565b91505092915050565b600060608201905061495d6000830186614310565b61496a6020830185614310565b6149776040830184613f55565b949350505050565b7f4163636f756e7400000000000000000000000000000000000000000000000000600082015250565b60006149b5600783614169565b91506149c08261497f565b602082019050919050565b600060408201905081810360008301526149e4816149a8565b90506149f36020830184614528565b92915050565b7f4173736f63696174656453797374656d00000000000000000000000000000000600082015250565b6000614a2f601083614169565b9150614a3a826149f9565b602082019050919050565b6000819050919050565b614a5881614a45565b82525050565b60006040820190508181036000830152614a7781614a22565b9050614a866020830184614a4f565b92915050565b6000614a9782613f4b565b9150614aa283613f4b565b9250827fffffffffffffffffffffffffffffffffffffffffffffffffffffffffffffffff03821115614ad757614ad66140a6565b5b828201905092915050565b600069ffffffffffffffffffff82169050919050565b614b0181614ae2565b8114614b0c57600080fd5b50565b600081519050614b1e81614af8565b92915050565b614b2d8161409c565b8114614b3857600080fd5b50565b600081519050614b4a81614b24565b92915050565b600081519050614b5f81613f9b565b92915050565b600080600080600060a08688031215614b8157614b80613e17565b5b6000614b8f88828901614b0f565b9550506020614ba088828901614b3b565b9450506040614bb188828901614b50565b9350506060614bc288828901614b50565b9250506080614bd388828901614b0f565b9150509295509295909350565b7f54686520636f6c6c61746572616c2076616c7565206973203000000000000000600082015250565b6000614c16601983614169565b9150614c2182614be0565b602082019050919050565b60006020820190508181036000830152614c4581614c09565b9050919050565b6000614c578261409c565b9150614c628361409c565b9250817f7fffffffffffffffffffffffffffffffffffffffffffffffffffffffffffffff03831360008312151615614c9d57614c9c6140a6565b5b817f8000000000000000000000000000000000000000000000000000000000000000038312600083121615614cd557614cd46140a6565b5b828201905092915050565b6000614ceb82613f4b565b9150614cf683613f4b565b925082821015614d0957614d086140a6565b5b828203905092915050565b6000604082019050614d296000830185614a4f565b614d366020830184614a4f565b9392505050565b6000614d4882613f4b565b91507fffffffffffffffffffffffffffffffffffffffffffffffffffffffffffffffff821415614d7b57614d7a6140a6565b5b600182019050919050565b7f4e487b7100000000000000000000000000000000000000000000000000000000600052603260045260246000fd5b7f4d61726b65740000000000000000000000000000000000000000000000000000600082015250565b6000614deb600683614169565b9150614df682614db5565b602082019050919050565b60006040820190508181036000830152614e1a81614dde565b9050614e296020830184614528565b92915050565b6000602082019050614e446000830184614528565b92915050565b7f506f6f6c436f6e66696775726174696f6e000000000000000000000000000000600082015250565b6000614e80601183614169565b9150614e8b82614e4a565b602082019050919050565b60006020820190508181036000830152614eaf81614e73565b9050919050565b6000614ec18261444b565b9150614ecc8361444b565b925082614edc57614edb6143a2565b5b600160000383147fffffffffffffffffffffffffffffffff8000000000000000000000000000000083141615614f1557614f146140a6565b5b828205905092915050565b6000614f2b8261444b565b91507fffffffffffffffffffffffffffffffff80000000000000000000000000000000821415614f5e57614f5d6140a6565b5b816000039050919050565b7f6e6f20736861726573206265666f7265206163746f722072656d6f76616c0000600082015250565b6000614f9f601e83614169565b9150614faa82614f69565b602082019050919050565b60006020820190508181036000830152614fce81614f92565b9050919050565b7f6163746f722068617320736861726573206265666f7265206164640000000000600082015250565b600061500b601b83614169565b915061501682614fd5565b602082019050919050565b6000602082019050818103600083015261503a81614ffe565b9050919050565b600061504c82613e1c565b91506fffffffffffffffffffffffffffffffff82141561506f5761506e6140a6565b5b600182019050919050565b6000602082840312156150905761508f613e17565b5b600061509e84828501614b50565b91505092915050565b7f4e487b7100000000000000000000000000000000000000000000000000000000600052603160045260246000fdfea264697066735822122033fd6e8bbfd9a1cc89cd2461c5e7917d3ef8a01579b7ad43fffb5857055ace5b64736f6c634300080b0033",
  "linkReferences": {},
  "deployedLinkReferences": {}
}