{
  "_format": "hh-sol-artifact-1",
  "contractName": "MarketManagerModule",
  "sourceName": "contracts/modules/core/MarketManagerModule.sol",
  "abi": [
    {
      "inputs": [],
      "name": "EmptyDistribution",
      "type": "error"
    },
    {
      "inputs": [],
      "name": "FeatureUnavailable",
      "type": "error"
    },
    {
      "inputs": [
        {
          "internalType": "address",
          "name": "market",
          "type": "address"
        },
        {
          "internalType": "address",
          "name": "from",
          "type": "address"
        },
        {
          "internalType": "uint256",
          "name": "requestedAmount",
          "type": "uint256"
        },
        {
          "internalType": "uint256",
          "name": "approvedAmount",
          "type": "uint256"
        }
      ],
      "name": "MarketDepositNotApproved",
      "type": "error"
    },
    {
      "inputs": [
        {
          "internalType": "bytes32",
          "name": "expected",
          "type": "bytes32"
        },
        {
          "internalType": "bytes32",
          "name": "actual",
          "type": "bytes32"
        }
      ],
      "name": "MismatchAssociatedSystemKind",
      "type": "error"
    },
    {
      "inputs": [
        {
          "internalType": "uint128",
          "name": "marketId",
          "type": "uint128"
        },
        {
          "internalType": "uint256",
          "name": "amount",
          "type": "uint256"
        }
      ],
      "name": "NotEnoughLiquidity",
      "type": "error"
    },
    {
      "inputs": [
        {
          "internalType": "address",
          "name": "addr",
          "type": "address"
        }
      ],
      "name": "Unauthorized",
      "type": "error"
    },
    {
      "anonymous": false,
      "inputs": [
        {
          "indexed": true,
          "internalType": "address",
          "name": "market",
          "type": "address"
        },
        {
          "indexed": true,
          "internalType": "uint128",
          "name": "marketId",
          "type": "uint128"
        }
      ],
      "name": "MarketRegistered",
      "type": "event"
    },
    {
      "anonymous": false,
      "inputs": [
        {
          "indexed": true,
          "internalType": "uint128",
          "name": "marketId",
          "type": "uint128"
        },
        {
          "indexed": true,
          "internalType": "address",
          "name": "target",
          "type": "address"
        },
        {
          "indexed": false,
          "internalType": "uint256",
          "name": "amount",
          "type": "uint256"
        },
        {
          "indexed": true,
          "internalType": "address",
          "name": "sender",
          "type": "address"
        }
      ],
      "name": "UsdDeposited",
      "type": "event"
    },
    {
      "anonymous": false,
      "inputs": [
        {
          "indexed": true,
          "internalType": "uint128",
          "name": "marketId",
          "type": "uint128"
        },
        {
          "indexed": true,
          "internalType": "address",
          "name": "target",
          "type": "address"
        },
        {
          "indexed": false,
          "internalType": "uint256",
          "name": "amount",
          "type": "uint256"
        },
        {
          "indexed": true,
          "internalType": "address",
          "name": "sender",
          "type": "address"
        }
      ],
      "name": "UsdWithdrawn",
      "type": "event"
    },
    {
      "inputs": [
        {
          "internalType": "uint128",
          "name": "marketId",
          "type": "uint128"
        },
        {
          "internalType": "address",
          "name": "target",
          "type": "address"
        },
        {
          "internalType": "uint256",
          "name": "amount",
          "type": "uint256"
        }
      ],
      "name": "depositUsd",
      "outputs": [],
      "stateMutability": "nonpayable",
      "type": "function"
    },
    {
      "inputs": [
        {
          "internalType": "uint128",
          "name": "marketId",
          "type": "uint128"
        }
      ],
      "name": "getMarketCollateral",
      "outputs": [
        {
          "internalType": "uint256",
          "name": "",
          "type": "uint256"
        }
      ],
      "stateMutability": "view",
      "type": "function"
    },
    {
      "inputs": [
        {
          "internalType": "uint128",
          "name": "marketId",
          "type": "uint128"
        }
      ],
      "name": "getMarketDebtPerShare",
      "outputs": [
        {
          "internalType": "int256",
          "name": "",
          "type": "int256"
        }
      ],
      "stateMutability": "nonpayable",
      "type": "function"
    },
    {
      "inputs": [
        {
          "internalType": "uint128",
          "name": "marketId",
          "type": "uint128"
        }
      ],
      "name": "getMarketIssuance",
      "outputs": [
        {
          "internalType": "int128",
          "name": "",
          "type": "int128"
        }
      ],
      "stateMutability": "view",
      "type": "function"
    },
    {
      "inputs": [
        {
          "internalType": "uint128",
          "name": "marketId",
          "type": "uint128"
        }
      ],
      "name": "getMarketReportedDebt",
      "outputs": [
        {
          "internalType": "uint256",
          "name": "",
          "type": "uint256"
        }
      ],
      "stateMutability": "view",
      "type": "function"
    },
    {
      "inputs": [
        {
          "internalType": "uint128",
          "name": "marketId",
          "type": "uint128"
        }
      ],
      "name": "getMarketTotalBalance",
      "outputs": [
        {
          "internalType": "int256",
          "name": "",
          "type": "int256"
        }
      ],
      "stateMutability": "view",
      "type": "function"
    },
    {
      "inputs": [
        {
          "internalType": "uint128",
          "name": "marketId",
          "type": "uint128"
        }
      ],
      "name": "getWithdrawableUsd",
      "outputs": [
        {
          "internalType": "uint256",
          "name": "",
          "type": "uint256"
        }
      ],
      "stateMutability": "view",
      "type": "function"
    },
    {
      "inputs": [
        {
          "internalType": "uint128",
          "name": "marketId",
          "type": "uint128"
        }
      ],
      "name": "isMarketCapacityLocked",
      "outputs": [
        {
          "internalType": "bool",
          "name": "",
          "type": "bool"
        }
      ],
      "stateMutability": "view",
      "type": "function"
    },
    {
      "inputs": [
        {
          "internalType": "address",
          "name": "market",
          "type": "address"
        }
      ],
      "name": "registerMarket",
      "outputs": [
        {
          "internalType": "uint128",
          "name": "marketId",
          "type": "uint128"
        }
      ],
      "stateMutability": "nonpayable",
      "type": "function"
    },
    {
      "inputs": [
        {
          "internalType": "uint128",
          "name": "marketId",
          "type": "uint128"
        },
        {
          "internalType": "address",
          "name": "target",
          "type": "address"
        },
        {
          "internalType": "uint256",
          "name": "amount",
          "type": "uint256"
        }
      ],
      "name": "withdrawUsd",
      "outputs": [],
      "stateMutability": "nonpayable",
      "type": "function"
    }
  ],
  "bytecode": "0x608060405234801561001057600080fd5b506133e0806100206000396000f3fe608060405234801561001057600080fd5b506004361061009e5760003560e01c806386e3b1cf1161006657806386e3b1cf1461017f57806395909ba3146101af578063a0b95fe2146101df578063a79b9ec91461020f578063d826b04d1461023f5761009e565b806307003f0a146100a3578063150834a3146100d35780632a09716214610103578063438d61ea1461011f578063691e84bd1461014f575b600080fd5b6100bd60048036038101906100b891906122ee565b61025b565b6040516100ca9190612336565b60405180910390f35b6100ed60048036038101906100e891906122ee565b610275565b6040516100fa919061236a565b60405180910390f35b61011d6004803603810190610118919061240f565b6102bc565b005b610139600480360381019061013491906122ee565b61053e565b604051610146919061247e565b60405180910390f35b610169600480360381019061016491906122ee565b610561565b604051610176919061236a565b60405180910390f35b610199600480360381019061019491906122ee565b6105c0565b6040516101a6919061236a565b60405180910390f35b6101c960048036038101906101c491906122ee565b6105da565b6040516101d691906124b2565b60405180910390f35b6101f960048036038101906101f491906122ee565b61062e565b60405161020691906124b2565b60405180910390f35b610229600480360381019061022491906124cd565b610648565b6040516102369190612509565b60405180910390f35b6102596004803603810190610254919061240f565b6106f9565b005b600061026e610269836109c2565b6109f7565b9050919050565b6000610280826109c2565b600a0160000160009054906101000a90046fffffffffffffffffffffffffffffffff166fffffffffffffffffffffffffffffffff169050919050565b60006102c7846109c2565b90508060010160009054906101000a900473ffffffffffffffffffffffffffffffffffffffff1673ffffffffffffffffffffffffffffffffffffffff163373ffffffffffffffffffffffffffffffffffffffff161461035d57336040517f8e4a23d60000000000000000000000000000000000000000000000000000000081526004016103549190612533565b60405180910390fd5b600061039061038b7f555344546f6b656e000000000000000000000000000000000000000000000000610a3d565b610a72565b9050828260020160108282829054906101000a90046fffffffffffffffffffffffffffffffff166103c1919061257d565b92506101000a8154816fffffffffffffffffffffffffffffffff02191690836fffffffffffffffffffffffffffffffff160217905550828260020160008282829054906101000a9004600f0b61041791906125c3565b92506101000a8154816fffffffffffffffffffffffffffffffff0219169083600f0b6fffffffffffffffffffffffffffffffff1602179055508073ffffffffffffffffffffffffffffffffffffffff1663aaa15fd18533866040518463ffffffff1660e01b815260040161048d93929190612647565b600060405180830381600087803b1580156104a757600080fd5b505af11580156104bb573d6000803e3d6000fd5b505050503373ffffffffffffffffffffffffffffffffffffffff168473ffffffffffffffffffffffffffffffffffffffff16866fffffffffffffffffffffffffffffffff167fc56302a1d95d6789d10569244d51167dbc30b0c39b970a19ce6b43b12494ba7e8660405161052f919061236a565b60405180910390a45050505050565b6000610549826109c2565b60020160009054906101000a9004600f0b9050919050565b600061057461056f836109c2565b610aca565b61057d836109c2565b60020160109054906101000a90046fffffffffffffffffffffffffffffffff166fffffffffffffffffffffffffffffffff166105b9919061267e565b9050919050565b60006105d36105ce836109c2565b610bcc565b9050919050565b6000806105e6836109c2565b90506105ff633b9ac9ff82610c9390919063ffffffff16565b633b9aca0081600a0160000160109054906101000a9004600f0b6106239190612703565b600f0b915050919050565b600061064161063c836109c2565b611109565b9050919050565b60006106737f72656769737465724d61726b657400000000000000000000000000000000000061114d565b61067c82611190565b60000160009054906101000a90046fffffffffffffffffffffffffffffffff169050806fffffffffffffffffffffffffffffffff168273ffffffffffffffffffffffffffffffffffffffff167fdd302022fd6feea78c84d8b3f82c6f2fce75527c40899e0a6672ff40bf4d813460405160405180910390a3919050565b6000610704846109c2565b90508060010160009054906101000a900473ffffffffffffffffffffffffffffffffffffffff1673ffffffffffffffffffffffffffffffffffffffff163373ffffffffffffffffffffffffffffffffffffffff161461079a57336040517f8e4a23d60000000000000000000000000000000000000000000000000000000081526004016107919190612533565b60405180910390fd5b6107a384610561565b8211156107e95783826040517f22783fa20000000000000000000000000000000000000000000000000000000081526004016107e092919061276d565b60405180910390fd5b818160020160108282829054906101000a90046fffffffffffffffffffffffffffffffff166108189190612796565b92506101000a8154816fffffffffffffffffffffffffffffffff02191690836fffffffffffffffffffffffffffffffff160217905550818160020160008282829054906101000a9004600f0b61086e91906127ca565b92506101000a8154816fffffffffffffffffffffffffffffffff0219169083600f0b6fffffffffffffffffffffffffffffffff1602179055506108d86108d37f555344546f6b656e000000000000000000000000000000000000000000000000610a3d565b610a72565b73ffffffffffffffffffffffffffffffffffffffff166340c10f1984846040518363ffffffff1660e01b815260040161091292919061284e565b600060405180830381600087803b15801561092c57600080fd5b505af1158015610940573d6000803e3d6000fd5b505050503373ffffffffffffffffffffffffffffffffffffffff168373ffffffffffffffffffffffffffffffffffffffff16856fffffffffffffffffffffffffffffffff167fde87c31e3517ea53313ef3522120959f34d8d5f571dcd5e42ad7789ff3f73e0c856040516109b4919061236a565b60405180910390a450505050565b600080826040516020016109d691906128d4565b60405160208183030381529060405280519060200120905080915050919050565b6000610a0282611285565b8260020160109054906101000a90046fffffffffffffffffffffffffffffffff166fffffffffffffffffffffffffffffffff16109050919050565b60008082604051602001610a519190612967565b60405160208183030381529060405280519060200120905080915050919050565b6000610a9e827f657263323000000000000000000000000000000000000000000000000000000061134c565b8160000160009054906101000a900473ffffffffffffffffffffffffffffffffffffffff169050919050565b6000806000905060005b83600d0180549050811015610bc257600084600d018281548110610afb57610afa612995565b5b90600052602060002090600202016040518060400160405290816000820160009054906101000a900473ffffffffffffffffffffffffffffffffffffffff1673ffffffffffffffffffffffffffffffffffffffff1673ffffffffffffffffffffffffffffffffffffffff1681526020016001820154815250509050610ba18160200151610b93610b8e84600001516113ce565b611403565b6114eb90919063ffffffff16565b83610bac919061267e565b9250508080610bba906129c4565b915050610ad4565b5080915050919050565b60008160010160009054906101000a900473ffffffffffffffffffffffffffffffffffffffff1673ffffffffffffffffffffffffffffffffffffffff1663bcec0d0f8360000160009054906101000a90046fffffffffffffffffffffffffffffffff166040518263ffffffff1660e01b8152600401610c4b9190612509565b602060405180830381865afa158015610c68573d6000803e3d6000fd5b505050506040513d601f19601f82011682018060405250810190610c8c9190612a22565b9050919050565b600082600a0160000160009054906101000a90046fffffffffffffffffffffffffffffffff166fffffffffffffffffffffffffffffffff161415610cd657611105565b6000610ce183611109565b905060008360030160009054906101000a9004600f0b600f0b9050600084600a0160000160009054906101000a90046fffffffffffffffffffffffffffffffff16600f0b601260ff16600a610d369190612b82565b8385610d429190612bcd565b610d4c9190612c61565b610d569190612d78565b633b9aca0086600a0160000160109054906101000a9004600f0b610d7a9190612703565b600f0b610d879190612de2565b905060005b6000610d9a87600401611510565b118015610dc1575081610daf87600401611543565b60200151610dbc90612e76565b600f0b125b8015610dcc57508481105b156110a1576000610ddf8760040161155d565b90506000670de0b6b3a7640000633b9aca0089600a0160000160109054906101000a9004600f0b610e109190612703565b8360200151610e1e90612e76565b610e2891906125c3565b600f0b89600a0160000160009054906101000a90046fffffffffffffffffffffffffffffffff16600f0b610e5c9190612c61565b610e669190612d78565b9050610e7e8189600a0161157790919063ffffffff16565b8085610e8a9190612de2565b94506000610ebd83600001516fffffffffffffffffffffffffffffffff1660001b8a600a0161168490919063ffffffff16565b11610efd576040517f08c379a0000000000000000000000000000000000000000000000000000000008152600401610ef490612f0b565b60405180910390fd5b6000610f3183600001516fffffffffffffffffffffffffffffffff1660001b60008b600a016116d59092919063ffffffff16565b90508089600c01600085600001516fffffffffffffffffffffffffffffffff166fffffffffffffffffffffffffffffffff1681526020019081526020016000206000828254610f809190612de2565b92505081905550600089600a0160000160009054906101000a90046fffffffffffffffffffffffffffffffff166fffffffffffffffffffffffffffffffff16141561100f57858960030160006101000a8154816fffffffffffffffffffffffffffffffff0219169083600f0b6fffffffffffffffffffffffffffffffff16021790555050505050505050611105565b88600a0160000160009054906101000a90046fffffffffffffffffffffffffffffffff16600f0b601260ff16600a6110479190612b82565b87896110539190612bcd565b61105d9190612c61565b6110679190612d78565b89600a0160000160109054906101000a9004600f0b600f0b6110899190612de2565b94505050508080611099906129c4565b915050610d8c565b506110c382846110b19190612bcd565b86600a0161157790919063ffffffff16565b828560030160006101000a8154816fffffffffffffffffffffffffffffffff0219169083600f0b6fffffffffffffffffffffffffffffffff1602179055505050505b5050565b600061111482610aca565b8260020160009054906101000a9004600f0b600f0b61113284610bcc565b61113c9190612de2565b6111469190612bcd565b9050919050565b61115781336118ca565b61118d576040517fe8298be500000000000000000000000000000000000000000000000000000000815260040160405180910390fd5b50565b60008061119b611910565b905080806111a890612f2b565b9150506111b4816109c2565b9150808260000160006101000a8154816fffffffffffffffffffffffffffffffff02191690836fffffffffffffffffffffffffffffffff160217905550828260010160006101000a81548173ffffffffffffffffffffffffffffffffffffffff021916908373ffffffffffffffffffffffffffffffffffffffff16021790555061123d81611942565b61124683611972565b8190806001815401808255809150506001900390600052602060002001600090916fffffffffffffffffffffffffffffffff1690919091505550919050565b60008160010160009054906101000a900473ffffffffffffffffffffffffffffffffffffffff1673ffffffffffffffffffffffffffffffffffffffff1663c9c04a7f8360000160009054906101000a90046fffffffffffffffffffffffffffffffff166040518263ffffffff1660e01b81526004016113049190612509565b602060405180830381865afa158015611321573d6000803e3d6000fd5b505050506040513d601f19601f820116820180604052508101906113459190612a22565b9050919050565b60008260020154905081811415801561138557507f756e6d616e6167656400000000000000000000000000000000000000000000008114155b156113c95781816040517f06a98cf80000000000000000000000000000000000000000000000000000000081526004016113c0929190612f64565b60405180910390fd5b505050565b600080826040516020016113e29190612fd9565b60405160208183030381529060405280519060200120905080915050919050565b6000808260040160009054906101000a900473ffffffffffffffffffffffffffffffffffffffff1673ffffffffffffffffffffffffffffffffffffffff1663feaf968c6040518163ffffffff1660e01b815260040160a060405180830381865afa158015611475573d6000803e3d6000fd5b505050506040513d601f19601f820116820180604052508101906114999190613075565b505050915050600081136114e2576040517f08c379a00000000000000000000000000000000000000000000000000000000081526004016114d99061313c565b60405180910390fd5b80915050919050565b60006115088383601260ff16600a6115039190612b82565b6119a7565b905092915050565b60008082600101805490501161152757600061153c565b6001826001018054905061153b919061315c565b5b9050919050565b61154b612272565b6115568260016119cf565b9050919050565b611565612272565b611570826001611ab1565b9050919050565b600081141561158557611680565b60008260000160009054906101000a90046fffffffffffffffffffffffffffffffff166fffffffffffffffffffffffffffffffff16905060008114156115f7576040517f3b182f5500000000000000000000000000000000000000000000000000000000815260040160405180910390fd5b60006b033b2e3c9fd0803ce8000000836116119190612c61565b9050600082826116219190612d78565b9050808560000160108282829054906101000a9004600f0b61164391906127ca565b92506101000a8154816fffffffffffffffffffffffffffffffff0219169083600f0b6fffffffffffffffffffffffffffffffff1602179055505050505b5050565b600082600101600083815260200190815260200160002060000160009054906101000a90046fffffffffffffffffffffffffffffffff166fffffffffffffffffffffffffffffffff16905092915050565b600080846001016000858152602001908152602001600020905060008160000160109054906101000a9004600f0b8660000160109054906101000a9004600f0b61171f91906125c3565b905060008260000160009054906101000a90046fffffffffffffffffffffffffffffffff16600f0b82600f0b6117559190612c61565b90506b033b2e3c9fd0803ce80000008161176f9190612d78565b93508260000160009054906101000a90046fffffffffffffffffffffffffffffffff166fffffffffffffffffffffffffffffffff16858860000160009054906101000a90046fffffffffffffffffffffffffffffffff166fffffffffffffffffffffffffffffffff166117e2919061267e565b6117ec919061315c565b8760000160006101000a8154816fffffffffffffffffffffffffffffffff02191690836fffffffffffffffffffffffffffffffff160217905550848360000160006101000a8154816fffffffffffffffffffffffffffffffff02191690836fffffffffffffffffffffffffffffffff16021790555060008514611880578660000160109054906101000a9004600f0b611883565b60005b8360000160106101000a8154816fffffffffffffffffffffffffffffffff0219169083600f0b6fffffffffffffffffffffffffffffffff1602179055505050509392505050565b6000806118d684611dba565b90508060010160009054906101000a900460ff168061190757506119068382600201611def90919063ffffffff16565b5b91505092915050565b600080604051602001611922906131dc565b604051602081830303815290604052805190602001209050805491505090565b6000604051602001611953906131dc565b6040516020818303038152906040528051906020012090508181555050565b600080826040516020016119869190613248565b60405160208183030381529060405280519060200120905080915050919050565b600082840290508284820414841517821515166119c357600080fd5b81810490509392505050565b6119d7612272565b81836001018054905011611a1657604051806040016040528060006fffffffffffffffffffffffffffffffff1681526020016000600f0b815250611aa9565b826001018281548110611a2c57611a2b612995565b5b906000526020600020016040518060400160405290816000820160009054906101000a90046fffffffffffffffffffffffffffffffff166fffffffffffffffffffffffffffffffff166fffffffffffffffffffffffffffffffff1681526020016000820160109054906101000a9004600f0b600f0b600f0b815250505b905092915050565b611ab9612272565b818360010180549050111580611ad0575060008211155b15611b0857604051806040016040528060006fffffffffffffffffffffffffffffffff1681526020016000600f0b8152509050611db4565b6000836001018381548110611b2057611b1f612995565b5b906000526020600020016040518060400160405290816000820160009054906101000a90046fffffffffffffffffffffffffffffffff166fffffffffffffffffffffffffffffffff166fffffffffffffffffffffffffffffffff1681526020016000820160109054906101000a9004600f0b600f0b600f0b81525050905083600201600082600001516fffffffffffffffffffffffffffffffff166fffffffffffffffffffffffffffffffff1681526020019081526020016000206000905560008460010160018660010180549050611bf9919061315c565b81548110611c0a57611c09612995565b5b906000526020600020016040518060400160405290816000820160009054906101000a90046fffffffffffffffffffffffffffffffff166fffffffffffffffffffffffffffffffff166fffffffffffffffffffffffffffffffff1681526020016000820160109054906101000a9004600f0b600f0b600f0b81525050905084600101805480611c9c57611c9b613276565b5b60019003818190600052602060002001600080820160006101000a8154906fffffffffffffffffffffffffffffffff02191690556000820160106101000a8154906fffffffffffffffffffffffffffffffff0219169055505090558460010180549050841015611dae57611d11858286611e1f565b611dad85866001018681548110611d2b57611d2a612995565b5b906000526020600020016040518060400160405290816000820160009054906101000a90046fffffffffffffffffffffffffffffffff166fffffffffffffffffffffffffffffffff166fffffffffffffffffffffffffffffffff1681526020016000820160109054906101000a9004600f0b600f0b600f0b8152505086611f4e565b5b81925050505b92915050565b60008082604051602001611dce91906132f1565b60405160208183030381529060405280519060200120905080915050919050565b6000611e17836000018373ffffffffffffffffffffffffffffffffffffffff1660001b612163565b905092915050565b6001811480611e74575082600101600282611e3a919061331f565b81548110611e4b57611e4a612995565b5b9060005260206000200160000160109054906101000a9004600f0b600f0b8260200151600f0b13155b15611e8957611e84838383612186565b611f49565b611f318384600101600284611e9e919061331f565b81548110611eaf57611eae612995565b5b906000526020600020016040518060400160405290816000820160009054906101000a90046fffffffffffffffffffffffffffffffff166fffffffffffffffffffffffffffffffff166fffffffffffffffffffffffffffffffff1681526020016000820160109054906101000a9004600f0b600f0b600f0b8152505083612186565b611f488383600284611f43919061331f565b611e1f565b5b505050565b6000836001018054905090506000600283611f699190613350565b9050808211611f8257611f7d858585612186565b61215c565b6000856001018281548110611f9a57611f99612995565b5b906000526020600020016040518060400160405290816000820160009054906101000a90046fffffffffffffffffffffffffffffffff166fffffffffffffffffffffffffffffffff166fffffffffffffffffffffffffffffffff1681526020016000820160109054906101000a9004600f0b600f0b600f0b815250509050600182612025919061267e565b8311801561207857508060200151600f0b86600101600184612047919061267e565b8154811061205857612057612995565b5b9060005260206000200160000160109054906101000a9004600f0b600f0b135b1561211e57856001018261208b906129c4565b9250828154811061209f5761209e612995565b5b906000526020600020016040518060400160405290816000820160009054906101000a90046fffffffffffffffffffffffffffffffff166fffffffffffffffffffffffffffffffff166fffffffffffffffffffffffffffffffff1681526020016000820160109054906101000a9004600f0b600f0b600f0b8152505090505b8460200151600f0b8160200151600f0b136121435761213e868686612186565b61215a565b61214e868286612186565b612159868684611f4e565b5b505b5050505050565b600080836001016000848152602001908152602001600020541415905092915050565b8183600101828154811061219d5761219c612995565b5b9060005260206000200160008201518160000160006101000a8154816fffffffffffffffffffffffffffffffff02191690836fffffffffffffffffffffffffffffffff16021790555060208201518160000160106101000a8154816fffffffffffffffffffffffffffffffff0219169083600f0b6fffffffffffffffffffffffffffffffff1602179055509050508083600201600084600001516fffffffffffffffffffffffffffffffff166fffffffffffffffffffffffffffffffff16815260200190815260200160002081905550505050565b604051806040016040528060006fffffffffffffffffffffffffffffffff1681526020016000600f0b81525090565b600080fd5b60006fffffffffffffffffffffffffffffffff82169050919050565b6122cb816122a6565b81146122d657600080fd5b50565b6000813590506122e8816122c2565b92915050565b600060208284031215612304576123036122a1565b5b6000612312848285016122d9565b91505092915050565b60008115159050919050565b6123308161231b565b82525050565b600060208201905061234b6000830184612327565b92915050565b6000819050919050565b61236481612351565b82525050565b600060208201905061237f600083018461235b565b92915050565b600073ffffffffffffffffffffffffffffffffffffffff82169050919050565b60006123b082612385565b9050919050565b6123c0816123a5565b81146123cb57600080fd5b50565b6000813590506123dd816123b7565b92915050565b6123ec81612351565b81146123f757600080fd5b50565b600081359050612409816123e3565b92915050565b600080600060608486031215612428576124276122a1565b5b6000612436868287016122d9565b9350506020612447868287016123ce565b9250506040612458868287016123fa565b9150509250925092565b600081600f0b9050919050565b61247881612462565b82525050565b6000602082019050612493600083018461246f565b92915050565b6000819050919050565b6124ac81612499565b82525050565b60006020820190506124c760008301846124a3565b92915050565b6000602082840312156124e3576124e26122a1565b5b60006124f1848285016123ce565b91505092915050565b612503816122a6565b82525050565b600060208201905061251e60008301846124fa565b92915050565b61252d816123a5565b82525050565b60006020820190506125486000830184612524565b92915050565b7f4e487b7100000000000000000000000000000000000000000000000000000000600052601160045260246000fd5b6000612588826122a6565b9150612593836122a6565b9250826fffffffffffffffffffffffffffffffff038211156125b8576125b761254e565b5b828201905092915050565b60006125ce82612462565b91506125d983612462565b9250827fffffffffffffffffffffffffffffffff80000000000000000000000000000000018212600084121516156126145761261361254e565b5b826f7fffffffffffffffffffffffffffffff01821360008412161561263c5761263b61254e565b5b828203905092915050565b600060608201905061265c6000830186612524565b6126696020830185612524565b612676604083018461235b565b949350505050565b600061268982612351565b915061269483612351565b9250827fffffffffffffffffffffffffffffffffffffffffffffffffffffffffffffffff038211156126c9576126c861254e565b5b828201905092915050565b7f4e487b7100000000000000000000000000000000000000000000000000000000600052601260045260246000fd5b600061270e82612462565b915061271983612462565b925082612729576127286126d4565b5b600160000383147fffffffffffffffffffffffffffffffff80000000000000000000000000000000831416156127625761276161254e565b5b828205905092915050565b600060408201905061278260008301856124fa565b61278f602083018461235b565b9392505050565b60006127a1826122a6565b91506127ac836122a6565b9250828210156127bf576127be61254e565b5b828203905092915050565b60006127d582612462565b91506127e083612462565b9250816f7fffffffffffffffffffffffffffffff0383136000831215161561280b5761280a61254e565b5b817fffffffffffffffffffffffffffffffff800000000000000000000000000000000383126000831216156128435761284261254e565b5b828201905092915050565b60006040820190506128636000830185612524565b612870602083018461235b565b9392505050565b600082825260208201905092915050565b7f4d61726b65740000000000000000000000000000000000000000000000000000600082015250565b60006128be600683612877565b91506128c982612888565b602082019050919050565b600060408201905081810360008301526128ed816128b1565b90506128fc60208301846124fa565b92915050565b7f4173736f63696174656453797374656d00000000000000000000000000000000600082015250565b6000612938601083612877565b915061294382612902565b602082019050919050565b6000819050919050565b6129618161294e565b82525050565b600060408201905081810360008301526129808161292b565b905061298f6020830184612958565b92915050565b7f4e487b7100000000000000000000000000000000000000000000000000000000600052603260045260246000fd5b60006129cf82612351565b91507fffffffffffffffffffffffffffffffffffffffffffffffffffffffffffffffff821415612a0257612a0161254e565b5b600182019050919050565b600081519050612a1c816123e3565b92915050565b600060208284031215612a3857612a376122a1565b5b6000612a4684828501612a0d565b91505092915050565b60008160011c9050919050565b6000808291508390505b6001851115612aa657808604811115612a8257612a8161254e565b5b6001851615612a915780820291505b8081029050612a9f85612a4f565b9450612a66565b94509492505050565b600082612abf5760019050612b7b565b81612acd5760009050612b7b565b8160018114612ae35760028114612aed57612b1c565b6001915050612b7b565b60ff841115612aff57612afe61254e565b5b8360020a915084821115612b1657612b1561254e565b5b50612b7b565b5060208310610133831016604e8410600b8410161715612b515782820a905083811115612b4c57612b4b61254e565b5b612b7b565b612b5e8484846001612a5c565b92509050818404811115612b7557612b7461254e565b5b81810290505b9392505050565b6000612b8d82612351565b9150612b9883612351565b9250612bc57fffffffffffffffffffffffffffffffffffffffffffffffffffffffffffffffff8484612aaf565b905092915050565b6000612bd882612499565b9150612be383612499565b9250827f800000000000000000000000000000000000000000000000000000000000000001821260008412151615612c1e57612c1d61254e565b5b827f7fffffffffffffffffffffffffffffffffffffffffffffffffffffffffffffff018213600084121615612c5657612c5561254e565b5b828203905092915050565b6000612c6c82612499565b9150612c7783612499565b9250827f7fffffffffffffffffffffffffffffffffffffffffffffffffffffffffffffff0482116000841360008413161615612cb657612cb561254e565b5b817f80000000000000000000000000000000000000000000000000000000000000000583126000841260008413161615612cf357612cf261254e565b5b827f80000000000000000000000000000000000000000000000000000000000000000582126000841360008412161615612d3057612d2f61254e565b5b827f7fffffffffffffffffffffffffffffffffffffffffffffffffffffffffffffff0582126000841260008412161615612d6d57612d6c61254e565b5b828202905092915050565b6000612d8382612499565b9150612d8e83612499565b925082612d9e57612d9d6126d4565b5b600160000383147f800000000000000000000000000000000000000000000000000000000000000083141615612dd757612dd661254e565b5b828205905092915050565b6000612ded82612499565b9150612df883612499565b9250817f7fffffffffffffffffffffffffffffffffffffffffffffffffffffffffffffff03831360008312151615612e3357612e3261254e565b5b817f8000000000000000000000000000000000000000000000000000000000000000038312600083121615612e6b57612e6a61254e565b5b828201905092915050565b6000612e8182612462565b91507fffffffffffffffffffffffffffffffff80000000000000000000000000000000821415612eb457612eb361254e565b5b816000039050919050565b7f6e6f20736861726573206f6e206163746f722072656d6f76616c000000000000600082015250565b6000612ef5601a83612877565b9150612f0082612ebf565b602082019050919050565b60006020820190508181036000830152612f2481612ee8565b9050919050565b6000612f36826122a6565b91506fffffffffffffffffffffffffffffffff821415612f5957612f5861254e565b5b600182019050919050565b6000604082019050612f796000830185612958565b612f866020830184612958565b9392505050565b7f436f6c6c61746572616c436f6e66696775726174696f6e000000000000000000600082015250565b6000612fc3601783612877565b9150612fce82612f8d565b602082019050919050565b60006040820190508181036000830152612ff281612fb6565b90506130016020830184612524565b92915050565b600069ffffffffffffffffffff82169050919050565b61302681613007565b811461303157600080fd5b50565b6000815190506130438161301d565b92915050565b61305281612499565b811461305d57600080fd5b50565b60008151905061306f81613049565b92915050565b600080600080600060a08688031215613091576130906122a1565b5b600061309f88828901613034565b95505060206130b088828901613060565b94505060406130c188828901612a0d565b93505060606130d288828901612a0d565b92505060806130e388828901613034565b9150509295509295909350565b7f54686520636f6c6c61746572616c2076616c7565206973203000000000000000600082015250565b6000613126601983612877565b9150613131826130f0565b602082019050919050565b6000602082019050818103600083015261315581613119565b9050919050565b600061316782612351565b915061317283612351565b9250828210156131855761318461254e565b5b828203905092915050565b7f4d61726b65745f6c617374496400000000000000000000000000000000000000600082015250565b60006131c6600d83612877565b91506131d182613190565b602082019050919050565b600060208201905081810360008301526131f5816131b9565b9050919050565b7f4d61726b65745f69647342794164647265737300000000000000000000000000600082015250565b6000613232601383612877565b915061323d826131fc565b602082019050919050565b6000604082019050818103600083015261326181613225565b90506132706020830184612524565b92915050565b7f4e487b7100000000000000000000000000000000000000000000000000000000600052603160045260246000fd5b7f46656174757265466c6167000000000000000000000000000000000000000000600082015250565b60006132db600b83612877565b91506132e6826132a5565b602082019050919050565b6000604082019050818103600083015261330a816132ce565b90506133196020830184612958565b92915050565b600061332a82612351565b915061333583612351565b925082613345576133446126d4565b5b828204905092915050565b600061335b82612351565b915061336683612351565b9250817fffffffffffffffffffffffffffffffffffffffffffffffffffffffffffffffff048311821515161561339f5761339e61254e565b5b82820290509291505056fea264697066735822122020e7fd07befa5b35244b53ee9587f035ed9c97f1042dfb2c3944d450b2fe973364736f6c634300080b0033",
  "linkReferences": {},
  "deployedLinkReferences": {}
}