{
  "_format": "hh-sol-artifact-1",
  "contractName": "MarketManagerModule",
  "sourceName": "contracts/modules/core/MarketManagerModule.sol",
  "abi": [
    {
      "inputs": [],
      "name": "EmptyDistribution",
      "type": "error"
    },
    {
      "inputs": [
        {
          "internalType": "address",
          "name": "market",
          "type": "address"
        },
        {
          "internalType": "address",
          "name": "from",
          "type": "address"
        },
        {
          "internalType": "uint256",
          "name": "requestedAmount",
          "type": "uint256"
        },
        {
          "internalType": "uint256",
          "name": "approvedAmount",
          "type": "uint256"
        }
      ],
      "name": "MarketDepositNotApproved",
      "type": "error"
    },
    {
      "inputs": [
        {
          "internalType": "bytes32",
          "name": "expected",
          "type": "bytes32"
        },
        {
          "internalType": "bytes32",
          "name": "actual",
          "type": "bytes32"
        }
      ],
      "name": "MismatchAssociatedSystemKind",
      "type": "error"
    },
    {
      "inputs": [
        {
          "internalType": "uint128",
          "name": "marketId",
          "type": "uint128"
        },
        {
          "internalType": "uint256",
          "name": "amount",
          "type": "uint256"
        }
      ],
      "name": "NotEnoughLiquidity",
      "type": "error"
    },
    {
      "inputs": [
        {
          "internalType": "address",
          "name": "addr",
          "type": "address"
        }
      ],
      "name": "Unauthorized",
      "type": "error"
    },
    {
      "anonymous": false,
      "inputs": [
        {
          "indexed": true,
          "internalType": "address",
          "name": "market",
          "type": "address"
        },
        {
          "indexed": true,
          "internalType": "uint128",
          "name": "marketId",
          "type": "uint128"
        }
      ],
      "name": "MarketRegistered",
      "type": "event"
    },
    {
      "anonymous": false,
      "inputs": [
        {
          "indexed": true,
          "internalType": "uint128",
          "name": "marketId",
          "type": "uint128"
        },
        {
          "indexed": true,
          "internalType": "address",
          "name": "target",
          "type": "address"
        },
        {
          "indexed": false,
          "internalType": "uint256",
          "name": "amount",
          "type": "uint256"
        },
        {
          "indexed": true,
          "internalType": "address",
          "name": "sender",
          "type": "address"
        }
      ],
      "name": "UsdDeposited",
      "type": "event"
    },
    {
      "anonymous": false,
      "inputs": [
        {
          "indexed": true,
          "internalType": "uint128",
          "name": "marketId",
          "type": "uint128"
        },
        {
          "indexed": true,
          "internalType": "address",
          "name": "target",
          "type": "address"
        },
        {
          "indexed": false,
          "internalType": "uint256",
          "name": "amount",
          "type": "uint256"
        },
        {
          "indexed": true,
          "internalType": "address",
          "name": "sender",
          "type": "address"
        }
      ],
      "name": "UsdWithdrawn",
      "type": "event"
    },
    {
      "inputs": [
        {
          "internalType": "uint128",
          "name": "marketId",
          "type": "uint128"
        },
        {
          "internalType": "address",
          "name": "target",
          "type": "address"
        },
        {
          "internalType": "uint256",
          "name": "amount",
          "type": "uint256"
        }
      ],
      "name": "depositUsd",
      "outputs": [],
      "stateMutability": "nonpayable",
      "type": "function"
    },
    {
      "inputs": [
        {
          "internalType": "uint128",
          "name": "marketId",
          "type": "uint128"
        }
      ],
      "name": "getMarketCollateral",
      "outputs": [
        {
          "internalType": "uint256",
          "name": "",
          "type": "uint256"
        }
      ],
      "stateMutability": "view",
      "type": "function"
    },
    {
      "inputs": [
        {
          "internalType": "uint128",
          "name": "marketId",
          "type": "uint128"
        }
      ],
      "name": "getMarketDebtPerShare",
      "outputs": [
        {
          "internalType": "int256",
          "name": "",
          "type": "int256"
        }
      ],
      "stateMutability": "nonpayable",
      "type": "function"
    },
    {
      "inputs": [
        {
          "internalType": "uint128",
          "name": "marketId",
          "type": "uint128"
        }
      ],
      "name": "getMarketIssuance",
      "outputs": [
        {
          "internalType": "int128",
          "name": "",
          "type": "int128"
        }
      ],
      "stateMutability": "view",
      "type": "function"
    },
    {
      "inputs": [
        {
          "internalType": "uint128",
          "name": "marketId",
          "type": "uint128"
        }
      ],
      "name": "getMarketReportedDebt",
      "outputs": [
        {
          "internalType": "uint256",
          "name": "",
          "type": "uint256"
        }
      ],
      "stateMutability": "view",
      "type": "function"
    },
    {
      "inputs": [
        {
          "internalType": "uint128",
          "name": "marketId",
          "type": "uint128"
        }
      ],
      "name": "getMarketTotalBalance",
      "outputs": [
        {
          "internalType": "int256",
          "name": "",
          "type": "int256"
        }
      ],
      "stateMutability": "view",
      "type": "function"
    },
    {
      "inputs": [
        {
          "internalType": "uint128",
          "name": "marketId",
          "type": "uint128"
        }
      ],
      "name": "getWithdrawableUsd",
      "outputs": [
        {
          "internalType": "uint256",
          "name": "",
          "type": "uint256"
        }
      ],
      "stateMutability": "view",
      "type": "function"
    },
    {
      "inputs": [
        {
          "internalType": "address",
          "name": "market",
          "type": "address"
        }
      ],
      "name": "registerMarket",
      "outputs": [
        {
          "internalType": "uint128",
          "name": "marketId",
          "type": "uint128"
        }
      ],
      "stateMutability": "nonpayable",
      "type": "function"
    },
    {
      "inputs": [
        {
          "internalType": "uint128",
          "name": "marketId",
          "type": "uint128"
        },
        {
          "internalType": "address",
          "name": "target",
          "type": "address"
        },
        {
          "internalType": "uint256",
          "name": "amount",
          "type": "uint256"
        }
      ],
      "name": "withdrawUsd",
      "outputs": [],
      "stateMutability": "nonpayable",
      "type": "function"
    }
  ],
  "bytecode": "0x608060405234801561001057600080fd5b50613243806100206000396000f3fe608060405234801561001057600080fd5b50600436106100935760003560e01c806386e3b1cf1161006657806386e3b1cf1461014457806395909ba314610174578063a0b95fe2146101a4578063a79b9ec9146101d4578063d826b04d1461020457610093565b8063150834a3146100985780632a097162146100c8578063438d61ea146100e4578063691e84bd14610114575b600080fd5b6100b260048036038101906100ad9190612187565b610220565b6040516100bf91906121cd565b60405180910390f35b6100e260048036038101906100dd9190612272565b610267565b005b6100fe60048036038101906100f99190612187565b6104e9565b60405161010b91906122e1565b60405180910390f35b61012e60048036038101906101299190612187565b61050c565b60405161013b91906121cd565b60405180910390f35b61015e60048036038101906101599190612187565b61056b565b60405161016b91906121cd565b60405180910390f35b61018e60048036038101906101899190612187565b610585565b60405161019b9190612315565b60405180910390f35b6101be60048036038101906101b99190612187565b6105d9565b6040516101cb9190612315565b60405180910390f35b6101ee60048036038101906101e99190612330565b6105f3565b6040516101fb919061236c565b60405180910390f35b61021e60048036038101906102199190612272565b6106a4565b005b600061022b8261096d565b600a0160000160009054906101000a90046fffffffffffffffffffffffffffffffff166fffffffffffffffffffffffffffffffff169050919050565b60006102728461096d565b90508060010160009054906101000a900473ffffffffffffffffffffffffffffffffffffffff1673ffffffffffffffffffffffffffffffffffffffff163373ffffffffffffffffffffffffffffffffffffffff161461030857336040517f8e4a23d60000000000000000000000000000000000000000000000000000000081526004016102ff9190612396565b60405180910390fd5b600061033b6103367f555344546f6b656e0000000000000000000000000000000000000000000000006109a2565b6109d7565b9050828260020160108282829054906101000a90046fffffffffffffffffffffffffffffffff1661036c91906123e0565b92506101000a8154816fffffffffffffffffffffffffffffffff02191690836fffffffffffffffffffffffffffffffff160217905550828260020160008282829054906101000a9004600f0b6103c29190612426565b92506101000a8154816fffffffffffffffffffffffffffffffff0219169083600f0b6fffffffffffffffffffffffffffffffff1602179055508073ffffffffffffffffffffffffffffffffffffffff1663aaa15fd18533866040518463ffffffff1660e01b8152600401610438939291906124aa565b600060405180830381600087803b15801561045257600080fd5b505af1158015610466573d6000803e3d6000fd5b505050503373ffffffffffffffffffffffffffffffffffffffff168473ffffffffffffffffffffffffffffffffffffffff16866fffffffffffffffffffffffffffffffff167fc56302a1d95d6789d10569244d51167dbc30b0c39b970a19ce6b43b12494ba7e866040516104da91906121cd565b60405180910390a45050505050565b60006104f48261096d565b60020160009054906101000a9004600f0b9050919050565b600061051f61051a8361096d565b610a2f565b6105288361096d565b60020160109054906101000a90046fffffffffffffffffffffffffffffffff166fffffffffffffffffffffffffffffffff1661056491906124e1565b9050919050565b600061057e6105798361096d565b610b31565b9050919050565b6000806105918361096d565b90506105aa633b9ac9ff82610bf890919063ffffffff16565b633b9aca0081600a0160000160109054906101000a9004600f0b6105ce9190612566565b600f0b915050919050565b60006105ec6105e78361096d565b61106e565b9050919050565b600061061e7f72656769737465724d61726b65740000000000000000000000000000000000006110b2565b61062782611136565b60000160009054906101000a90046fffffffffffffffffffffffffffffffff169050806fffffffffffffffffffffffffffffffff168273ffffffffffffffffffffffffffffffffffffffff167fdd302022fd6feea78c84d8b3f82c6f2fce75527c40899e0a6672ff40bf4d813460405160405180910390a3919050565b60006106af8461096d565b90508060010160009054906101000a900473ffffffffffffffffffffffffffffffffffffffff1673ffffffffffffffffffffffffffffffffffffffff163373ffffffffffffffffffffffffffffffffffffffff161461074557336040517f8e4a23d600000000000000000000000000000000000000000000000000000000815260040161073c9190612396565b60405180910390fd5b61074e8461050c565b8211156107945783826040517f22783fa200000000000000000000000000000000000000000000000000000000815260040161078b9291906125d0565b60405180910390fd5b818160020160108282829054906101000a90046fffffffffffffffffffffffffffffffff166107c391906125f9565b92506101000a8154816fffffffffffffffffffffffffffffffff02191690836fffffffffffffffffffffffffffffffff160217905550818160020160008282829054906101000a9004600f0b610819919061262d565b92506101000a8154816fffffffffffffffffffffffffffffffff0219169083600f0b6fffffffffffffffffffffffffffffffff16021790555061088361087e7f555344546f6b656e0000000000000000000000000000000000000000000000006109a2565b6109d7565b73ffffffffffffffffffffffffffffffffffffffff166340c10f1984846040518363ffffffff1660e01b81526004016108bd9291906126b1565b600060405180830381600087803b1580156108d757600080fd5b505af11580156108eb573d6000803e3d6000fd5b505050503373ffffffffffffffffffffffffffffffffffffffff168373ffffffffffffffffffffffffffffffffffffffff16856fffffffffffffffffffffffffffffffff167fde87c31e3517ea53313ef3522120959f34d8d5f571dcd5e42ad7789ff3f73e0c8560405161095f91906121cd565b60405180910390a450505050565b600080826040516020016109819190612737565b60405160208183030381529060405280519060200120905080915050919050565b600080826040516020016109b691906127ca565b60405160208183030381529060405280519060200120905080915050919050565b6000610a03827f657263323000000000000000000000000000000000000000000000000000000061122b565b8160000160009054906101000a900473ffffffffffffffffffffffffffffffffffffffff169050919050565b6000806000905060005b83600d0180549050811015610b2757600084600d018281548110610a6057610a5f6127f8565b5b90600052602060002090600202016040518060400160405290816000820160009054906101000a900473ffffffffffffffffffffffffffffffffffffffff1673ffffffffffffffffffffffffffffffffffffffff1673ffffffffffffffffffffffffffffffffffffffff1681526020016001820154815250509050610b068160200151610af8610af384600001516112ad565b6112e2565b6113ca90919063ffffffff16565b83610b1191906124e1565b9250508080610b1f90612827565b915050610a39565b5080915050919050565b60008160010160009054906101000a900473ffffffffffffffffffffffffffffffffffffffff1673ffffffffffffffffffffffffffffffffffffffff1663bcec0d0f8360000160009054906101000a90046fffffffffffffffffffffffffffffffff166040518263ffffffff1660e01b8152600401610bb0919061236c565b602060405180830381865afa158015610bcd573d6000803e3d6000fd5b505050506040513d601f19601f82011682018060405250810190610bf19190612885565b9050919050565b600082600a0160000160009054906101000a90046fffffffffffffffffffffffffffffffff166fffffffffffffffffffffffffffffffff161415610c3b5761106a565b6000610c468361106e565b905060008360030160009054906101000a9004600f0b600f0b9050600084600a0160000160009054906101000a90046fffffffffffffffffffffffffffffffff16600f0b601260ff16600a610c9b91906129e5565b8385610ca79190612a30565b610cb19190612ac4565b610cbb9190612bdb565b633b9aca0086600a0160000160109054906101000a9004600f0b610cdf9190612566565b600f0b610cec9190612c45565b905060005b6000610cff876004016113ef565b118015610d26575081610d1487600401611422565b60200151610d2190612cd9565b600f0b125b8015610d3157508481105b15611006576000610d448760040161143c565b90506000670de0b6b3a7640000633b9aca0089600a0160000160109054906101000a9004600f0b610d759190612566565b8360200151610d8390612cd9565b610d8d9190612426565b600f0b89600a0160000160009054906101000a90046fffffffffffffffffffffffffffffffff16600f0b610dc19190612ac4565b610dcb9190612bdb565b9050610de38189600a0161145690919063ffffffff16565b8085610def9190612c45565b94506000610e2283600001516fffffffffffffffffffffffffffffffff1660001b8a600a0161156390919063ffffffff16565b11610e62576040517f08c379a0000000000000000000000000000000000000000000000000000000008152600401610e5990612d6e565b60405180910390fd5b6000610e9683600001516fffffffffffffffffffffffffffffffff1660001b60008b600a016115b49092919063ffffffff16565b90508089600c01600085600001516fffffffffffffffffffffffffffffffff166fffffffffffffffffffffffffffffffff1681526020019081526020016000206000828254610ee59190612c45565b92505081905550600089600a0160000160009054906101000a90046fffffffffffffffffffffffffffffffff166fffffffffffffffffffffffffffffffff161415610f7457858960030160006101000a8154816fffffffffffffffffffffffffffffffff0219169083600f0b6fffffffffffffffffffffffffffffffff1602179055505050505050505061106a565b88600a0160000160009054906101000a90046fffffffffffffffffffffffffffffffff16600f0b601260ff16600a610fac91906129e5565b8789610fb89190612a30565b610fc29190612ac4565b610fcc9190612bdb565b89600a0160000160109054906101000a9004600f0b600f0b610fee9190612c45565b94505050508080610ffe90612827565b915050610cf1565b5061102882846110169190612a30565b86600a0161145690919063ffffffff16565b828560030160006101000a8154816fffffffffffffffffffffffffffffffff0219169083600f0b6fffffffffffffffffffffffffffffffff1602179055505050505b5050565b600061107982610a2f565b8260020160009054906101000a9004600f0b600f0b61109784610b31565b6110a19190612c45565b6110ab9190612a30565b9050919050565b60006110bd826117a9565b90508060010160009054906101000a900460ff1680156110f057506110ee33826002016117de90919063ffffffff16565b155b1561113257336040517f8e4a23d60000000000000000000000000000000000000000000000000000000081526004016111299190612396565b60405180910390fd5b5050565b60008061114161180e565b9050808061114e90612d8e565b91505061115a8161096d565b9150808260000160006101000a8154816fffffffffffffffffffffffffffffffff02191690836fffffffffffffffffffffffffffffffff160217905550828260010160006101000a81548173ffffffffffffffffffffffffffffffffffffffff021916908373ffffffffffffffffffffffffffffffffffffffff1602179055506111e381611840565b6111ec83611870565b8190806001815401808255809150506001900390600052602060002001600090916fffffffffffffffffffffffffffffffff1690919091505550919050565b60008260020154905081811415801561126457507f756e6d616e6167656400000000000000000000000000000000000000000000008114155b156112a85781816040517f06a98cf800000000000000000000000000000000000000000000000000000000815260040161129f929190612dc7565b60405180910390fd5b505050565b600080826040516020016112c19190612e3c565b60405160208183030381529060405280519060200120905080915050919050565b6000808260040160009054906101000a900473ffffffffffffffffffffffffffffffffffffffff1673ffffffffffffffffffffffffffffffffffffffff1663feaf968c6040518163ffffffff1660e01b815260040160a060405180830381865afa158015611354573d6000803e3d6000fd5b505050506040513d601f19601f820116820180604052508101906113789190612ed8565b505050915050600081136113c1576040517f08c379a00000000000000000000000000000000000000000000000000000000081526004016113b890612f9f565b60405180910390fd5b80915050919050565b60006113e78383601260ff16600a6113e291906129e5565b6118a5565b905092915050565b60008082600101805490501161140657600061141b565b6001826001018054905061141a9190612fbf565b5b9050919050565b61142a61210b565b6114358260016118cd565b9050919050565b61144461210b565b61144f8260016119af565b9050919050565b60008114156114645761155f565b60008260000160009054906101000a90046fffffffffffffffffffffffffffffffff166fffffffffffffffffffffffffffffffff16905060008114156114d6576040517f3b182f5500000000000000000000000000000000000000000000000000000000815260040160405180910390fd5b60006b033b2e3c9fd0803ce8000000836114f09190612ac4565b9050600082826115009190612bdb565b9050808560000160108282829054906101000a9004600f0b611522919061262d565b92506101000a8154816fffffffffffffffffffffffffffffffff0219169083600f0b6fffffffffffffffffffffffffffffffff1602179055505050505b5050565b600082600101600083815260200190815260200160002060000160009054906101000a90046fffffffffffffffffffffffffffffffff166fffffffffffffffffffffffffffffffff16905092915050565b600080846001016000858152602001908152602001600020905060008160000160109054906101000a9004600f0b8660000160109054906101000a9004600f0b6115fe9190612426565b905060008260000160009054906101000a90046fffffffffffffffffffffffffffffffff16600f0b82600f0b6116349190612ac4565b90506b033b2e3c9fd0803ce80000008161164e9190612bdb565b93508260000160009054906101000a90046fffffffffffffffffffffffffffffffff166fffffffffffffffffffffffffffffffff16858860000160009054906101000a90046fffffffffffffffffffffffffffffffff166fffffffffffffffffffffffffffffffff166116c191906124e1565b6116cb9190612fbf565b8760000160006101000a8154816fffffffffffffffffffffffffffffffff02191690836fffffffffffffffffffffffffffffffff160217905550848360000160006101000a8154816fffffffffffffffffffffffffffffffff02191690836fffffffffffffffffffffffffffffffff1602179055506000851461175f578660000160109054906101000a9004600f0b611762565b60005b8360000160106101000a8154816fffffffffffffffffffffffffffffffff0219169083600f0b6fffffffffffffffffffffffffffffffff1602179055505050509392505050565b600080826040516020016117bd919061303f565b60405160208183030381529060405280519060200120905080915050919050565b6000611806836000018373ffffffffffffffffffffffffffffffffffffffff1660001b611cb8565b905092915050565b600080604051602001611820906130b9565b604051602081830303815290604052805190602001209050805491505090565b6000604051602001611851906130b9565b6040516020818303038152906040528051906020012090508181555050565b600080826040516020016118849190613125565b60405160208183030381529060405280519060200120905080915050919050565b600082840290508284820414841517821515166118c157600080fd5b81810490509392505050565b6118d561210b565b8183600101805490501161191457604051806040016040528060006fffffffffffffffffffffffffffffffff1681526020016000600f0b8152506119a7565b82600101828154811061192a576119296127f8565b5b906000526020600020016040518060400160405290816000820160009054906101000a90046fffffffffffffffffffffffffffffffff166fffffffffffffffffffffffffffffffff166fffffffffffffffffffffffffffffffff1681526020016000820160109054906101000a9004600f0b600f0b600f0b815250505b905092915050565b6119b761210b565b8183600101805490501115806119ce575060008211155b15611a0657604051806040016040528060006fffffffffffffffffffffffffffffffff1681526020016000600f0b8152509050611cb2565b6000836001018381548110611a1e57611a1d6127f8565b5b906000526020600020016040518060400160405290816000820160009054906101000a90046fffffffffffffffffffffffffffffffff166fffffffffffffffffffffffffffffffff166fffffffffffffffffffffffffffffffff1681526020016000820160109054906101000a9004600f0b600f0b600f0b81525050905083600201600082600001516fffffffffffffffffffffffffffffffff166fffffffffffffffffffffffffffffffff1681526020019081526020016000206000905560008460010160018660010180549050611af79190612fbf565b81548110611b0857611b076127f8565b5b906000526020600020016040518060400160405290816000820160009054906101000a90046fffffffffffffffffffffffffffffffff166fffffffffffffffffffffffffffffffff166fffffffffffffffffffffffffffffffff1681526020016000820160109054906101000a9004600f0b600f0b600f0b81525050905084600101805480611b9a57611b99613153565b5b60019003818190600052602060002001600080820160006101000a8154906fffffffffffffffffffffffffffffffff02191690556000820160106101000a8154906fffffffffffffffffffffffffffffffff0219169055505090558460010180549050841015611cac57611c0f858286611cdb565b611cab85866001018681548110611c2957611c286127f8565b5b906000526020600020016040518060400160405290816000820160009054906101000a90046fffffffffffffffffffffffffffffffff166fffffffffffffffffffffffffffffffff166fffffffffffffffffffffffffffffffff1681526020016000820160109054906101000a9004600f0b600f0b600f0b8152505086611e0a565b5b81925050505b92915050565b600080836001016000848152602001908152602001600020541415905092915050565b6001811480611d30575082600101600282611cf69190613182565b81548110611d0757611d066127f8565b5b9060005260206000200160000160109054906101000a9004600f0b600f0b8260200151600f0b13155b15611d4557611d4083838361201f565b611e05565b611ded8384600101600284611d5a9190613182565b81548110611d6b57611d6a6127f8565b5b906000526020600020016040518060400160405290816000820160009054906101000a90046fffffffffffffffffffffffffffffffff166fffffffffffffffffffffffffffffffff166fffffffffffffffffffffffffffffffff1681526020016000820160109054906101000a9004600f0b600f0b600f0b815250508361201f565b611e048383600284611dff9190613182565b611cdb565b5b505050565b6000836001018054905090506000600283611e2591906131b3565b9050808211611e3e57611e3985858561201f565b612018565b6000856001018281548110611e5657611e556127f8565b5b906000526020600020016040518060400160405290816000820160009054906101000a90046fffffffffffffffffffffffffffffffff166fffffffffffffffffffffffffffffffff166fffffffffffffffffffffffffffffffff1681526020016000820160109054906101000a9004600f0b600f0b600f0b815250509050600182611ee191906124e1565b83118015611f3457508060200151600f0b86600101600184611f0391906124e1565b81548110611f1457611f136127f8565b5b9060005260206000200160000160109054906101000a9004600f0b600f0b135b15611fda578560010182611f4790612827565b92508281548110611f5b57611f5a6127f8565b5b906000526020600020016040518060400160405290816000820160009054906101000a90046fffffffffffffffffffffffffffffffff166fffffffffffffffffffffffffffffffff166fffffffffffffffffffffffffffffffff1681526020016000820160109054906101000a9004600f0b600f0b600f0b8152505090505b8460200151600f0b8160200151600f0b13611fff57611ffa86868661201f565b612016565b61200a86828661201f565b612015868684611e0a565b5b505b5050505050565b81836001018281548110612036576120356127f8565b5b9060005260206000200160008201518160000160006101000a8154816fffffffffffffffffffffffffffffffff02191690836fffffffffffffffffffffffffffffffff16021790555060208201518160000160106101000a8154816fffffffffffffffffffffffffffffffff0219169083600f0b6fffffffffffffffffffffffffffffffff1602179055509050508083600201600084600001516fffffffffffffffffffffffffffffffff166fffffffffffffffffffffffffffffffff16815260200190815260200160002081905550505050565b604051806040016040528060006fffffffffffffffffffffffffffffffff1681526020016000600f0b81525090565b600080fd5b60006fffffffffffffffffffffffffffffffff82169050919050565b6121648161213f565b811461216f57600080fd5b50565b6000813590506121818161215b565b92915050565b60006020828403121561219d5761219c61213a565b5b60006121ab84828501612172565b91505092915050565b6000819050919050565b6121c7816121b4565b82525050565b60006020820190506121e260008301846121be565b92915050565b600073ffffffffffffffffffffffffffffffffffffffff82169050919050565b6000612213826121e8565b9050919050565b61222381612208565b811461222e57600080fd5b50565b6000813590506122408161221a565b92915050565b61224f816121b4565b811461225a57600080fd5b50565b60008135905061226c81612246565b92915050565b60008060006060848603121561228b5761228a61213a565b5b600061229986828701612172565b93505060206122aa86828701612231565b92505060406122bb8682870161225d565b9150509250925092565b600081600f0b9050919050565b6122db816122c5565b82525050565b60006020820190506122f660008301846122d2565b92915050565b6000819050919050565b61230f816122fc565b82525050565b600060208201905061232a6000830184612306565b92915050565b6000602082840312156123465761234561213a565b5b600061235484828501612231565b91505092915050565b6123668161213f565b82525050565b6000602082019050612381600083018461235d565b92915050565b61239081612208565b82525050565b60006020820190506123ab6000830184612387565b92915050565b7f4e487b7100000000000000000000000000000000000000000000000000000000600052601160045260246000fd5b60006123eb8261213f565b91506123f68361213f565b9250826fffffffffffffffffffffffffffffffff0382111561241b5761241a6123b1565b5b828201905092915050565b6000612431826122c5565b915061243c836122c5565b9250827fffffffffffffffffffffffffffffffff8000000000000000000000000000000001821260008412151615612477576124766123b1565b5b826f7fffffffffffffffffffffffffffffff01821360008412161561249f5761249e6123b1565b5b828203905092915050565b60006060820190506124bf6000830186612387565b6124cc6020830185612387565b6124d960408301846121be565b949350505050565b60006124ec826121b4565b91506124f7836121b4565b9250827fffffffffffffffffffffffffffffffffffffffffffffffffffffffffffffffff0382111561252c5761252b6123b1565b5b828201905092915050565b7f4e487b7100000000000000000000000000000000000000000000000000000000600052601260045260246000fd5b6000612571826122c5565b915061257c836122c5565b92508261258c5761258b612537565b5b600160000383147fffffffffffffffffffffffffffffffff80000000000000000000000000000000831416156125c5576125c46123b1565b5b828205905092915050565b60006040820190506125e5600083018561235d565b6125f260208301846121be565b9392505050565b60006126048261213f565b915061260f8361213f565b925082821015612622576126216123b1565b5b828203905092915050565b6000612638826122c5565b9150612643836122c5565b9250816f7fffffffffffffffffffffffffffffff0383136000831215161561266e5761266d6123b1565b5b817fffffffffffffffffffffffffffffffff800000000000000000000000000000000383126000831216156126a6576126a56123b1565b5b828201905092915050565b60006040820190506126c66000830185612387565b6126d360208301846121be565b9392505050565b600082825260208201905092915050565b7f4d61726b65740000000000000000000000000000000000000000000000000000600082015250565b60006127216006836126da565b915061272c826126eb565b602082019050919050565b6000604082019050818103600083015261275081612714565b905061275f602083018461235d565b92915050565b7f4173736f63696174656453797374656d00000000000000000000000000000000600082015250565b600061279b6010836126da565b91506127a682612765565b602082019050919050565b6000819050919050565b6127c4816127b1565b82525050565b600060408201905081810360008301526127e38161278e565b90506127f260208301846127bb565b92915050565b7f4e487b7100000000000000000000000000000000000000000000000000000000600052603260045260246000fd5b6000612832826121b4565b91507fffffffffffffffffffffffffffffffffffffffffffffffffffffffffffffffff821415612865576128646123b1565b5b600182019050919050565b60008151905061287f81612246565b92915050565b60006020828403121561289b5761289a61213a565b5b60006128a984828501612870565b91505092915050565b60008160011c9050919050565b6000808291508390505b6001851115612909578086048111156128e5576128e46123b1565b5b60018516156128f45780820291505b8081029050612902856128b2565b94506128c9565b94509492505050565b60008261292257600190506129de565b8161293057600090506129de565b816001811461294657600281146129505761297f565b60019150506129de565b60ff841115612962576129616123b1565b5b8360020a915084821115612979576129786123b1565b5b506129de565b5060208310610133831016604e8410600b84101617156129b45782820a9050838111156129af576129ae6123b1565b5b6129de565b6129c184848460016128bf565b925090508184048111156129d8576129d76123b1565b5b81810290505b9392505050565b60006129f0826121b4565b91506129fb836121b4565b9250612a287fffffffffffffffffffffffffffffffffffffffffffffffffffffffffffffffff8484612912565b905092915050565b6000612a3b826122fc565b9150612a46836122fc565b9250827f800000000000000000000000000000000000000000000000000000000000000001821260008412151615612a8157612a806123b1565b5b827f7fffffffffffffffffffffffffffffffffffffffffffffffffffffffffffffff018213600084121615612ab957612ab86123b1565b5b828203905092915050565b6000612acf826122fc565b9150612ada836122fc565b9250827f7fffffffffffffffffffffffffffffffffffffffffffffffffffffffffffffff0482116000841360008413161615612b1957612b186123b1565b5b817f80000000000000000000000000000000000000000000000000000000000000000583126000841260008413161615612b5657612b556123b1565b5b827f80000000000000000000000000000000000000000000000000000000000000000582126000841360008412161615612b9357612b926123b1565b5b827f7fffffffffffffffffffffffffffffffffffffffffffffffffffffffffffffff0582126000841260008412161615612bd057612bcf6123b1565b5b828202905092915050565b6000612be6826122fc565b9150612bf1836122fc565b925082612c0157612c00612537565b5b600160000383147f800000000000000000000000000000000000000000000000000000000000000083141615612c3a57612c396123b1565b5b828205905092915050565b6000612c50826122fc565b9150612c5b836122fc565b9250817f7fffffffffffffffffffffffffffffffffffffffffffffffffffffffffffffff03831360008312151615612c9657612c956123b1565b5b817f8000000000000000000000000000000000000000000000000000000000000000038312600083121615612cce57612ccd6123b1565b5b828201905092915050565b6000612ce4826122c5565b91507fffffffffffffffffffffffffffffffff80000000000000000000000000000000821415612d1757612d166123b1565b5b816000039050919050565b7f6e6f20736861726573206f6e206163746f722072656d6f76616c000000000000600082015250565b6000612d58601a836126da565b9150612d6382612d22565b602082019050919050565b60006020820190508181036000830152612d8781612d4b565b9050919050565b6000612d998261213f565b91506fffffffffffffffffffffffffffffffff821415612dbc57612dbb6123b1565b5b600182019050919050565b6000604082019050612ddc60008301856127bb565b612de960208301846127bb565b9392505050565b7f436f6c6c61746572616c436f6e66696775726174696f6e000000000000000000600082015250565b6000612e266017836126da565b9150612e3182612df0565b602082019050919050565b60006040820190508181036000830152612e5581612e19565b9050612e646020830184612387565b92915050565b600069ffffffffffffffffffff82169050919050565b612e8981612e6a565b8114612e9457600080fd5b50565b600081519050612ea681612e80565b92915050565b612eb5816122fc565b8114612ec057600080fd5b50565b600081519050612ed281612eac565b92915050565b600080600080600060a08688031215612ef457612ef361213a565b5b6000612f0288828901612e97565b9550506020612f1388828901612ec3565b9450506040612f2488828901612870565b9350506060612f3588828901612870565b9250506080612f4688828901612e97565b9150509295509295909350565b7f54686520636f6c6c61746572616c2076616c7565206973203000000000000000600082015250565b6000612f896019836126da565b9150612f9482612f53565b602082019050919050565b60006020820190508181036000830152612fb881612f7c565b9050919050565b6000612fca826121b4565b9150612fd5836121b4565b925082821015612fe857612fe76123b1565b5b828203905092915050565b7f46656174757265466c6167000000000000000000000000000000000000000000600082015250565b6000613029600b836126da565b915061303482612ff3565b602082019050919050565b600060408201905081810360008301526130588161301c565b905061306760208301846127bb565b92915050565b7f4d61726b65745f6c617374496400000000000000000000000000000000000000600082015250565b60006130a3600d836126da565b91506130ae8261306d565b602082019050919050565b600060208201905081810360008301526130d281613096565b9050919050565b7f4d61726b65745f69647342794164647265737300000000000000000000000000600082015250565b600061310f6013836126da565b915061311a826130d9565b602082019050919050565b6000604082019050818103600083015261313e81613102565b905061314d6020830184612387565b92915050565b7f4e487b7100000000000000000000000000000000000000000000000000000000600052603160045260246000fd5b600061318d826121b4565b9150613198836121b4565b9250826131a8576131a7612537565b5b828204905092915050565b60006131be826121b4565b91506131c9836121b4565b9250817fffffffffffffffffffffffffffffffffffffffffffffffffffffffffffffffff0483118215151615613202576132016123b1565b5b82820290509291505056fea26469706673582212206ff97c5f7d1fb45a31c9bdff090425a46d2cd44859616f5ac760dabb1017efae64736f6c634300080b0033",
  "linkReferences": {},
  "deployedLinkReferences": {}
}