{
  "_format": "hh-sol-artifact-1",
  "contractName": "PoolModule",
  "sourceName": "contracts/modules/core/PoolModule.sol",
  "abi": [
    {
      "inputs": [
        {
          "internalType": "uint256",
          "name": "marketId",
          "type": "uint256"
        }
      ],
      "name": "CapacityLocked",
      "type": "error"
    },
    {
      "inputs": [],
      "name": "EmptyDistribution",
      "type": "error"
    },
    {
      "inputs": [],
      "name": "FeatureUnavailable",
      "type": "error"
    },
    {
      "inputs": [
        {
          "internalType": "string",
          "name": "incorrectParameter",
          "type": "string"
        },
        {
          "internalType": "string",
          "name": "help",
          "type": "string"
        }
      ],
      "name": "InvalidParameters",
      "type": "error"
    },
    {
      "inputs": [
        {
          "internalType": "uint128",
          "name": "marketId",
          "type": "uint128"
        }
      ],
      "name": "MarketNotFound",
      "type": "error"
    },
    {
      "inputs": [
        {
          "internalType": "uint128",
          "name": "poolId",
          "type": "uint128"
        }
      ],
      "name": "PoolAlreadyExists",
      "type": "error"
    },
    {
      "inputs": [
        {
          "internalType": "uint128",
          "name": "poolId",
          "type": "uint128"
        }
      ],
      "name": "PoolNotFound",
      "type": "error"
    },
    {
      "inputs": [
        {
          "internalType": "uint128",
          "name": "poolId",
          "type": "uint128"
        }
      ],
      "name": "PoolNotFound",
      "type": "error"
    },
    {
      "inputs": [
        {
          "internalType": "address",
          "name": "addr",
          "type": "address"
        }
      ],
      "name": "Unauthorized",
      "type": "error"
    },
    {
      "inputs": [],
      "name": "ZeroAddress",
      "type": "error"
    },
    {
      "anonymous": false,
      "inputs": [
        {
          "indexed": true,
          "internalType": "uint128",
          "name": "poolId",
          "type": "uint128"
        },
        {
          "indexed": true,
          "internalType": "address",
          "name": "owner",
          "type": "address"
        }
      ],
      "name": "NominatedPoolOwner",
      "type": "event"
    },
    {
      "anonymous": false,
      "inputs": [
        {
          "indexed": true,
          "internalType": "uint128",
          "name": "poolId",
          "type": "uint128"
        },
        {
          "components": [
            {
              "internalType": "uint128",
              "name": "market",
              "type": "uint128"
            },
            {
              "internalType": "uint128",
              "name": "weight",
              "type": "uint128"
            },
            {
              "internalType": "int128",
              "name": "maxDebtShareValue",
              "type": "int128"
            }
          ],
          "indexed": true,
          "internalType": "struct MarketConfiguration.Data[]",
          "name": "markets",
          "type": "tuple[]"
        },
        {
          "indexed": false,
          "internalType": "address",
          "name": "executedBy",
          "type": "address"
        }
      ],
      "name": "PoolConfigurationSet",
      "type": "event"
    },
    {
      "anonymous": false,
      "inputs": [
        {
          "indexed": true,
          "internalType": "uint128",
          "name": "poolId",
          "type": "uint128"
        },
        {
          "indexed": true,
          "internalType": "address",
          "name": "owner",
          "type": "address"
        }
      ],
      "name": "PoolCreated",
      "type": "event"
    },
    {
      "anonymous": false,
      "inputs": [
        {
          "indexed": true,
          "internalType": "uint128",
          "name": "poolId",
          "type": "uint128"
        },
        {
          "indexed": true,
          "internalType": "string",
          "name": "name",
          "type": "string"
        },
        {
          "indexed": true,
          "internalType": "address",
          "name": "sender",
          "type": "address"
        }
      ],
      "name": "PoolNameUpdated",
      "type": "event"
    },
    {
      "anonymous": false,
      "inputs": [
        {
          "indexed": true,
          "internalType": "uint128",
          "name": "poolId",
          "type": "uint128"
        },
        {
          "indexed": true,
          "internalType": "address",
          "name": "owner",
          "type": "address"
        }
      ],
      "name": "PoolNominationRenounced",
      "type": "event"
    },
    {
      "anonymous": false,
      "inputs": [
        {
          "indexed": true,
          "internalType": "uint128",
          "name": "poolId",
          "type": "uint128"
        },
        {
          "indexed": true,
          "internalType": "address",
          "name": "owner",
          "type": "address"
        }
      ],
      "name": "PoolNominationRevoked",
      "type": "event"
    },
    {
      "anonymous": false,
      "inputs": [
        {
          "indexed": true,
          "internalType": "uint128",
          "name": "poolId",
          "type": "uint128"
        },
        {
          "indexed": true,
          "internalType": "address",
          "name": "owner",
          "type": "address"
        }
      ],
      "name": "PoolOwnershipAccepted",
      "type": "event"
    },
    {
      "anonymous": false,
      "inputs": [
        {
          "indexed": true,
          "internalType": "uint128",
          "name": "poolId",
          "type": "uint128"
        },
        {
          "indexed": true,
          "internalType": "address",
          "name": "owner",
          "type": "address"
        }
      ],
      "name": "PoolOwnershipRenounced",
      "type": "event"
    },
    {
      "inputs": [
        {
          "internalType": "uint128",
          "name": "poolId",
          "type": "uint128"
        }
      ],
      "name": "acceptPoolOwnership",
      "outputs": [],
      "stateMutability": "nonpayable",
      "type": "function"
    },
    {
      "inputs": [
        {
          "internalType": "uint128",
          "name": "requestedPoolId",
          "type": "uint128"
        },
        {
          "internalType": "address",
          "name": "owner",
          "type": "address"
        }
      ],
      "name": "createPool",
      "outputs": [],
      "stateMutability": "nonpayable",
      "type": "function"
    },
    {
      "inputs": [],
      "name": "getMinLiquidityRatio",
      "outputs": [
        {
          "internalType": "uint256",
          "name": "",
          "type": "uint256"
        }
      ],
      "stateMutability": "view",
      "type": "function"
    },
    {
      "inputs": [
        {
          "internalType": "uint128",
          "name": "poolId",
          "type": "uint128"
        }
      ],
      "name": "getNominatedPoolOwner",
      "outputs": [
        {
          "internalType": "address",
          "name": "",
          "type": "address"
        }
      ],
      "stateMutability": "view",
      "type": "function"
    },
    {
      "inputs": [
        {
          "internalType": "uint128",
          "name": "poolId",
          "type": "uint128"
        }
      ],
      "name": "getPoolConfiguration",
      "outputs": [
        {
          "components": [
            {
              "internalType": "uint128",
              "name": "market",
              "type": "uint128"
            },
            {
              "internalType": "uint128",
              "name": "weight",
              "type": "uint128"
            },
            {
              "internalType": "int128",
              "name": "maxDebtShareValue",
              "type": "int128"
            }
          ],
          "internalType": "struct MarketConfiguration.Data[]",
          "name": "",
          "type": "tuple[]"
        }
      ],
      "stateMutability": "view",
      "type": "function"
    },
    {
      "inputs": [
        {
          "internalType": "uint128",
          "name": "poolId",
          "type": "uint128"
        }
      ],
      "name": "getPoolName",
      "outputs": [
        {
          "internalType": "string",
          "name": "poolName",
          "type": "string"
        }
      ],
      "stateMutability": "view",
      "type": "function"
    },
    {
      "inputs": [
        {
          "internalType": "uint128",
          "name": "poolId",
          "type": "uint128"
        }
      ],
      "name": "getPoolOwner",
      "outputs": [
        {
          "internalType": "address",
          "name": "",
          "type": "address"
        }
      ],
      "stateMutability": "view",
      "type": "function"
    },
    {
      "inputs": [
        {
          "internalType": "address",
          "name": "nominatedOwner",
          "type": "address"
        },
        {
          "internalType": "uint128",
          "name": "poolId",
          "type": "uint128"
        }
      ],
      "name": "nominatePoolOwner",
      "outputs": [],
      "stateMutability": "nonpayable",
      "type": "function"
    },
    {
      "inputs": [
        {
          "internalType": "uint128",
          "name": "poolId",
          "type": "uint128"
        }
      ],
      "name": "renouncePoolNomination",
      "outputs": [],
      "stateMutability": "nonpayable",
      "type": "function"
    },
    {
      "inputs": [
        {
          "internalType": "uint128",
          "name": "poolId",
          "type": "uint128"
        }
      ],
      "name": "renouncePoolOwnership",
      "outputs": [],
      "stateMutability": "nonpayable",
      "type": "function"
    },
    {
      "inputs": [
        {
          "internalType": "uint256",
          "name": "minLiquidityRatio",
          "type": "uint256"
        }
      ],
      "name": "setMinLiquidityRatio",
      "outputs": [],
      "stateMutability": "nonpayable",
      "type": "function"
    },
    {
      "inputs": [
        {
          "internalType": "uint128",
          "name": "poolId",
          "type": "uint128"
        },
        {
          "components": [
            {
              "internalType": "uint128",
              "name": "market",
              "type": "uint128"
            },
            {
              "internalType": "uint128",
              "name": "weight",
              "type": "uint128"
            },
            {
              "internalType": "int128",
              "name": "maxDebtShareValue",
              "type": "int128"
            }
          ],
          "internalType": "struct MarketConfiguration.Data[]",
          "name": "newDistributions",
          "type": "tuple[]"
        }
      ],
      "name": "setPoolConfiguration",
      "outputs": [],
      "stateMutability": "nonpayable",
      "type": "function"
    },
    {
      "inputs": [
        {
          "internalType": "uint128",
          "name": "poolId",
          "type": "uint128"
        },
        {
          "internalType": "string",
          "name": "name",
          "type": "string"
        }
      ],
      "name": "setPoolName",
      "outputs": [],
      "stateMutability": "nonpayable",
      "type": "function"
    }
  ],
  "bytecode": "0x608060405234801561001057600080fd5b5061567d80620000216000396000f3fe608060405234801561001057600080fd5b50600436106100cf5760003560e01c8063bbdd7c5a1161008c578063caab529b11610066578063caab529b146101f8578063efecf13714610214578063f86e6f9114610244578063fd85c1f814610274576100cf565b8063bbdd7c5a14610190578063c707a39f146101c0578063ca5bed77146101dc576100cf565b806311e72a43146100d457806334078a01146100f05780635d8c88441461010c5780636141f7a2146101285780637cc14a92146101445780639851af0114610160575b600080fd5b6100ee60048036038101906100e99190613e94565b610292565b005b61010a60048036038101906101059190613f26565b610336565b005b610126600480360381019061012191906140bd565b610351565b005b610142600480360381019061013d9190614177565b61094b565b005b61015e600480360381019061015991906141b7565b6109fa565b005b61017a600480360381019061017591906141b7565b610aa9565b60405161018791906141f3565b60405180910390f35b6101aa60048036038101906101a591906141b7565b610adf565b6040516101b791906141f3565b60405180910390f35b6101da60048036038101906101d591906141b7565b610b15565b005b6101f660048036038101906101f191906141b7565b610c97565b005b610212600480360381019061020d919061420e565b610dd6565b005b61022e600480360381019061022991906141b7565b610ecb565b60405161023b919061435d565b60405180910390f35b61025e600480360381019061025991906141b7565b611067565b60405161026b9190614407565b60405180910390f35b61027c611105565b6040516102899190614438565b60405180910390f35b61029b82611118565b6102a58233611165565b806102af83611205565b60010190805190602001906102c5929190613bd8565b503373ffffffffffffffffffffffffffffffffffffffff16816040516102eb919061448f565b6040518091039020836fffffffffffffffffffffffffffffffff167f63b42abaf7e145a993f20bc64259f45d09c43d18838ab0bca078b15093ac55f460405160405180910390a45050565b61033e61123a565b806103476112b3565b6000018190555050565b61035a82611118565b6103648233611165565b600061036f83611205565b905061037a816112e4565b600080610387838561153b565b915091506000805b84600501805490508651106103ab5784600501805490506103ae565b85515b811015610508578581815181106103c8576103c76144a6565b5b60200260200101518560050182815481106103e6576103e56144a6565b5b906000526020600020906002020160008201518160000160006101000a8154816fffffffffffffffffffffffffffffffff02191690836fffffffffffffffffffffffffffffffff16021790555060208201518160000160106101000a8154816fffffffffffffffffffffffffffffffff02191690836fffffffffffffffffffffffffffffffff16021790555060408201518160010160006101000a8154816fffffffffffffffffffffffffffffffff0219169083600f0b6fffffffffffffffffffffffffffffffff1602179055509050508581815181106104ca576104c96144a6565b5b6020026020010151602001516fffffffffffffffffffffffffffffffff16826104f39190614504565b915080806105009061455a565b91505061038f565b5b855181101561066d5784600501868281518110610529576105286144a6565b5b6020026020010151908060018154018082558091505060019003906000526020600020906002020160009091909190915060008201518160000160006101000a8154816fffffffffffffffffffffffffffffffff02191690836fffffffffffffffffffffffffffffffff16021790555060208201518160000160106101000a8154816fffffffffffffffffffffffffffffffff02191690836fffffffffffffffffffffffffffffffff16021790555060408201518160010160006101000a8154816fffffffffffffffffffffffffffffffff0219169083600f0b6fffffffffffffffffffffffffffffffff160217905550505085818151811061062f5761062e6144a6565b5b6020026020010151602001516fffffffffffffffffffffffffffffffff16826106589190614504565b915080806106659061455a565b915050610509565b600081866005018054905061068291906145a3565b9050600091505b8082101561073a57856005018054806106a5576106a46145d7565b5b6001900381819060005260206000209060020201600080820160006101000a8154906fffffffffffffffffffffffffffffffff02191690556000820160106101000a8154906fffffffffffffffffffffffffffffffff02191690556001820160006101000a8154906fffffffffffffffffffffffffffffffff02191690555050905581806107329061455a565b925050610689565b600091505b83518210801561077c5750600084838151811061075f5761075e6144a6565b5b60200260200101516fffffffffffffffffffffffffffffffff1614155b156107bc576107a8848381518110610797576107966144a6565b5b602002602001015189600080611c86565b5081806107b49061455a565b92505061073f565b828660040160006101000a8154816fffffffffffffffffffffffffffffffff02191690836fffffffffffffffffffffffffffffffff160217905550610800866112e4565b600091505b84518210801561084257506000858381518110610825576108246144a6565b5b60200260200101516fffffffffffffffffffffffffffffffff1614155b156108e15761087261086d8684815181106108605761085f6144a6565b5b6020026020010151611d50565b611d85565b156108ce5784828151811061088a576108896144a6565b5b60200260200101516040517f91b9419f0000000000000000000000000000000000000000000000000000000081526004016108c59190614641565b60405180910390fd5b81806108d99061455a565b925050610805565b866040516108ef919061476a565b6040518091039020886fffffffffffffffffffffffffffffffff167fdd812c2e47943d98e6c66b2b9872d1f9270b8523c82eb60ad5c8d580a614081c3360405161093991906141f3565b60405180910390a35050505050505050565b6109558133611165565b8161095f82611205565b60030160006101000a81548173ffffffffffffffffffffffffffffffffffffffff021916908373ffffffffffffffffffffffffffffffffffffffff1602179055508173ffffffffffffffffffffffffffffffffffffffff16816fffffffffffffffffffffffffffffffff167f8003776a8bebc2616839b1bce6ab7fdb54516369d079fb0bb0550a1965989e6560405160405180910390a35050565b610a048133611165565b6000610a0f82611205565b60030160006101000a81548173ffffffffffffffffffffffffffffffffffffffff021916908373ffffffffffffffffffffffffffffffffffffffff1602179055503373ffffffffffffffffffffffffffffffffffffffff16816fffffffffffffffffffffffffffffffff167f0d1df5c898ce9334fe91f342f5c07b0eea630d388f90b4e07e85753d6125273460405160405180910390a350565b6000610ab482611205565b60030160009054906101000a900473ffffffffffffffffffffffffffffffffffffffff169050919050565b6000610aea82611205565b60020160009054906101000a900473ffffffffffffffffffffffffffffffffffffffff169050919050565b6000610b2082611205565b90503373ffffffffffffffffffffffffffffffffffffffff168160030160009054906101000a900473ffffffffffffffffffffffffffffffffffffffff1673ffffffffffffffffffffffffffffffffffffffff1614610bb657336040517f8e4a23d6000000000000000000000000000000000000000000000000000000008152600401610bad91906141f3565b60405180910390fd5b338160020160006101000a81548173ffffffffffffffffffffffffffffffffffffffff021916908373ffffffffffffffffffffffffffffffffffffffff16021790555060008160030160006101000a81548173ffffffffffffffffffffffffffffffffffffffff021916908373ffffffffffffffffffffffffffffffffffffffff1602179055503373ffffffffffffffffffffffffffffffffffffffff16826fffffffffffffffffffffffffffffffff167f4f86f2ce8b08e27d0e470f4269b71c3bbc68407d51a2e692f6573236074ebc5a60405160405180910390a35050565b6000610ca282611205565b90503373ffffffffffffffffffffffffffffffffffffffff168160030160009054906101000a900473ffffffffffffffffffffffffffffffffffffffff1673ffffffffffffffffffffffffffffffffffffffff1614610d3857336040517f8e4a23d6000000000000000000000000000000000000000000000000000000008152600401610d2f91906141f3565b60405180910390fd5b60008160030160006101000a81548173ffffffffffffffffffffffffffffffffffffffff021916908373ffffffffffffffffffffffffffffffffffffffff1602179055503373ffffffffffffffffffffffffffffffffffffffff16826fffffffffffffffffffffffffffffffff167f28301da5fb0feefb138efa6310af4547a74f415d62616f90519436dc169c3ae060405160405180910390a35050565b610dff7f637265617465506f6f6c00000000000000000000000000000000000000000000611dcb565b600073ffffffffffffffffffffffffffffffffffffffff168173ffffffffffffffffffffffffffffffffffffffff161415610e66576040517fd92e233d00000000000000000000000000000000000000000000000000000000815260040160405180910390fd5b610e708282611e0e565b508073ffffffffffffffffffffffffffffffffffffffff16826fffffffffffffffffffffffffffffffff167f4dfd1dac627094e53abc04dd7243d9a095a40b99486b50296644f64deff98bbb60405160405180910390a35050565b60606000610ed883611205565b90506000816005018054905067ffffffffffffffff811115610efd57610efc613d69565b5b604051908082528060200260200182016040528015610f3657816020015b610f23613c5e565b815260200190600190039081610f1b5790505b50905060005b826005018054905081101561105c57826005018181548110610f6157610f606144a6565b5b90600052602060002090600202016040518060600160405290816000820160009054906101000a90046fffffffffffffffffffffffffffffffff166fffffffffffffffffffffffffffffffff166fffffffffffffffffffffffffffffffff1681526020016000820160109054906101000a90046fffffffffffffffffffffffffffffffff166fffffffffffffffffffffffffffffffff166fffffffffffffffffffffffffffffffff1681526020016001820160009054906101000a9004600f0b600f0b600f0b8152505082828151811061103e5761103d6144a6565b5b602002602001018190525080806110549061455a565b915050610f3c565b508092505050919050565b606061107282611205565b6001018054611080906147b0565b80601f01602080910402602001604051908101604052809291908181526020018280546110ac906147b0565b80156110f95780601f106110ce576101008083540402835291602001916110f9565b820191906000526020600020905b8154815290600101906020018083116110dc57829003601f168201915b50505050509050919050565b600061110f6112b3565b60000154905090565b61112181611eea565b61116257806040517f32b961eb00000000000000000000000000000000000000000000000000000000815260040161115991906147f1565b60405180910390fd5b50565b8073ffffffffffffffffffffffffffffffffffffffff1661118583611205565b60020160009054906101000a900473ffffffffffffffffffffffffffffffffffffffff1673ffffffffffffffffffffffffffffffffffffffff161461120157806040517f8e4a23d60000000000000000000000000000000000000000000000000000000081526004016111f891906141f3565b60405180910390fd5b5050565b600080826040516020016112199190614858565b60405160208183030381529060405280519060200120905080915050919050565b611242611f5e565b73ffffffffffffffffffffffffffffffffffffffff163373ffffffffffffffffffffffffffffffffffffffff16146112b157336040517f8e4a23d60000000000000000000000000000000000000000000000000000000081526004016112a891906141f3565b60405180910390fd5b565b6000806040516020016112c5906148d2565b6040516020818303038152906040528051906020012090508091505090565b60008160040160009054906101000a90046fffffffffffffffffffffffffffffffff166fffffffffffffffffffffffffffffffff169050600081141561132a5750611538565b60008260060160000160009054906101000a90046fffffffffffffffffffffffffffffffff16600f0b905060008360040160109054906101000a90046fffffffffffffffffffffffffffffffff1690506000805b856005018054905081101561151c5760008660050182815481106113a5576113a46144a6565b5b9060005260206000209060020201905060008160000160109054906101000a90046fffffffffffffffffffffffffffffffff166fffffffffffffffffffffffffffffffff16905060008087136113fc576000611414565b87828861140991906148f2565b611413919061497b565b5b905060008883886fffffffffffffffffffffffffffffffff1661143791906148f2565b611441919061497b565b9050600061146e8560000160009054906101000a90046fffffffffffffffffffffffffffffffff16611d50565b9050600061147d8c8385611f91565b905060008660010160009054906101000a9004600f0b600f0b90508082126114a557806114a7565b815b91506114f58760000160009054906101000a90046fffffffffffffffffffffffffffffffff168e60000160009054906101000a90046fffffffffffffffffffffffffffffffff168488611c86565b8961150091906149b6565b98505050505050505080806115149061455a565b91505061137e565b50611533818660060161206490919063ffffffff16565b505050505b50565b606080600080600080876005018054905067ffffffffffffffff81111561156557611564613d69565b5b6040519080825280602002602001820160405280156115935781602001602082028036833780820191505090505b509550876005018054905067ffffffffffffffff8111156115b7576115b6613d69565b5b6040519080825280602002602001820160405280156115e55781602001602082028036833780820191505090505b5094506000805b885181101561164657888181518110611608576116076144a6565b5b6020026020010151602001516fffffffffffffffffffffffffffffffff16826116319190614504565b9150808061163e9061455a565b9150506115ec565b5060005b8851811015611bc157826fffffffffffffffffffffffffffffffff16898281518110611679576116786144a6565b5b6020026020010151600001516fffffffffffffffffffffffffffffffff16116116d7576040517f01674a6b0000000000000000000000000000000000000000000000000000000081526004016116ce90614b08565b60405180910390fd5b8881815181106116ea576116e96144a6565b5b6020026020010151600001519250600089828151811061170d5761170c6144a6565b5b6020026020010151602001516fffffffffffffffffffffffffffffffff16141561176c576040517f01674a6b00000000000000000000000000000000000000000000000000000000815260040161176390614bd3565b60405180910390fd5b5b8960050180549050861080156118075750888181518110611791576117906144a6565b5b6020026020010151600001516fffffffffffffffffffffffffffffffff168a60050187815481106117c5576117c46144a6565b5b906000526020600020906002020160000160009054906101000a90046fffffffffffffffffffffffffffffffff166fffffffffffffffffffffffffffffffff16105b1561192c57896005018681548110611822576118216144a6565b5b906000526020600020906002020160000160009054906101000a90046fffffffffffffffffffffffffffffffff1688868061185c9061455a565b97508151811061186f5761186e6144a6565b5b60200260200101906fffffffffffffffffffffffffffffffff1690816fffffffffffffffffffffffffffffffff1681525050876001866118af91906145a3565b815181106118c0576118bf6144a6565b5b60200260200101518785806118d49061455a565b9650815181106118e7576118e66144a6565b5b60200260200101906fffffffffffffffffffffffffffffffff1690816fffffffffffffffffffffffffffffffff168152505085806119249061455a565b96505061176d565b8960050180549050861080156119c657508881815181106119505761194f6144a6565b5b6020026020010151600001516fffffffffffffffffffffffffffffffff168a6005018781548110611984576119836144a6565b5b906000526020600020906002020160000160009054906101000a90046fffffffffffffffffffffffffffffffff166fffffffffffffffffffffffffffffffff16145b15611bae578960050186815481106119e1576119e06144a6565b5b906000526020600020906002020160010160009054906101000a9004600f0b600f0b898281518110611a1657611a156144a6565b5b602002602001015160400151600f0b1280611b295750611ad58a60040160009054906101000a90046fffffffffffffffffffffffffffffffff166fffffffffffffffffffffffffffffffff16633b9aca008c6005018981548110611a7d57611a7c6144a6565b5b906000526020600020906002020160000160109054906101000a90046fffffffffffffffffffffffffffffffff16611ab59190614c06565b6fffffffffffffffffffffffffffffffff1661217190919063ffffffff16565b611b2783633b9aca008c8581518110611af157611af06144a6565b5b602002602001015160200151611b079190614c06565b6fffffffffffffffffffffffffffffffff1661217190919063ffffffff16565b105b15611b9f57888181518110611b4157611b406144a6565b5b602002602001015160000151888680611b599061455a565b975081518110611b6c57611b6b6144a6565b5b60200260200101906fffffffffffffffffffffffffffffffff1690816fffffffffffffffffffffffffffffffff16815250505b8580611baa9061455a565b9650505b8080611bb99061455a565b91505061164a565b505b8860050180549050851015611c7a57886005018581548110611be857611be76144a6565b5b906000526020600020906002020160000160009054906101000a90046fffffffffffffffffffffffffffffffff16868480611c229061455a565b955081518110611c3557611c346144a6565b5b60200260200101906fffffffffffffffffffffffffffffffff1690816fffffffffffffffffffffffffffffffff16815250508480611c729061455a565b955050611bc3565b50505050509250929050565b600080611c9286611d50565b9050600073ffffffffffffffffffffffffffffffffffffffff168160010160009054906101000a900473ffffffffffffffffffffffffffffffffffffffff1673ffffffffffffffffffffffffffffffffffffffff161415611d2a57856040517ff080c1ea000000000000000000000000000000000000000000000000000000008152600401611d2191906147f1565b60405180910390fd5b611d39816402540be3ff612196565b611d458186858761260c565b915050949350505050565b60008082604051602001611d649190614c9c565b60405160208183030381529060405280519060200120905080915050919050565b6000611d90826128ad565b8260020160109054906101000a90046fffffffffffffffffffffffffffffffff166fffffffffffffffffffffffffffffffff16109050919050565b611dd58133612974565b611e0b576040517fe8298be500000000000000000000000000000000000000000000000000000000815260040160405180910390fd5b50565b6000611e1983611eea565b15611e5b57826040517f2aa3ed12000000000000000000000000000000000000000000000000000000008152600401611e5291906147f1565b60405180910390fd5b611e6483611205565b9050828160000160006101000a8154816fffffffffffffffffffffffffffffffff02191690836fffffffffffffffffffffffffffffffff160217905550818160020160006101000a81548173ffffffffffffffffffffffffffffffffffffffff021916908373ffffffffffffffffffffffffffffffffffffffff16021790555092915050565b600080826fffffffffffffffffffffffffffffffff161480611f575750816fffffffffffffffffffffffffffffffff16611f2383611205565b60000160009054906101000a90046fffffffffffffffffffffffffffffffff166fffffffffffffffffffffffffffffffff16145b9050919050565b6000611f686129ba565b60000160019054906101000a900473ffffffffffffffffffffffffffffffffffffffff16905090565b600080611f9c6112b3565b6000015490506000633b9aca0085600a0160000160109054906101000a9004600f0b611fc89190614cca565b9050600080831415611fec57601260ff16600a611fe59190614e67565b9050612049565b6120468760060160000160009054906101000a90046fffffffffffffffffffffffffffffffff166fffffffffffffffffffffffffffffffff16612038858861217190919063ffffffff16565b61217190919063ffffffff16565b90505b8082600f0b61205891906149b6565b93505050509392505050565b60008114156120725761216d565b60008260000160009054906101000a90046fffffffffffffffffffffffffffffffff166fffffffffffffffffffffffffffffffff16905060008114156120e4576040517f3b182f5500000000000000000000000000000000000000000000000000000000815260040160405180910390fd5b60006b033b2e3c9fd0803ce8000000836120fe9190614eb2565b90506000828261210e9190614fc9565b9050808560000160108282829054906101000a9004600f0b6121309190615033565b92506101000a8154816fffffffffffffffffffffffffffffffff0219169083600f0b6fffffffffffffffffffffffffffffffff1602179055505050505b5050565b600061218e83601260ff16600a6121889190614e67565b846129eb565b905092915050565b600082600a0160000160009054906101000a90046fffffffffffffffffffffffffffffffff166fffffffffffffffffffffffffffffffff1614156121d957612608565b60006121e483612a13565b905060008360030160009054906101000a9004600f0b600f0b9050600084600a0160000160009054906101000a90046fffffffffffffffffffffffffffffffff16600f0b601260ff16600a6122399190614e67565b838561224591906150b7565b61224f9190614eb2565b6122599190614fc9565b633b9aca0086600a0160000160109054906101000a9004600f0b61227d9190614cca565b600f0b61228a91906149b6565b905060005b600061229d87600401612a57565b1180156122c45750816122b287600401612a8a565b602001516122bf9061514b565b600f0b125b80156122cf57508481105b156125a45760006122e287600401612aa4565b90506000670de0b6b3a7640000633b9aca0089600a0160000160109054906101000a9004600f0b6123139190614cca565b83602001516123219061514b565b61232b9190615194565b600f0b89600a0160000160009054906101000a90046fffffffffffffffffffffffffffffffff16600f0b61235f9190614eb2565b6123699190614fc9565b90506123818189600a0161206490919063ffffffff16565b808561238d91906149b6565b945060006123c083600001516fffffffffffffffffffffffffffffffff1660001b8a600a01612abe90919063ffffffff16565b11612400576040517f08c379a00000000000000000000000000000000000000000000000000000000081526004016123f790615264565b60405180910390fd5b600061243483600001516fffffffffffffffffffffffffffffffff1660001b60008b600a01612b0f9092919063ffffffff16565b90508089600c01600085600001516fffffffffffffffffffffffffffffffff166fffffffffffffffffffffffffffffffff168152602001908152602001600020600082825461248391906149b6565b92505081905550600089600a0160000160009054906101000a90046fffffffffffffffffffffffffffffffff166fffffffffffffffffffffffffffffffff16141561251257858960030160006101000a8154816fffffffffffffffffffffffffffffffff0219169083600f0b6fffffffffffffffffffffffffffffffff16021790555050505050505050612608565b88600a0160000160009054906101000a90046fffffffffffffffffffffffffffffffff16600f0b601260ff16600a61254a9190614e67565b878961255691906150b7565b6125609190614eb2565b61256a9190614fc9565b89600a0160000160109054906101000a9004600f0b600f0b61258c91906149b6565b9450505050808061259c9061455a565b91505061228f565b506125c682846125b491906150b7565b86600a0161206490919063ffffffff16565b828560030160006101000a8154816fffffffffffffffffffffffffffffffff0219169083600f0b6fffffffffffffffffffffffffffffffff1602179055505050505b5050565b6000806126198686612d04565b905060006126338688600401612d3990919063ffffffff16565b602001516126409061514b565b600f0b9050633b9aca0087600a0160000160109054906101000a9004600f0b6126699190614cca565b600f0b8413612692576000945061268c8688600401612d8c90919063ffffffff16565b506126b5565b6126b386856126a09061514b565b89600401612ddf9092919063ffffffff16565b505b6126e2866fffffffffffffffffffffffffffffffff1660001b8689600a01612b0f9092919063ffffffff16565b87600c016000886fffffffffffffffffffffffffffffffff166fffffffffffffffffffffffffffffffff1681526020019081526020016000205461272691906149b6565b9250600087600c016000886fffffffffffffffffffffffffffffffff166fffffffffffffffffffffffffffffffff16815260200190815260200160002081905550633b9aca0087600a0160000160109054906101000a9004600f0b61278b9190614cca565b600f0b841315612805576127a0878686612eef565b8760020160108282829054906101000a90046fffffffffffffffffffffffffffffffff166127ce9190615284565b92506101000a8154816fffffffffffffffffffffffffffffffff02191690836fffffffffffffffffffffffffffffffff1602179055505b633b9aca0087600a0160000160109054906101000a9004600f0b6128299190614cca565b600f0b8113156128a35761283e878383612eef565b8760020160108282829054906101000a90046fffffffffffffffffffffffffffffffff1661286c91906152ca565b92506101000a8154816fffffffffffffffffffffffffffffffff02191690836fffffffffffffffffffffffffffffffff1602179055505b5050949350505050565b60008160010160009054906101000a900473ffffffffffffffffffffffffffffffffffffffff1673ffffffffffffffffffffffffffffffffffffffff1663c9c04a7f8360000160009054906101000a90046fffffffffffffffffffffffffffffffff166040518263ffffffff1660e01b815260040161292c91906147f1565b602060405180830381865afa158015612949573d6000803e3d6000fd5b505050506040513d601f19601f8201168201806040525081019061296d9190615313565b9050919050565b60008061298084612f3e565b90508060010160009054906101000a900460ff16806129b157506129b08382600201612f7390919063ffffffff16565b5b91505092915050565b6000806040516020016129cc9061538c565b6040516020818303038152906040528051906020012090508091505090565b60008284029050828482041484151782151516612a0757600080fd5b81810490509392505050565b6000612a1e82612fa3565b8260020160009054906101000a9004600f0b600f0b612a3c846130a5565b612a4691906149b6565b612a5091906150b7565b9050919050565b600080826001018054905011612a6e576000612a83565b60018260010180549050612a8291906145a3565b5b9050919050565b612a92613ca6565b612a9d82600161316c565b9050919050565b612aac613ca6565b612ab782600161324e565b9050919050565b600082600101600083815260200190815260200160002060000160009054906101000a90046fffffffffffffffffffffffffffffffff166fffffffffffffffffffffffffffffffff16905092915050565b600080846001016000858152602001908152602001600020905060008160000160109054906101000a9004600f0b8660000160109054906101000a9004600f0b612b599190615194565b905060008260000160009054906101000a90046fffffffffffffffffffffffffffffffff16600f0b82600f0b612b8f9190614eb2565b90506b033b2e3c9fd0803ce800000081612ba99190614fc9565b93508260000160009054906101000a90046fffffffffffffffffffffffffffffffff166fffffffffffffffffffffffffffffffff16858860000160009054906101000a90046fffffffffffffffffffffffffffffffff166fffffffffffffffffffffffffffffffff16612c1c9190614504565b612c2691906145a3565b8760000160006101000a8154816fffffffffffffffffffffffffffffffff02191690836fffffffffffffffffffffffffffffffff160217905550848360000160006101000a8154816fffffffffffffffffffffffffffffffff02191690836fffffffffffffffffffffffffffffffff16021790555060008514612cba578660000160109054906101000a9004600f0b612cbd565b60005b8360000160106101000a8154816fffffffffffffffffffffffffffffffff0219169083600f0b6fffffffffffffffffffffffffffffffff1602179055505050509392505050565b6000612d31826fffffffffffffffffffffffffffffffff1660001b84600a01612abe90919063ffffffff16565b905092915050565b612d41613ca6565b612d8483846002016000856fffffffffffffffffffffffffffffffff166fffffffffffffffffffffffffffffffff1681526020019081526020016000205461316c565b905092915050565b612d94613ca6565b612dd783846002016000856fffffffffffffffffffffffffffffffff166fffffffffffffffffffffffffffffffff1681526020019081526020016000205461324e565b905092915050565b612de7613ca6565b600084600101805490501415612e0157612e0084613557565b5b612e09613ca6565b612e138585612d8c565b5084600001600081819054906101000a90046fffffffffffffffffffffffffffffffff1680929190612e44906153ac565b91906101000a8154816fffffffffffffffffffffffffffffffff02191690836fffffffffffffffffffffffffffffffff16021790555050846001016001816001815401808255809150500390600052602060002050506040518060400160405280856fffffffffffffffffffffffffffffffff16815260200184600f0b8152509050612ee4858260018860010180549050612edf91906145a3565b613643565b809150509392505050565b6000612f3583633b9aca0086600a0160000160109054906101000a9004600f0b612f199190614cca565b600f0b84612f2791906150b7565b61377290919063ffffffff16565b90509392505050565b60008082604051602001612f52919061544a565b60405160208183030381529060405280519060200120905080915050919050565b6000612f9b836000018373ffffffffffffffffffffffffffffffffffffffff1660001b613797565b905092915050565b6000806000905060005b83600d018054905081101561309b57600084600d018281548110612fd457612fd36144a6565b5b90600052602060002090600202016040518060400160405290816000820160009054906101000a900473ffffffffffffffffffffffffffffffffffffffff1673ffffffffffffffffffffffffffffffffffffffff1673ffffffffffffffffffffffffffffffffffffffff168152602001600182015481525050905061307a816020015161306c61306784600001516137ba565b6137ef565b61377290919063ffffffff16565b836130859190614504565b92505080806130939061455a565b915050612fad565b5080915050919050565b60008160010160009054906101000a900473ffffffffffffffffffffffffffffffffffffffff1673ffffffffffffffffffffffffffffffffffffffff1663bcec0d0f8360000160009054906101000a90046fffffffffffffffffffffffffffffffff166040518263ffffffff1660e01b815260040161312491906147f1565b602060405180830381865afa158015613141573d6000803e3d6000fd5b505050506040513d601f19601f820116820180604052508101906131659190615313565b9050919050565b613174613ca6565b818360010180549050116131b357604051806040016040528060006fffffffffffffffffffffffffffffffff1681526020016000600f0b815250613246565b8260010182815481106131c9576131c86144a6565b5b906000526020600020016040518060400160405290816000820160009054906101000a90046fffffffffffffffffffffffffffffffff166fffffffffffffffffffffffffffffffff166fffffffffffffffffffffffffffffffff1681526020016000820160109054906101000a9004600f0b600f0b600f0b815250505b905092915050565b613256613ca6565b81836001018054905011158061326d575060008211155b156132a557604051806040016040528060006fffffffffffffffffffffffffffffffff1681526020016000600f0b8152509050613551565b60008360010183815481106132bd576132bc6144a6565b5b906000526020600020016040518060400160405290816000820160009054906101000a90046fffffffffffffffffffffffffffffffff166fffffffffffffffffffffffffffffffff166fffffffffffffffffffffffffffffffff1681526020016000820160109054906101000a9004600f0b600f0b600f0b81525050905083600201600082600001516fffffffffffffffffffffffffffffffff166fffffffffffffffffffffffffffffffff168152602001908152602001600020600090556000846001016001866001018054905061339691906145a3565b815481106133a7576133a66144a6565b5b906000526020600020016040518060400160405290816000820160009054906101000a90046fffffffffffffffffffffffffffffffff166fffffffffffffffffffffffffffffffff166fffffffffffffffffffffffffffffffff1681526020016000820160109054906101000a9004600f0b600f0b600f0b81525050905084600101805480613439576134386145d7565b5b60019003818190600052602060002001600080820160006101000a8154906fffffffffffffffffffffffffffffffff02191690556000820160106101000a8154906fffffffffffffffffffffffffffffffff021916905550509055846001018054905084101561354b576134ae858286613643565b61354a858660010186815481106134c8576134c76144a6565b5b906000526020600020016040518060400160405290816000820160009054906101000a90046fffffffffffffffffffffffffffffffff166fffffffffffffffffffffffffffffffff166fffffffffffffffffffffffffffffffff1681526020016000820160109054906101000a9004600f0b600f0b600f0b81525050866138d7565b5b81925050505b92915050565b6000816001018054905014156136405780600101604051806040016040528060006fffffffffffffffffffffffffffffffff1681526020016000600f0b8152509080600181540180825580915050600190039060005260206000200160009091909190915060008201518160000160006101000a8154816fffffffffffffffffffffffffffffffff02191690836fffffffffffffffffffffffffffffffff16021790555060208201518160000160106101000a8154816fffffffffffffffffffffffffffffffff0219169083600f0b6fffffffffffffffffffffffffffffffff16021790555050505b50565b600181148061369857508260010160028261365e919061497b565b8154811061366f5761366e6144a6565b5b9060005260206000200160000160109054906101000a9004600f0b600f0b8260200151600f0b13155b156136ad576136a8838383613aec565b61376d565b61375583846001016002846136c2919061497b565b815481106136d3576136d26144a6565b5b906000526020600020016040518060400160405290816000820160009054906101000a90046fffffffffffffffffffffffffffffffff166fffffffffffffffffffffffffffffffff166fffffffffffffffffffffffffffffffff1681526020016000820160109054906101000a9004600f0b600f0b600f0b8152505083613aec565b61376c8383600284613767919061497b565b613643565b5b505050565b600061378f8383601260ff16600a61378a9190614e67565b6129eb565b905092915050565b600080836001016000848152602001908152602001600020541415905092915050565b600080826040516020016137ce91906154c4565b60405160208183030381529060405280519060200120905080915050919050565b6000808260040160009054906101000a900473ffffffffffffffffffffffffffffffffffffffff1673ffffffffffffffffffffffffffffffffffffffff1663feaf968c6040518163ffffffff1660e01b815260040160a060405180830381865afa158015613861573d6000803e3d6000fd5b505050506040513d601f19601f820116820180604052508101906138859190615560565b505050915050600081136138ce576040517f08c379a00000000000000000000000000000000000000000000000000000000081526004016138c590615627565b60405180910390fd5b80915050919050565b60008360010180549050905060006002836138f291906148f2565b905080821161390b57613906858585613aec565b613ae5565b6000856001018281548110613923576139226144a6565b5b906000526020600020016040518060400160405290816000820160009054906101000a90046fffffffffffffffffffffffffffffffff166fffffffffffffffffffffffffffffffff166fffffffffffffffffffffffffffffffff1681526020016000820160109054906101000a9004600f0b600f0b600f0b8152505090506001826139ae9190614504565b83118015613a0157508060200151600f0b866001016001846139d09190614504565b815481106139e1576139e06144a6565b5b9060005260206000200160000160109054906101000a9004600f0b600f0b135b15613aa7578560010182613a149061455a565b92508281548110613a2857613a276144a6565b5b906000526020600020016040518060400160405290816000820160009054906101000a90046fffffffffffffffffffffffffffffffff166fffffffffffffffffffffffffffffffff166fffffffffffffffffffffffffffffffff1681526020016000820160109054906101000a9004600f0b600f0b600f0b8152505090505b8460200151600f0b8160200151600f0b13613acc57613ac7868686613aec565b613ae3565b613ad7868286613aec565b613ae28686846138d7565b5b505b5050505050565b81836001018281548110613b0357613b026144a6565b5b9060005260206000200160008201518160000160006101000a8154816fffffffffffffffffffffffffffffffff02191690836fffffffffffffffffffffffffffffffff16021790555060208201518160000160106101000a8154816fffffffffffffffffffffffffffffffff0219169083600f0b6fffffffffffffffffffffffffffffffff1602179055509050508083600201600084600001516fffffffffffffffffffffffffffffffff166fffffffffffffffffffffffffffffffff16815260200190815260200160002081905550505050565b828054613be4906147b0565b90600052602060002090601f016020900481019282613c065760008555613c4d565b82601f10613c1f57805160ff1916838001178555613c4d565b82800160010185558215613c4d579182015b82811115613c4c578251825591602001919060010190613c31565b5b509050613c5a9190613cd5565b5090565b604051806060016040528060006fffffffffffffffffffffffffffffffff16815260200160006fffffffffffffffffffffffffffffffff1681526020016000600f0b81525090565b604051806040016040528060006fffffffffffffffffffffffffffffffff1681526020016000600f0b81525090565b5b80821115613cee576000816000905550600101613cd6565b5090565b6000604051905090565b600080fd5b600080fd5b60006fffffffffffffffffffffffffffffffff82169050919050565b613d2b81613d06565b8114613d3657600080fd5b50565b600081359050613d4881613d22565b92915050565b600080fd5b600080fd5b6000601f19601f8301169050919050565b7f4e487b7100000000000000000000000000000000000000000000000000000000600052604160045260246000fd5b613da182613d58565b810181811067ffffffffffffffff82111715613dc057613dbf613d69565b5b80604052505050565b6000613dd3613cf2565b9050613ddf8282613d98565b919050565b600067ffffffffffffffff821115613dff57613dfe613d69565b5b613e0882613d58565b9050602081019050919050565b82818337600083830152505050565b6000613e37613e3284613de4565b613dc9565b905082815260208101848484011115613e5357613e52613d53565b5b613e5e848285613e15565b509392505050565b600082601f830112613e7b57613e7a613d4e565b5b8135613e8b848260208601613e24565b91505092915050565b60008060408385031215613eab57613eaa613cfc565b5b6000613eb985828601613d39565b925050602083013567ffffffffffffffff811115613eda57613ed9613d01565b5b613ee685828601613e66565b9150509250929050565b6000819050919050565b613f0381613ef0565b8114613f0e57600080fd5b50565b600081359050613f2081613efa565b92915050565b600060208284031215613f3c57613f3b613cfc565b5b6000613f4a84828501613f11565b91505092915050565b600067ffffffffffffffff821115613f6e57613f6d613d69565b5b602082029050602081019050919050565b600080fd5b600080fd5b600081600f0b9050919050565b613f9f81613f89565b8114613faa57600080fd5b50565b600081359050613fbc81613f96565b92915050565b600060608284031215613fd857613fd7613f84565b5b613fe26060613dc9565b90506000613ff284828501613d39565b600083015250602061400684828501613d39565b602083015250604061401a84828501613fad565b60408301525092915050565b600061403961403484613f53565b613dc9565b9050808382526020820190506060840283018581111561405c5761405b613f7f565b5b835b8181101561408557806140718882613fc2565b84526020840193505060608101905061405e565b5050509392505050565b600082601f8301126140a4576140a3613d4e565b5b81356140b4848260208601614026565b91505092915050565b600080604083850312156140d4576140d3613cfc565b5b60006140e285828601613d39565b925050602083013567ffffffffffffffff81111561410357614102613d01565b5b61410f8582860161408f565b9150509250929050565b600073ffffffffffffffffffffffffffffffffffffffff82169050919050565b600061414482614119565b9050919050565b61415481614139565b811461415f57600080fd5b50565b6000813590506141718161414b565b92915050565b6000806040838503121561418e5761418d613cfc565b5b600061419c85828601614162565b92505060206141ad85828601613d39565b9150509250929050565b6000602082840312156141cd576141cc613cfc565b5b60006141db84828501613d39565b91505092915050565b6141ed81614139565b82525050565b600060208201905061420860008301846141e4565b92915050565b6000806040838503121561422557614224613cfc565b5b600061423385828601613d39565b925050602061424485828601614162565b9150509250929050565b600081519050919050565b600082825260208201905092915050565b6000819050602082019050919050565b61428381613d06565b82525050565b61429281613f89565b82525050565b6060820160008201516142ae600085018261427a565b5060208201516142c1602085018261427a565b5060408201516142d46040850182614289565b50505050565b60006142e68383614298565b60608301905092915050565b6000602082019050919050565b600061430a8261424e565b6143148185614259565b935061431f8361426a565b8060005b8381101561435057815161433788826142da565b9750614342836142f2565b925050600181019050614323565b5085935050505092915050565b6000602082019050818103600083015261437781846142ff565b905092915050565b600081519050919050565b600082825260208201905092915050565b60005b838110156143b957808201518184015260208101905061439e565b838111156143c8576000848401525b50505050565b60006143d98261437f565b6143e3818561438a565b93506143f381856020860161439b565b6143fc81613d58565b840191505092915050565b6000602082019050818103600083015261442181846143ce565b905092915050565b61443281613ef0565b82525050565b600060208201905061444d6000830184614429565b92915050565b600081905092915050565b60006144698261437f565b6144738185614453565b935061448381856020860161439b565b80840191505092915050565b600061449b828461445e565b915081905092915050565b7f4e487b7100000000000000000000000000000000000000000000000000000000600052603260045260246000fd5b7f4e487b7100000000000000000000000000000000000000000000000000000000600052601160045260246000fd5b600061450f82613ef0565b915061451a83613ef0565b9250827fffffffffffffffffffffffffffffffffffffffffffffffffffffffffffffffff0382111561454f5761454e6144d5565b5b828201905092915050565b600061456582613ef0565b91507fffffffffffffffffffffffffffffffffffffffffffffffffffffffffffffffff821415614598576145976144d5565b5b600182019050919050565b60006145ae82613ef0565b91506145b983613ef0565b9250828210156145cc576145cb6144d5565b5b828203905092915050565b7f4e487b7100000000000000000000000000000000000000000000000000000000600052603160045260246000fd5b6000819050919050565b600061462b61462661462184613d06565b614606565b613ef0565b9050919050565b61463b81614610565b82525050565b60006020820190506146566000830184614632565b92915050565b600081905092915050565b61467081613d06565b82525050565b60006146828383614667565b60208301905092915050565b61469781613f89565b82525050565b60006146a9838361468e565b60208301905092915050565b6000820160008201516146c88482614676565b93505060208201516146da8482614676565b93505060408201516146ec848261469d565b935050505050565b600061470083836146b5565b60608301905092915050565b60006147178261424e565b614721818561465c565b935061472c8361426a565b8060005b8381101561475d57815161474488826146f4565b975061474f836142f2565b925050600181019050614730565b5085935050505092915050565b6000614776828461470c565b915081905092915050565b7f4e487b7100000000000000000000000000000000000000000000000000000000600052602260045260246000fd5b600060028204905060018216806147c857607f821691505b602082108114156147dc576147db614781565b5b50919050565b6147eb81613d06565b82525050565b600060208201905061480660008301846147e2565b92915050565b7f506f6f6c00000000000000000000000000000000000000000000000000000000600082015250565b600061484260048361438a565b915061484d8261480c565b602082019050919050565b6000604082019050818103600083015261487181614835565b905061488060208301846147e2565b92915050565b7f506f6f6c436f6e66696775726174696f6e000000000000000000000000000000600082015250565b60006148bc60118361438a565b91506148c782614886565b602082019050919050565b600060208201905081810360008301526148eb816148af565b9050919050565b60006148fd82613ef0565b915061490883613ef0565b9250817fffffffffffffffffffffffffffffffffffffffffffffffffffffffffffffffff0483118215151615614941576149406144d5565b5b828202905092915050565b7f4e487b7100000000000000000000000000000000000000000000000000000000600052601260045260246000fd5b600061498682613ef0565b915061499183613ef0565b9250826149a1576149a061494c565b5b828204905092915050565b6000819050919050565b60006149c1826149ac565b91506149cc836149ac565b9250817f7fffffffffffffffffffffffffffffffffffffffffffffffffffffffffffffff03831360008312151615614a0757614a066144d5565b5b817f8000000000000000000000000000000000000000000000000000000000000000038312600083121615614a3f57614a3e6144d5565b5b828201905092915050565b7f6d61726b65747300000000000000000000000000000000000000000000000000600082015250565b6000614a8060078361438a565b9150614a8b82614a4a565b602082019050919050565b7f6d75737420626520737570706c69656420696e207374726963746c792061736360008201527f656e64696e67206f726465720000000000000000000000000000000000000000602082015250565b6000614af2602c8361438a565b9150614afd82614a96565b604082019050919050565b60006040820190508181036000830152614b2181614a73565b90508181036020830152614b3481614ae5565b9050919050565b7f7765696768747300000000000000000000000000000000000000000000000000600082015250565b6000614b7160078361438a565b9150614b7c82614b3b565b602082019050919050565b7f776569676874206d757374206265206e6f6e2d7a65726f000000000000000000600082015250565b6000614bbd60178361438a565b9150614bc882614b87565b602082019050919050565b60006040820190508181036000830152614bec81614b64565b90508181036020830152614bff81614bb0565b9050919050565b6000614c1182613d06565b9150614c1c83613d06565b9250816fffffffffffffffffffffffffffffffff0483118215151615614c4557614c446144d5565b5b828202905092915050565b7f4d61726b65740000000000000000000000000000000000000000000000000000600082015250565b6000614c8660068361438a565b9150614c9182614c50565b602082019050919050565b60006040820190508181036000830152614cb581614c79565b9050614cc460208301846147e2565b92915050565b6000614cd582613f89565b9150614ce083613f89565b925082614cf057614cef61494c565b5b600160000383147fffffffffffffffffffffffffffffffff8000000000000000000000000000000083141615614d2957614d286144d5565b5b828205905092915050565b60008160011c9050919050565b6000808291508390505b6001851115614d8b57808604811115614d6757614d666144d5565b5b6001851615614d765780820291505b8081029050614d8485614d34565b9450614d4b565b94509492505050565b600082614da45760019050614e60565b81614db25760009050614e60565b8160018114614dc85760028114614dd257614e01565b6001915050614e60565b60ff841115614de457614de36144d5565b5b8360020a915084821115614dfb57614dfa6144d5565b5b50614e60565b5060208310610133831016604e8410600b8410161715614e365782820a905083811115614e3157614e306144d5565b5b614e60565b614e438484846001614d41565b92509050818404811115614e5a57614e596144d5565b5b81810290505b9392505050565b6000614e7282613ef0565b9150614e7d83613ef0565b9250614eaa7fffffffffffffffffffffffffffffffffffffffffffffffffffffffffffffffff8484614d94565b905092915050565b6000614ebd826149ac565b9150614ec8836149ac565b9250827f7fffffffffffffffffffffffffffffffffffffffffffffffffffffffffffffff0482116000841360008413161615614f0757614f066144d5565b5b817f80000000000000000000000000000000000000000000000000000000000000000583126000841260008413161615614f4457614f436144d5565b5b827f80000000000000000000000000000000000000000000000000000000000000000582126000841360008412161615614f8157614f806144d5565b5b827f7fffffffffffffffffffffffffffffffffffffffffffffffffffffffffffffff0582126000841260008412161615614fbe57614fbd6144d5565b5b828202905092915050565b6000614fd4826149ac565b9150614fdf836149ac565b925082614fef57614fee61494c565b5b600160000383147f800000000000000000000000000000000000000000000000000000000000000083141615615028576150276144d5565b5b828205905092915050565b600061503e82613f89565b915061504983613f89565b9250816f7fffffffffffffffffffffffffffffff03831360008312151615615074576150736144d5565b5b817fffffffffffffffffffffffffffffffff800000000000000000000000000000000383126000831216156150ac576150ab6144d5565b5b828201905092915050565b60006150c2826149ac565b91506150cd836149ac565b9250827f800000000000000000000000000000000000000000000000000000000000000001821260008412151615615108576151076144d5565b5b827f7fffffffffffffffffffffffffffffffffffffffffffffffffffffffffffffff0182136000841216156151405761513f6144d5565b5b828203905092915050565b600061515682613f89565b91507fffffffffffffffffffffffffffffffff80000000000000000000000000000000821415615189576151886144d5565b5b816000039050919050565b600061519f82613f89565b91506151aa83613f89565b9250827fffffffffffffffffffffffffffffffff80000000000000000000000000000000018212600084121516156151e5576151e46144d5565b5b826f7fffffffffffffffffffffffffffffff01821360008412161561520d5761520c6144d5565b5b828203905092915050565b7f6e6f20736861726573206f6e206163746f722072656d6f76616c000000000000600082015250565b600061524e601a8361438a565b915061525982615218565b602082019050919050565b6000602082019050818103600083015261527d81615241565b9050919050565b600061528f82613d06565b915061529a83613d06565b9250826fffffffffffffffffffffffffffffffff038211156152bf576152be6144d5565b5b828201905092915050565b60006152d582613d06565b91506152e083613d06565b9250828210156152f3576152f26144d5565b5b828203905092915050565b60008151905061530d81613efa565b92915050565b60006020828403121561532957615328613cfc565b5b6000615337848285016152fe565b91505092915050565b7f4f776e61626c6500000000000000000000000000000000000000000000000000600082015250565b600061537660078361438a565b915061538182615340565b602082019050919050565b600060208201905081810360008301526153a581615369565b9050919050565b60006153b782613d06565b91506fffffffffffffffffffffffffffffffff8214156153da576153d96144d5565b5b600182019050919050565b7f46656174757265466c6167000000000000000000000000000000000000000000600082015250565b600061541b600b8361438a565b9150615426826153e5565b602082019050919050565b6000819050919050565b61544481615431565b82525050565b600060408201905081810360008301526154638161540e565b9050615472602083018461543b565b92915050565b7f436f6c6c61746572616c436f6e66696775726174696f6e000000000000000000600082015250565b60006154ae60178361438a565b91506154b982615478565b602082019050919050565b600060408201905081810360008301526154dd816154a1565b90506154ec60208301846141e4565b92915050565b600069ffffffffffffffffffff82169050919050565b615511816154f2565b811461551c57600080fd5b50565b60008151905061552e81615508565b92915050565b61553d816149ac565b811461554857600080fd5b50565b60008151905061555a81615534565b92915050565b600080600080600060a0868803121561557c5761557b613cfc565b5b600061558a8882890161551f565b955050602061559b8882890161554b565b94505060406155ac888289016152fe565b93505060606155bd888289016152fe565b92505060806155ce8882890161551f565b9150509295509295909350565b7f54686520636f6c6c61746572616c2076616c7565206973203000000000000000600082015250565b600061561160198361438a565b915061561c826155db565b602082019050919050565b6000602082019050818103600083015261564081615604565b905091905056fea264697066735822122017729072e2109b61f43383c7fac74e040e59867a9d6d8c1fbd4d0b0bc87a8c8564736f6c634300080b0033",
  "linkReferences": {},
  "deployedLinkReferences": {}
}