{
  "_format": "hh-sol-artifact-1",
  "contractName": "PoolModule",
  "sourceName": "contracts/modules/core/PoolModule.sol",
  "abi": [
    {
      "inputs": [],
      "name": "EmptyDistribution",
      "type": "error"
    },
    {
      "inputs": [
        {
          "internalType": "string",
          "name": "incorrectParameter",
          "type": "string"
        },
        {
          "internalType": "string",
          "name": "help",
          "type": "string"
        }
      ],
      "name": "InvalidParameters",
      "type": "error"
    },
    {
      "inputs": [
        {
          "internalType": "uint128",
          "name": "marketId",
          "type": "uint128"
        }
      ],
      "name": "MarketNotFound",
      "type": "error"
    },
    {
      "inputs": [
        {
          "internalType": "uint128",
          "name": "poolId",
          "type": "uint128"
        }
      ],
      "name": "PoolAlreadyExists",
      "type": "error"
    },
    {
      "inputs": [
        {
          "internalType": "uint128",
          "name": "poolId",
          "type": "uint128"
        }
      ],
      "name": "PoolNotFound",
      "type": "error"
    },
    {
      "inputs": [
        {
          "internalType": "uint128",
          "name": "poolId",
          "type": "uint128"
        }
      ],
      "name": "PoolNotFound",
      "type": "error"
    },
    {
      "inputs": [
        {
          "internalType": "address",
          "name": "addr",
          "type": "address"
        }
      ],
      "name": "Unauthorized",
      "type": "error"
    },
    {
      "inputs": [],
      "name": "ZeroAddress",
      "type": "error"
    },
    {
      "anonymous": false,
      "inputs": [
        {
          "indexed": true,
          "internalType": "uint128",
          "name": "poolId",
          "type": "uint128"
        },
        {
          "indexed": true,
          "internalType": "address",
          "name": "owner",
          "type": "address"
        }
      ],
      "name": "NominatedPoolOwner",
      "type": "event"
    },
    {
      "anonymous": false,
      "inputs": [
        {
          "indexed": true,
          "internalType": "uint128",
          "name": "poolId",
          "type": "uint128"
        },
        {
          "indexed": true,
          "internalType": "uint128[]",
          "name": "markets",
          "type": "uint128[]"
        },
        {
          "indexed": true,
          "internalType": "uint256[]",
          "name": "weights",
          "type": "uint256[]"
        },
        {
          "indexed": false,
          "internalType": "address",
          "name": "executedBy",
          "type": "address"
        }
      ],
      "name": "PoolConfigurationSet",
      "type": "event"
    },
    {
      "anonymous": false,
      "inputs": [
        {
          "indexed": true,
          "internalType": "uint128",
          "name": "poolId",
          "type": "uint128"
        },
        {
          "indexed": true,
          "internalType": "address",
          "name": "owner",
          "type": "address"
        }
      ],
      "name": "PoolCreated",
      "type": "event"
    },
    {
      "anonymous": false,
      "inputs": [
        {
          "indexed": true,
          "internalType": "uint128",
          "name": "poolId",
          "type": "uint128"
        },
        {
          "indexed": true,
          "internalType": "string",
          "name": "name",
          "type": "string"
        },
        {
          "indexed": true,
          "internalType": "address",
          "name": "sender",
          "type": "address"
        }
      ],
      "name": "PoolNameUpdated",
      "type": "event"
    },
    {
      "anonymous": false,
      "inputs": [
        {
          "indexed": true,
          "internalType": "uint128",
          "name": "poolId",
          "type": "uint128"
        },
        {
          "indexed": true,
          "internalType": "address",
          "name": "owner",
          "type": "address"
        }
      ],
      "name": "PoolNominationRenounced",
      "type": "event"
    },
    {
      "anonymous": false,
      "inputs": [
        {
          "indexed": true,
          "internalType": "uint128",
          "name": "poolId",
          "type": "uint128"
        },
        {
          "indexed": true,
          "internalType": "address",
          "name": "owner",
          "type": "address"
        }
      ],
      "name": "PoolNominationRevoked",
      "type": "event"
    },
    {
      "anonymous": false,
      "inputs": [
        {
          "indexed": true,
          "internalType": "uint128",
          "name": "poolId",
          "type": "uint128"
        },
        {
          "indexed": true,
          "internalType": "address",
          "name": "owner",
          "type": "address"
        }
      ],
      "name": "PoolOwnershipAccepted",
      "type": "event"
    },
    {
      "anonymous": false,
      "inputs": [
        {
          "indexed": true,
          "internalType": "uint128",
          "name": "poolId",
          "type": "uint128"
        },
        {
          "indexed": true,
          "internalType": "address",
          "name": "owner",
          "type": "address"
        }
      ],
      "name": "PoolOwnershipRenounced",
      "type": "event"
    },
    {
      "inputs": [
        {
          "internalType": "uint128",
          "name": "poolId",
          "type": "uint128"
        }
      ],
      "name": "acceptPoolOwnership",
      "outputs": [],
      "stateMutability": "nonpayable",
      "type": "function"
    },
    {
      "inputs": [
        {
          "internalType": "uint128",
          "name": "requestedPoolId",
          "type": "uint128"
        },
        {
          "internalType": "address",
          "name": "owner",
          "type": "address"
        }
      ],
      "name": "createPool",
      "outputs": [],
      "stateMutability": "nonpayable",
      "type": "function"
    },
    {
      "inputs": [],
      "name": "getMinLiquidityRatio",
      "outputs": [
        {
          "internalType": "uint256",
          "name": "",
          "type": "uint256"
        }
      ],
      "stateMutability": "view",
      "type": "function"
    },
    {
      "inputs": [
        {
          "internalType": "uint128",
          "name": "poolId",
          "type": "uint128"
        }
      ],
      "name": "getNominatedPoolOwner",
      "outputs": [
        {
          "internalType": "address",
          "name": "",
          "type": "address"
        }
      ],
      "stateMutability": "view",
      "type": "function"
    },
    {
      "inputs": [
        {
          "internalType": "uint128",
          "name": "poolId",
          "type": "uint128"
        }
      ],
      "name": "getPoolConfiguration",
      "outputs": [
        {
          "internalType": "uint256[]",
          "name": "",
          "type": "uint256[]"
        },
        {
          "internalType": "uint256[]",
          "name": "",
          "type": "uint256[]"
        },
        {
          "internalType": "int256[]",
          "name": "",
          "type": "int256[]"
        }
      ],
      "stateMutability": "view",
      "type": "function"
    },
    {
      "inputs": [
        {
          "internalType": "uint128",
          "name": "poolId",
          "type": "uint128"
        }
      ],
      "name": "getPoolName",
      "outputs": [
        {
          "internalType": "string",
          "name": "poolName",
          "type": "string"
        }
      ],
      "stateMutability": "view",
      "type": "function"
    },
    {
      "inputs": [
        {
          "internalType": "uint128",
          "name": "poolId",
          "type": "uint128"
        }
      ],
      "name": "getPoolOwner",
      "outputs": [
        {
          "internalType": "address",
          "name": "",
          "type": "address"
        }
      ],
      "stateMutability": "view",
      "type": "function"
    },
    {
      "inputs": [
        {
          "internalType": "address",
          "name": "nominatedOwner",
          "type": "address"
        },
        {
          "internalType": "uint128",
          "name": "poolId",
          "type": "uint128"
        }
      ],
      "name": "nominatePoolOwner",
      "outputs": [],
      "stateMutability": "nonpayable",
      "type": "function"
    },
    {
      "inputs": [
        {
          "internalType": "uint128",
          "name": "poolId",
          "type": "uint128"
        }
      ],
      "name": "renouncePoolNomination",
      "outputs": [],
      "stateMutability": "nonpayable",
      "type": "function"
    },
    {
      "inputs": [
        {
          "internalType": "uint128",
          "name": "poolId",
          "type": "uint128"
        }
      ],
      "name": "renouncePoolOwnership",
      "outputs": [],
      "stateMutability": "nonpayable",
      "type": "function"
    },
    {
      "inputs": [
        {
          "internalType": "uint256",
          "name": "minLiquidityRatio",
          "type": "uint256"
        }
      ],
      "name": "setMinLiquidityRatio",
      "outputs": [],
      "stateMutability": "nonpayable",
      "type": "function"
    },
    {
      "inputs": [
        {
          "internalType": "uint128",
          "name": "poolId",
          "type": "uint128"
        },
        {
          "internalType": "uint128[]",
          "name": "markets",
          "type": "uint128[]"
        },
        {
          "internalType": "uint256[]",
          "name": "weights",
          "type": "uint256[]"
        },
        {
          "internalType": "int256[]",
          "name": "maxDebtShareValues",
          "type": "int256[]"
        }
      ],
      "name": "setPoolConfiguration",
      "outputs": [],
      "stateMutability": "nonpayable",
      "type": "function"
    },
    {
      "inputs": [
        {
          "internalType": "uint128",
          "name": "poolId",
          "type": "uint128"
        },
        {
          "internalType": "string",
          "name": "name",
          "type": "string"
        }
      ],
      "name": "setPoolName",
      "outputs": [],
      "stateMutability": "nonpayable",
      "type": "function"
    }
  ],
  "bytecode": "0x608060405234801561001057600080fd5b5061512f806100206000396000f3fe608060405234801561001057600080fd5b50600436106100cf5760003560e01c8063bbdd7c5a1161008c578063caab529b11610066578063caab529b146101f8578063efecf13714610214578063f86e6f9114610246578063fd85c1f814610276576100cf565b8063bbdd7c5a14610190578063c707a39f146101c0578063ca5bed77146101dc576100cf565b806311e72a43146100d457806334078a01146100f05780636141f7a21461010c57806370bed4d5146101285780637cc14a92146101445780639851af0114610160575b600080fd5b6100ee60048036038101906100e991906138d7565b610294565b005b61010a60048036038101906101059190613969565b610338565b005b610126600480360381019061012191906139f4565b610353565b005b610142600480360381019061013d9190613b40565b610402565b005b61015e60048036038101906101599190613c09565b610b9b565b005b61017a60048036038101906101759190613c09565b610c4a565b6040516101879190613c45565b60405180910390f35b6101aa60048036038101906101a59190613c09565b610c80565b6040516101b79190613c45565b60405180910390f35b6101da60048036038101906101d59190613c09565b610cb6565b005b6101f660048036038101906101f19190613c09565b610e38565b005b610212600480360381019061020d9190613c60565b610f77565b005b61022e60048036038101906102299190613c09565b6110b7565b60405161023d93929190613e26565b60405180910390f35b610260600480360381019061025b9190613c09565b611340565b60405161026d9190613efa565b60405180910390f35b61027e6113de565b60405161028b9190613f2b565b60405180910390f35b61029d826113f1565b6102a7823361143e565b806102b1836114de565b60010190805190602001906102c792919061361b565b503373ffffffffffffffffffffffffffffffffffffffff16816040516102ed9190613f82565b6040518091039020836fffffffffffffffffffffffffffffffff167f63b42abaf7e145a993f20bc64259f45d09c43d18838ab0bca078b15093ac55f460405160405180910390a45050565b610340611513565b8061034961158c565b6000018190555050565b61035d813361143e565b81610367826114de565b60030160006101000a81548173ffffffffffffffffffffffffffffffffffffffff021916908373ffffffffffffffffffffffffffffffffffffffff1602179055508173ffffffffffffffffffffffffffffffffffffffff16816fffffffffffffffffffffffffffffffff167f8003776a8bebc2616839b1bce6ab7fdb54516369d079fb0bb0550a1965989e6560405160405180910390a35050565b61040b876113f1565b610415873361143e565b83839050868690501415806104305750818190508686905014155b15610470576040517f01674a6b00000000000000000000000000000000000000000000000000000000815260040161046790614057565b60405180910390fd5b600061047b886114de565b9050610486816115bd565b60008060005b83600501805490508a8a9050106104aa5783600501805490506104af565b898990505b8210156106dd57806fffffffffffffffffffffffffffffffff168a8a848181106104dc576104db61408a565b5b90506020020160208101906104f19190613c09565b6fffffffffffffffffffffffffffffffff1611610543576040517f01674a6b00000000000000000000000000000000000000000000000000000000815260040161053a90614177565b60405180910390fd5b8989838181106105565761055561408a565b5b905060200201602081019061056b9190613c09565b905060008460050183815481106105855761058461408a565b5b906000526020600020906002020190508a8a848181106105a8576105a761408a565b5b90506020020160208101906105bd9190613c09565b8160000160006101000a8154816fffffffffffffffffffffffffffffffff02191690836fffffffffffffffffffffffffffffffff16021790555088888481811061060a5761060961408a565b5b905060200201358160000160106101000a8154816fffffffffffffffffffffffffffffffff02191690836fffffffffffffffffffffffffffffffff16021790555086868481811061065e5761065d61408a565b5b905060200201358160010160006101000a8154816fffffffffffffffffffffffffffffffff0219169083600f0b6fffffffffffffffffffffffffffffffff1602179055508888848181106106b5576106b461408a565b5b90506020020135846106c791906141d9565b93505081806106d59061422f565b92505061048c565b5b8989905082101561099e57806fffffffffffffffffffffffffffffffff168a8a8481811061070f5761070e61408a565b5b90506020020160208101906107249190613c09565b6fffffffffffffffffffffffffffffffff1611610776576040517f01674a6b00000000000000000000000000000000000000000000000000000000815260040161076d90614177565b60405180910390fd5b8989838181106107895761078861408a565b5b905060200201602081019061079e9190613c09565b90506107a86136a1565b8a8a848181106107bb576107ba61408a565b5b90506020020160208101906107d09190613c09565b81600001906fffffffffffffffffffffffffffffffff1690816fffffffffffffffffffffffffffffffff16815250508888848181106108125761081161408a565b5b9050602002013581602001906fffffffffffffffffffffffffffffffff1690816fffffffffffffffffffffffffffffffff168152505086868481811061085b5761085a61408a565b5b905060200201358160400190600f0b9081600f0b815250508460050181908060018154018082558091505060019003906000526020600020906002020160009091909190915060008201518160000160006101000a8154816fffffffffffffffffffffffffffffffff02191690836fffffffffffffffffffffffffffffffff16021790555060208201518160000160106101000a8154816fffffffffffffffffffffffffffffffff02191690836fffffffffffffffffffffffffffffffff16021790555060408201518160010160006101000a8154816fffffffffffffffffffffffffffffffff0219169083600f0b6fffffffffffffffffffffffffffffffff16021790555050508888848181106109765761097561408a565b5b905060200201358461098891906141d9565b93505081806109969061422f565b9250506106de565b5060008184600501805490506109b49190614278565b9050600091505b80821015610ad057610a2684600501600186600501805490506109de9190614278565b815481106109ef576109ee61408a565b5b906000526020600020906002020160000160009054906101000a90046fffffffffffffffffffffffffffffffff168c6000806115c9565b5083600501805480610a3b57610a3a6142ac565b5b6001900381819060005260206000209060020201600080820160006101000a8154906fffffffffffffffffffffffffffffffff02191690556000820160106101000a8154906fffffffffffffffffffffffffffffffff02191690556001820160006101000a8154906fffffffffffffffffffffffffffffffff0219169055505090558180610ac89061422f565b9250506109bb565b828460040160006101000a8154816fffffffffffffffffffffffffffffffff02191690836fffffffffffffffffffffffffffffffff160217905550610b1484611693565b8787604051610b24929190614347565b60405180910390208a8a604051610b3c92919061441d565b60405180910390208c6fffffffffffffffffffffffffffffffff167fe54d92cafb708503f606143c0070756dc4f4ec44c124a1765dfaacebf9fa0e0f33604051610b869190613c45565b60405180910390a45050505050505050505050565b610ba5813361143e565b6000610bb0826114de565b60030160006101000a81548173ffffffffffffffffffffffffffffffffffffffff021916908373ffffffffffffffffffffffffffffffffffffffff1602179055503373ffffffffffffffffffffffffffffffffffffffff16816fffffffffffffffffffffffffffffffff167f0d1df5c898ce9334fe91f342f5c07b0eea630d388f90b4e07e85753d6125273460405160405180910390a350565b6000610c55826114de565b60030160009054906101000a900473ffffffffffffffffffffffffffffffffffffffff169050919050565b6000610c8b826114de565b60020160009054906101000a900473ffffffffffffffffffffffffffffffffffffffff169050919050565b6000610cc1826114de565b90503373ffffffffffffffffffffffffffffffffffffffff168160030160009054906101000a900473ffffffffffffffffffffffffffffffffffffffff1673ffffffffffffffffffffffffffffffffffffffff1614610d5757336040517f8e4a23d6000000000000000000000000000000000000000000000000000000008152600401610d4e9190613c45565b60405180910390fd5b338160020160006101000a81548173ffffffffffffffffffffffffffffffffffffffff021916908373ffffffffffffffffffffffffffffffffffffffff16021790555060008160030160006101000a81548173ffffffffffffffffffffffffffffffffffffffff021916908373ffffffffffffffffffffffffffffffffffffffff1602179055503373ffffffffffffffffffffffffffffffffffffffff16826fffffffffffffffffffffffffffffffff167f4f86f2ce8b08e27d0e470f4269b71c3bbc68407d51a2e692f6573236074ebc5a60405160405180910390a35050565b6000610e43826114de565b90503373ffffffffffffffffffffffffffffffffffffffff168160030160009054906101000a900473ffffffffffffffffffffffffffffffffffffffff1673ffffffffffffffffffffffffffffffffffffffff1614610ed957336040517f8e4a23d6000000000000000000000000000000000000000000000000000000008152600401610ed09190613c45565b60405180910390fd5b60008160030160006101000a81548173ffffffffffffffffffffffffffffffffffffffff021916908373ffffffffffffffffffffffffffffffffffffffff1602179055503373ffffffffffffffffffffffffffffffffffffffff16826fffffffffffffffffffffffffffffffff167f28301da5fb0feefb138efa6310af4547a74f415d62616f90519436dc169c3ae060405160405180910390a35050565b610fa07f637265617465506f6f6c000000000000000000000000000000000000000000006118ef565b600073ffffffffffffffffffffffffffffffffffffffff168173ffffffffffffffffffffffffffffffffffffffff161415611007576040517fd92e233d00000000000000000000000000000000000000000000000000000000815260040160405180910390fd5b61101082611973565b1561105257816040517f2aa3ed120000000000000000000000000000000000000000000000000000000081526004016110499190614445565b60405180910390fd5b61105c82826119e7565b508073ffffffffffffffffffffffffffffffffffffffff16826fffffffffffffffffffffffffffffffff167f4dfd1dac627094e53abc04dd7243d9a095a40b99486b50296644f64deff98bbb60405160405180910390a35050565b606080606060006110c7856114de565b90506000816005018054905067ffffffffffffffff8111156110ec576110eb6137ac565b5b60405190808252806020026020018201604052801561111a5781602001602082028036833780820191505090505b5090506000826005018054905067ffffffffffffffff8111156111405761113f6137ac565b5b60405190808252806020026020018201604052801561116e5781602001602082028036833780820191505090505b5090506000836005018054905067ffffffffffffffff811115611194576111936137ac565b5b6040519080825280602002602001820160405280156111c25781602001602082028036833780820191505090505b50905060005b846005018054905081101561132b578460050181815481106111ed576111ec61408a565b5b906000526020600020906002020160000160009054906101000a90046fffffffffffffffffffffffffffffffff166fffffffffffffffffffffffffffffffff168482815181106112405761123f61408a565b5b6020026020010181815250508460050181815481106112625761126161408a565b5b906000526020600020906002020160000160109054906101000a90046fffffffffffffffffffffffffffffffff166fffffffffffffffffffffffffffffffff168382815181106112b5576112b461408a565b5b6020026020010181815250508460050181815481106112d7576112d661408a565b5b906000526020600020906002020160010160009054906101000a9004600f0b600f0b82828151811061130c5761130b61408a565b5b60200260200101818152505080806113239061422f565b9150506111c8565b50828282965096509650505050509193909250565b606061134b826114de565b60010180546113599061448f565b80601f01602080910402602001604051908101604052809291908181526020018280546113859061448f565b80156113d25780601f106113a7576101008083540402835291602001916113d2565b820191906000526020600020905b8154815290600101906020018083116113b557829003601f168201915b50505050509050919050565b60006113e861158c565b60000154905090565b6113fa81611973565b61143b57806040517f32b961eb0000000000000000000000000000000000000000000000000000000081526004016114329190614445565b60405180910390fd5b50565b8073ffffffffffffffffffffffffffffffffffffffff1661145e836114de565b60020160009054906101000a900473ffffffffffffffffffffffffffffffffffffffff1673ffffffffffffffffffffffffffffffffffffffff16146114da57806040517f8e4a23d60000000000000000000000000000000000000000000000000000000081526004016114d19190613c45565b60405180910390fd5b5050565b600080826040516020016114f2919061450d565b60405160208183030381529060405280519060200120905080915050919050565b61151b611a78565b73ffffffffffffffffffffffffffffffffffffffff163373ffffffffffffffffffffffffffffffffffffffff161461158a57336040517f8e4a23d60000000000000000000000000000000000000000000000000000000081526004016115819190613c45565b60405180910390fd5b565b60008060405160200161159e90614587565b6040516020818303038152906040528051906020012090508091505090565b6115c681611693565b50565b6000806115d586611aab565b9050600073ffffffffffffffffffffffffffffffffffffffff168160010160009054906101000a900473ffffffffffffffffffffffffffffffffffffffff1673ffffffffffffffffffffffffffffffffffffffff16141561166d57856040517ff080c1ea0000000000000000000000000000000000000000000000000000000081526004016116649190614445565b60405180910390fd5b61167c816402540be3ff611ae0565b61168881868587611f56565b915050949350505050565b60008160040160009054906101000a90046fffffffffffffffffffffffffffffffff166fffffffffffffffffffffffffffffffff16905060008114156116d957506118ec565b600082600601905060008360060160000160009054906101000a90046fffffffffffffffffffffffffffffffff16600f0b90506000805b85600501805490508110156118d35760008660050182815481106117375761173661408a565b5b9060005260206000209060020201905060008160000160109054906101000a90046fffffffffffffffffffffffffffffffff166fffffffffffffffffffffffffffffffff169050600080861361178e5760006117a6565b87828761179b91906145a7565b6117a59190614630565b5b905060006117d38460000160009054906101000a90046fffffffffffffffffffffffffffffffff16611aab565b9050600061182a8b838c878f60040160109054906101000a90046fffffffffffffffffffffffffffffffff166fffffffffffffffffffffffffffffffff1661181b91906145a7565b6118259190614630565b61228a565b90506118ae8560000160009054906101000a90046fffffffffffffffffffffffffffffffff168c60000160009054906101000a90046fffffffffffffffffffffffffffffffff168760010160009054906101000a9004600f0b600f0b84126118a6578760010160009054906101000a9004600f0b600f0b6118a8565b835b866115c9565b876118b99190614661565b9650505050505080806118cb9061422f565b915050611710565b506118e7818461234f90919063ffffffff16565b505050505b50565b60006118fa8261245c565b90508060010160009054906101000a900460ff16801561192d575061192b338260020161249190919063ffffffff16565b155b1561196f57336040517f8e4a23d60000000000000000000000000000000000000000000000000000000081526004016119669190613c45565b60405180910390fd5b5050565b600080826fffffffffffffffffffffffffffffffff1614806119e05750816fffffffffffffffffffffffffffffffff166119ac836114de565b60000160009054906101000a90046fffffffffffffffffffffffffffffffff166fffffffffffffffffffffffffffffffff16145b9050919050565b60006119f2836114de565b9050828160000160006101000a8154816fffffffffffffffffffffffffffffffff02191690836fffffffffffffffffffffffffffffffff160217905550818160020160006101000a81548173ffffffffffffffffffffffffffffffffffffffff021916908373ffffffffffffffffffffffffffffffffffffffff16021790555092915050565b6000611a826124c1565b60000160019054906101000a900473ffffffffffffffffffffffffffffffffffffffff16905090565b60008082604051602001611abf9190614741565b60405160208183030381529060405280519060200120905080915050919050565b600082600a0160000160009054906101000a90046fffffffffffffffffffffffffffffffff166fffffffffffffffffffffffffffffffff161415611b2357611f52565b6000611b2e836124f2565b905060008360030160009054906101000a9004600f0b600f0b9050600084600a0160000160009054906101000a90046fffffffffffffffffffffffffffffffff16600f0b601260ff16600a611b8391906148a2565b8385611b8f91906148ed565b611b999190614981565b611ba39190614a98565b633b9aca0086600a0160000160109054906101000a9004600f0b611bc79190614b0f565b600f0b611bd49190614661565b905060005b6000611be787600401612536565b118015611c0e575081611bfc87600401612569565b60200151611c0990614b79565b600f0b125b8015611c1957508481105b15611eee576000611c2c87600401612583565b90506000670de0b6b3a7640000633b9aca0089600a0160000160109054906101000a9004600f0b611c5d9190614b0f565b8360200151611c6b90614b79565b611c759190614bc2565b600f0b89600a0160000160009054906101000a90046fffffffffffffffffffffffffffffffff16600f0b611ca99190614981565b611cb39190614a98565b9050611ccb8189600a0161234f90919063ffffffff16565b8085611cd79190614661565b94506000611d0a83600001516fffffffffffffffffffffffffffffffff1660001b8a600a0161259d90919063ffffffff16565b11611d4a576040517f08c379a0000000000000000000000000000000000000000000000000000000008152600401611d4190614c92565b60405180910390fd5b6000611d7e83600001516fffffffffffffffffffffffffffffffff1660001b60008b600a016125ee9092919063ffffffff16565b90508089600c01600085600001516fffffffffffffffffffffffffffffffff166fffffffffffffffffffffffffffffffff1681526020019081526020016000206000828254611dcd9190614661565b92505081905550600089600a0160000160009054906101000a90046fffffffffffffffffffffffffffffffff166fffffffffffffffffffffffffffffffff161415611e5c57858960030160006101000a8154816fffffffffffffffffffffffffffffffff0219169083600f0b6fffffffffffffffffffffffffffffffff16021790555050505050505050611f52565b88600a0160000160009054906101000a90046fffffffffffffffffffffffffffffffff16600f0b601260ff16600a611e9491906148a2565b8789611ea091906148ed565b611eaa9190614981565b611eb49190614a98565b89600a0160000160109054906101000a9004600f0b600f0b611ed69190614661565b94505050508080611ee69061422f565b915050611bd9565b50611f108284611efe91906148ed565b86600a0161234f90919063ffffffff16565b828560030160006101000a8154816fffffffffffffffffffffffffffffffff0219169083600f0b6fffffffffffffffffffffffffffffffff1602179055505050505b5050565b600080611f84856fffffffffffffffffffffffffffffffff1660001b87600a0161259d90919063ffffffff16565b90506000611f9e86886004016127e390919063ffffffff16565b60200151611fab90614b79565b600f0b9050633b9aca0087600a0160000160109054906101000a9004600f0b611fd49190614b0f565b600f0b8413611ffd5760009450611ff7868860040161283690919063ffffffff16565b50612020565b61201e868561200b90614b79565b896004016128899092919063ffffffff16565b505b61204d866fffffffffffffffffffffffffffffffff1660001b8689600a016125ee9092919063ffffffff16565b87600c016000886fffffffffffffffffffffffffffffffff166fffffffffffffffffffffffffffffffff168152602001908152602001600020546120919190614661565b9250600087600c016000886fffffffffffffffffffffffffffffffff166fffffffffffffffffffffffffffffffff16815260200190815260200160002081905550633b9aca0087600a0160000160109054906101000a9004600f0b6120f69190614b0f565b600f0b8413156121a95761214485633b9aca0089600a0160000160109054906101000a9004600f0b6121289190614b0f565b600f0b8661213691906148ed565b61299990919063ffffffff16565b8760020160108282829054906101000a90046fffffffffffffffffffffffffffffffff166121729190614cb2565b92506101000a8154816fffffffffffffffffffffffffffffffff02191690836fffffffffffffffffffffffffffffffff1602179055505b633b9aca0087600a0160000160109054906101000a9004600f0b6121cd9190614b0f565b600f0b8113156122805761221b82633b9aca0089600a0160000160109054906101000a9004600f0b6121ff9190614b0f565b600f0b8361220d91906148ed565b61299990919063ffffffff16565b8760020160108282829054906101000a90046fffffffffffffffffffffffffffffffff166122499190614cf8565b92506101000a8154816fffffffffffffffffffffffffffffffff02191690836fffffffffffffffffffffffffffffffff1602179055505b5050949350505050565b60008061229561158c565b600001549050600081116122b957601260ff16600a6122b491906148a2565b612314565b6123138560060160000160009054906101000a90046fffffffffffffffffffffffffffffffff166fffffffffffffffffffffffffffffffff1661230583866129be90919063ffffffff16565b6129be90919063ffffffff16565b5b633b9aca0085600a0160000160109054906101000a9004600f0b6123389190614b0f565b600f0b6123459190614661565b9150509392505050565b600081141561235d57612458565b60008260000160009054906101000a90046fffffffffffffffffffffffffffffffff166fffffffffffffffffffffffffffffffff16905060008114156123cf576040517f3b182f5500000000000000000000000000000000000000000000000000000000815260040160405180910390fd5b60006b033b2e3c9fd0803ce8000000836123e99190614981565b9050600082826123f99190614a98565b9050808560000160108282829054906101000a9004600f0b61241b9190614d2c565b92506101000a8154816fffffffffffffffffffffffffffffffff0219169083600f0b6fffffffffffffffffffffffffffffffff1602179055505050505b5050565b600080826040516020016124709190614e15565b60405160208183030381529060405280519060200120905080915050919050565b60006124b9836000018373ffffffffffffffffffffffffffffffffffffffff1660001b6129e3565b905092915050565b6000806040516020016124d390614e8f565b6040516020818303038152906040528051906020012090508091505090565b60006124fd82612a06565b8260020160009054906101000a9004600f0b600f0b61251b84612b08565b6125259190614661565b61252f91906148ed565b9050919050565b60008082600101805490501161254d576000612562565b600182600101805490506125619190614278565b5b9050919050565b6125716136e9565b61257c826001612bcf565b9050919050565b61258b6136e9565b612596826001612cb1565b9050919050565b600082600101600083815260200190815260200160002060000160009054906101000a90046fffffffffffffffffffffffffffffffff166fffffffffffffffffffffffffffffffff16905092915050565b600080846001016000858152602001908152602001600020905060008160000160109054906101000a9004600f0b8660000160109054906101000a9004600f0b6126389190614bc2565b905060008260000160009054906101000a90046fffffffffffffffffffffffffffffffff16600f0b82600f0b61266e9190614981565b90506b033b2e3c9fd0803ce8000000816126889190614a98565b93508260000160009054906101000a90046fffffffffffffffffffffffffffffffff166fffffffffffffffffffffffffffffffff16858860000160009054906101000a90046fffffffffffffffffffffffffffffffff166fffffffffffffffffffffffffffffffff166126fb91906141d9565b6127059190614278565b8760000160006101000a8154816fffffffffffffffffffffffffffffffff02191690836fffffffffffffffffffffffffffffffff160217905550848360000160006101000a8154816fffffffffffffffffffffffffffffffff02191690836fffffffffffffffffffffffffffffffff16021790555060008514612799578660000160109054906101000a9004600f0b61279c565b60005b8360000160106101000a8154816fffffffffffffffffffffffffffffffff0219169083600f0b6fffffffffffffffffffffffffffffffff1602179055505050509392505050565b6127eb6136e9565b61282e83846002016000856fffffffffffffffffffffffffffffffff166fffffffffffffffffffffffffffffffff16815260200190815260200160002054612bcf565b905092915050565b61283e6136e9565b61288183846002016000856fffffffffffffffffffffffffffffffff166fffffffffffffffffffffffffffffffff16815260200190815260200160002054612cb1565b905092915050565b6128916136e9565b6000846001018054905014156128ab576128aa84612fba565b5b6128b36136e9565b6128bd8585612836565b5084600001600081819054906101000a90046fffffffffffffffffffffffffffffffff16809291906128ee90614eaf565b91906101000a8154816fffffffffffffffffffffffffffffffff02191690836fffffffffffffffffffffffffffffffff16021790555050846001016001816001815401808255809150500390600052602060002050506040518060400160405280856fffffffffffffffffffffffffffffffff16815260200184600f0b815250905061298e8582600188600101805490506129899190614278565b6130a6565b809150509392505050565b60006129b68383601260ff16600a6129b191906148a2565b6131d5565b905092915050565b60006129db83601260ff16600a6129d591906148a2565b846131d5565b905092915050565b600080836001016000848152602001908152602001600020541415905092915050565b6000806000905060005b83600d0180549050811015612afe57600084600d018281548110612a3757612a3661408a565b5b90600052602060002090600202016040518060400160405290816000820160009054906101000a900473ffffffffffffffffffffffffffffffffffffffff1673ffffffffffffffffffffffffffffffffffffffff1673ffffffffffffffffffffffffffffffffffffffff1681526020016001820154815250509050612add8160200151612acf612aca84600001516131fd565b613232565b61299990919063ffffffff16565b83612ae891906141d9565b9250508080612af69061422f565b915050612a10565b5080915050919050565b60008160010160009054906101000a900473ffffffffffffffffffffffffffffffffffffffff1673ffffffffffffffffffffffffffffffffffffffff1663bcec0d0f8360000160009054906101000a90046fffffffffffffffffffffffffffffffff166040518263ffffffff1660e01b8152600401612b879190614445565b602060405180830381865afa158015612ba4573d6000803e3d6000fd5b505050506040513d601f19601f82011682018060405250810190612bc89190614efd565b9050919050565b612bd76136e9565b81836001018054905011612c1657604051806040016040528060006fffffffffffffffffffffffffffffffff1681526020016000600f0b815250612ca9565b826001018281548110612c2c57612c2b61408a565b5b906000526020600020016040518060400160405290816000820160009054906101000a90046fffffffffffffffffffffffffffffffff166fffffffffffffffffffffffffffffffff166fffffffffffffffffffffffffffffffff1681526020016000820160109054906101000a9004600f0b600f0b600f0b815250505b905092915050565b612cb96136e9565b818360010180549050111580612cd0575060008211155b15612d0857604051806040016040528060006fffffffffffffffffffffffffffffffff1681526020016000600f0b8152509050612fb4565b6000836001018381548110612d2057612d1f61408a565b5b906000526020600020016040518060400160405290816000820160009054906101000a90046fffffffffffffffffffffffffffffffff166fffffffffffffffffffffffffffffffff166fffffffffffffffffffffffffffffffff1681526020016000820160109054906101000a9004600f0b600f0b600f0b81525050905083600201600082600001516fffffffffffffffffffffffffffffffff166fffffffffffffffffffffffffffffffff1681526020019081526020016000206000905560008460010160018660010180549050612df99190614278565b81548110612e0a57612e0961408a565b5b906000526020600020016040518060400160405290816000820160009054906101000a90046fffffffffffffffffffffffffffffffff166fffffffffffffffffffffffffffffffff166fffffffffffffffffffffffffffffffff1681526020016000820160109054906101000a9004600f0b600f0b600f0b81525050905084600101805480612e9c57612e9b6142ac565b5b60019003818190600052602060002001600080820160006101000a8154906fffffffffffffffffffffffffffffffff02191690556000820160106101000a8154906fffffffffffffffffffffffffffffffff0219169055505090558460010180549050841015612fae57612f118582866130a6565b612fad85866001018681548110612f2b57612f2a61408a565b5b906000526020600020016040518060400160405290816000820160009054906101000a90046fffffffffffffffffffffffffffffffff166fffffffffffffffffffffffffffffffff166fffffffffffffffffffffffffffffffff1681526020016000820160109054906101000a9004600f0b600f0b600f0b815250508661331a565b5b81925050505b92915050565b6000816001018054905014156130a35780600101604051806040016040528060006fffffffffffffffffffffffffffffffff1681526020016000600f0b8152509080600181540180825580915050600190039060005260206000200160009091909190915060008201518160000160006101000a8154816fffffffffffffffffffffffffffffffff02191690836fffffffffffffffffffffffffffffffff16021790555060208201518160000160106101000a8154816fffffffffffffffffffffffffffffffff0219169083600f0b6fffffffffffffffffffffffffffffffff16021790555050505b50565b60018114806130fb5750826001016002826130c19190614630565b815481106130d2576130d161408a565b5b9060005260206000200160000160109054906101000a9004600f0b600f0b8260200151600f0b13155b156131105761310b83838361352f565b6131d0565b6131b883846001016002846131259190614630565b815481106131365761313561408a565b5b906000526020600020016040518060400160405290816000820160009054906101000a90046fffffffffffffffffffffffffffffffff166fffffffffffffffffffffffffffffffff166fffffffffffffffffffffffffffffffff1681526020016000820160109054906101000a9004600f0b600f0b600f0b815250508361352f565b6131cf83836002846131ca9190614630565b6130a6565b5b505050565b600082840290508284820414841517821515166131f157600080fd5b81810490509392505050565b600080826040516020016132119190614f76565b60405160208183030381529060405280519060200120905080915050919050565b6000808260040160009054906101000a900473ffffffffffffffffffffffffffffffffffffffff1673ffffffffffffffffffffffffffffffffffffffff1663feaf968c6040518163ffffffff1660e01b815260040160a060405180830381865afa1580156132a4573d6000803e3d6000fd5b505050506040513d601f19601f820116820180604052508101906132c89190615012565b50505091505060008113613311576040517f08c379a0000000000000000000000000000000000000000000000000000000008152600401613308906150d9565b60405180910390fd5b80915050919050565b600083600101805490509050600060028361333591906145a7565b905080821161334e5761334985858561352f565b613528565b60008560010182815481106133665761336561408a565b5b906000526020600020016040518060400160405290816000820160009054906101000a90046fffffffffffffffffffffffffffffffff166fffffffffffffffffffffffffffffffff166fffffffffffffffffffffffffffffffff1681526020016000820160109054906101000a9004600f0b600f0b600f0b8152505090506001826133f191906141d9565b8311801561344457508060200151600f0b8660010160018461341391906141d9565b815481106134245761342361408a565b5b9060005260206000200160000160109054906101000a9004600f0b600f0b135b156134ea5785600101826134579061422f565b9250828154811061346b5761346a61408a565b5b906000526020600020016040518060400160405290816000820160009054906101000a90046fffffffffffffffffffffffffffffffff166fffffffffffffffffffffffffffffffff166fffffffffffffffffffffffffffffffff1681526020016000820160109054906101000a9004600f0b600f0b600f0b8152505090505b8460200151600f0b8160200151600f0b1361350f5761350a86868661352f565b613526565b61351a86828661352f565b61352586868461331a565b5b505b5050505050565b818360010182815481106135465761354561408a565b5b9060005260206000200160008201518160000160006101000a8154816fffffffffffffffffffffffffffffffff02191690836fffffffffffffffffffffffffffffffff16021790555060208201518160000160106101000a8154816fffffffffffffffffffffffffffffffff0219169083600f0b6fffffffffffffffffffffffffffffffff1602179055509050508083600201600084600001516fffffffffffffffffffffffffffffffff166fffffffffffffffffffffffffffffffff16815260200190815260200160002081905550505050565b8280546136279061448f565b90600052602060002090601f0160209004810192826136495760008555613690565b82601f1061366257805160ff1916838001178555613690565b82800160010185558215613690579182015b8281111561368f578251825591602001919060010190613674565b5b50905061369d9190613718565b5090565b604051806060016040528060006fffffffffffffffffffffffffffffffff16815260200160006fffffffffffffffffffffffffffffffff1681526020016000600f0b81525090565b604051806040016040528060006fffffffffffffffffffffffffffffffff1681526020016000600f0b81525090565b5b80821115613731576000816000905550600101613719565b5090565b6000604051905090565b600080fd5b600080fd5b60006fffffffffffffffffffffffffffffffff82169050919050565b61376e81613749565b811461377957600080fd5b50565b60008135905061378b81613765565b92915050565b600080fd5b600080fd5b6000601f19601f8301169050919050565b7f4e487b7100000000000000000000000000000000000000000000000000000000600052604160045260246000fd5b6137e48261379b565b810181811067ffffffffffffffff82111715613803576138026137ac565b5b80604052505050565b6000613816613735565b905061382282826137db565b919050565b600067ffffffffffffffff821115613842576138416137ac565b5b61384b8261379b565b9050602081019050919050565b82818337600083830152505050565b600061387a61387584613827565b61380c565b90508281526020810184848401111561389657613895613796565b5b6138a1848285613858565b509392505050565b600082601f8301126138be576138bd613791565b5b81356138ce848260208601613867565b91505092915050565b600080604083850312156138ee576138ed61373f565b5b60006138fc8582860161377c565b925050602083013567ffffffffffffffff81111561391d5761391c613744565b5b613929858286016138a9565b9150509250929050565b6000819050919050565b61394681613933565b811461395157600080fd5b50565b6000813590506139638161393d565b92915050565b60006020828403121561397f5761397e61373f565b5b600061398d84828501613954565b91505092915050565b600073ffffffffffffffffffffffffffffffffffffffff82169050919050565b60006139c182613996565b9050919050565b6139d1816139b6565b81146139dc57600080fd5b50565b6000813590506139ee816139c8565b92915050565b60008060408385031215613a0b57613a0a61373f565b5b6000613a19858286016139df565b9250506020613a2a8582860161377c565b9150509250929050565b600080fd5b600080fd5b60008083601f840112613a5457613a53613791565b5b8235905067ffffffffffffffff811115613a7157613a70613a34565b5b602083019150836020820283011115613a8d57613a8c613a39565b5b9250929050565b60008083601f840112613aaa57613aa9613791565b5b8235905067ffffffffffffffff811115613ac757613ac6613a34565b5b602083019150836020820283011115613ae357613ae2613a39565b5b9250929050565b60008083601f840112613b0057613aff613791565b5b8235905067ffffffffffffffff811115613b1d57613b1c613a34565b5b602083019150836020820283011115613b3957613b38613a39565b5b9250929050565b60008060008060008060006080888a031215613b5f57613b5e61373f565b5b6000613b6d8a828b0161377c565b975050602088013567ffffffffffffffff811115613b8e57613b8d613744565b5b613b9a8a828b01613a3e565b9650965050604088013567ffffffffffffffff811115613bbd57613bbc613744565b5b613bc98a828b01613a94565b9450945050606088013567ffffffffffffffff811115613bec57613beb613744565b5b613bf88a828b01613aea565b925092505092959891949750929550565b600060208284031215613c1f57613c1e61373f565b5b6000613c2d8482850161377c565b91505092915050565b613c3f816139b6565b82525050565b6000602082019050613c5a6000830184613c36565b92915050565b60008060408385031215613c7757613c7661373f565b5b6000613c858582860161377c565b9250506020613c96858286016139df565b9150509250929050565b600081519050919050565b600082825260208201905092915050565b6000819050602082019050919050565b613cd581613933565b82525050565b6000613ce78383613ccc565b60208301905092915050565b6000602082019050919050565b6000613d0b82613ca0565b613d158185613cab565b9350613d2083613cbc565b8060005b83811015613d51578151613d388882613cdb565b9750613d4383613cf3565b925050600181019050613d24565b5085935050505092915050565b600081519050919050565b600082825260208201905092915050565b6000819050602082019050919050565b6000819050919050565b613d9d81613d8a565b82525050565b6000613daf8383613d94565b60208301905092915050565b6000602082019050919050565b6000613dd382613d5e565b613ddd8185613d69565b9350613de883613d7a565b8060005b83811015613e19578151613e008882613da3565b9750613e0b83613dbb565b925050600181019050613dec565b5085935050505092915050565b60006060820190508181036000830152613e408186613d00565b90508181036020830152613e548185613d00565b90508181036040830152613e688184613dc8565b9050949350505050565b600081519050919050565b600082825260208201905092915050565b60005b83811015613eac578082015181840152602081019050613e91565b83811115613ebb576000848401525b50505050565b6000613ecc82613e72565b613ed68185613e7d565b9350613ee6818560208601613e8e565b613eef8161379b565b840191505092915050565b60006020820190508181036000830152613f148184613ec1565b905092915050565b613f2581613933565b82525050565b6000602082019050613f406000830184613f1c565b92915050565b600081905092915050565b6000613f5c82613e72565b613f668185613f46565b9350613f76818560208601613e8e565b80840191505092915050565b6000613f8e8284613f51565b915081905092915050565b7f6d61726b6574732e6c656e6774682c776569676874732e6c656e6774682c6d6160008201527f7844656274536861726556616c7565732e6c656e677468000000000000000000602082015250565b6000613ff5603783613e7d565b915061400082613f99565b604082019050919050565b7f6d757374206d6174636800000000000000000000000000000000000000000000600082015250565b6000614041600a83613e7d565b915061404c8261400b565b602082019050919050565b6000604082019050818103600083015261407081613fe8565b9050818103602083015261408381614034565b9050919050565b7f4e487b7100000000000000000000000000000000000000000000000000000000600052603260045260246000fd5b7f6d61726b65747300000000000000000000000000000000000000000000000000600082015250565b60006140ef600783613e7d565b91506140fa826140b9565b602082019050919050565b7f6d75737420626520737570706c69656420696e207374726963746c792061736360008201527f656e64696e67206f726465720000000000000000000000000000000000000000602082015250565b6000614161602c83613e7d565b915061416c82614105565b604082019050919050565b60006040820190508181036000830152614190816140e2565b905081810360208301526141a381614154565b9050919050565b7f4e487b7100000000000000000000000000000000000000000000000000000000600052601160045260246000fd5b60006141e482613933565b91506141ef83613933565b9250827fffffffffffffffffffffffffffffffffffffffffffffffffffffffffffffffff03821115614224576142236141aa565b5b828201905092915050565b600061423a82613933565b91507fffffffffffffffffffffffffffffffffffffffffffffffffffffffffffffffff82141561426d5761426c6141aa565b5b600182019050919050565b600061428382613933565b915061428e83613933565b9250828210156142a1576142a06141aa565b5b828203905092915050565b7f4e487b7100000000000000000000000000000000000000000000000000000000600052603160045260246000fd5b600081905092915050565b600080fd5b60006142f783856142db565b93507f07ffffffffffffffffffffffffffffffffffffffffffffffffffffffffffffff83111561432a576143296142e6565b5b60208302925061433b838584613858565b82840190509392505050565b60006143548284866142eb565b91508190509392505050565b600081905092915050565b6000819050919050565b61437e81613749565b82525050565b60006143908383614375565b60208301905092915050565b60006143ab602084018461377c565b905092915050565b6000602082019050919050565b60006143cc8385614360565b93506143d78261436b565b8060005b85811015614410576143ed828461439c565b6143f78882614384565b9750614402836143b3565b9250506001810190506143db565b5085925050509392505050565b600061442a8284866143c0565b91508190509392505050565b61443f81613749565b82525050565b600060208201905061445a6000830184614436565b92915050565b7f4e487b7100000000000000000000000000000000000000000000000000000000600052602260045260246000fd5b600060028204905060018216806144a757607f821691505b602082108114156144bb576144ba614460565b5b50919050565b7f506f6f6c00000000000000000000000000000000000000000000000000000000600082015250565b60006144f7600483613e7d565b9150614502826144c1565b602082019050919050565b60006040820190508181036000830152614526816144ea565b90506145356020830184614436565b92915050565b7f506f6f6c436f6e66696775726174696f6e000000000000000000000000000000600082015250565b6000614571601183613e7d565b915061457c8261453b565b602082019050919050565b600060208201905081810360008301526145a081614564565b9050919050565b60006145b282613933565b91506145bd83613933565b9250817fffffffffffffffffffffffffffffffffffffffffffffffffffffffffffffffff04831182151516156145f6576145f56141aa565b5b828202905092915050565b7f4e487b7100000000000000000000000000000000000000000000000000000000600052601260045260246000fd5b600061463b82613933565b915061464683613933565b92508261465657614655614601565b5b828204905092915050565b600061466c82613d8a565b915061467783613d8a565b9250817f7fffffffffffffffffffffffffffffffffffffffffffffffffffffffffffffff038313600083121516156146b2576146b16141aa565b5b817f80000000000000000000000000000000000000000000000000000000000000000383126000831216156146ea576146e96141aa565b5b828201905092915050565b7f4d61726b65740000000000000000000000000000000000000000000000000000600082015250565b600061472b600683613e7d565b9150614736826146f5565b602082019050919050565b6000604082019050818103600083015261475a8161471e565b90506147696020830184614436565b92915050565b60008160011c9050919050565b6000808291508390505b60018511156147c6578086048111156147a2576147a16141aa565b5b60018516156147b15780820291505b80810290506147bf8561476f565b9450614786565b94509492505050565b6000826147df576001905061489b565b816147ed576000905061489b565b8160018114614803576002811461480d5761483c565b600191505061489b565b60ff84111561481f5761481e6141aa565b5b8360020a915084821115614836576148356141aa565b5b5061489b565b5060208310610133831016604e8410600b84101617156148715782820a90508381111561486c5761486b6141aa565b5b61489b565b61487e848484600161477c565b92509050818404811115614895576148946141aa565b5b81810290505b9392505050565b60006148ad82613933565b91506148b883613933565b92506148e57fffffffffffffffffffffffffffffffffffffffffffffffffffffffffffffffff84846147cf565b905092915050565b60006148f882613d8a565b915061490383613d8a565b9250827f80000000000000000000000000000000000000000000000000000000000000000182126000841215161561493e5761493d6141aa565b5b827f7fffffffffffffffffffffffffffffffffffffffffffffffffffffffffffffff018213600084121615614976576149756141aa565b5b828203905092915050565b600061498c82613d8a565b915061499783613d8a565b9250827f7fffffffffffffffffffffffffffffffffffffffffffffffffffffffffffffff04821160008413600084131616156149d6576149d56141aa565b5b817f80000000000000000000000000000000000000000000000000000000000000000583126000841260008413161615614a1357614a126141aa565b5b827f80000000000000000000000000000000000000000000000000000000000000000582126000841360008412161615614a5057614a4f6141aa565b5b827f7fffffffffffffffffffffffffffffffffffffffffffffffffffffffffffffff0582126000841260008412161615614a8d57614a8c6141aa565b5b828202905092915050565b6000614aa382613d8a565b9150614aae83613d8a565b925082614abe57614abd614601565b5b600160000383147f800000000000000000000000000000000000000000000000000000000000000083141615614af757614af66141aa565b5b828205905092915050565b600081600f0b9050919050565b6000614b1a82614b02565b9150614b2583614b02565b925082614b3557614b34614601565b5b600160000383147fffffffffffffffffffffffffffffffff8000000000000000000000000000000083141615614b6e57614b6d6141aa565b5b828205905092915050565b6000614b8482614b02565b91507fffffffffffffffffffffffffffffffff80000000000000000000000000000000821415614bb757614bb66141aa565b5b816000039050919050565b6000614bcd82614b02565b9150614bd883614b02565b9250827fffffffffffffffffffffffffffffffff8000000000000000000000000000000001821260008412151615614c1357614c126141aa565b5b826f7fffffffffffffffffffffffffffffff018213600084121615614c3b57614c3a6141aa565b5b828203905092915050565b7f6e6f20736861726573206f6e206163746f722072656d6f76616c000000000000600082015250565b6000614c7c601a83613e7d565b9150614c8782614c46565b602082019050919050565b60006020820190508181036000830152614cab81614c6f565b9050919050565b6000614cbd82613749565b9150614cc883613749565b9250826fffffffffffffffffffffffffffffffff03821115614ced57614cec6141aa565b5b828201905092915050565b6000614d0382613749565b9150614d0e83613749565b925082821015614d2157614d206141aa565b5b828203905092915050565b6000614d3782614b02565b9150614d4283614b02565b9250816f7fffffffffffffffffffffffffffffff03831360008312151615614d6d57614d6c6141aa565b5b817fffffffffffffffffffffffffffffffff80000000000000000000000000000000038312600083121615614da557614da46141aa565b5b828201905092915050565b7f46656174757265466c6167000000000000000000000000000000000000000000600082015250565b6000614de6600b83613e7d565b9150614df182614db0565b602082019050919050565b6000819050919050565b614e0f81614dfc565b82525050565b60006040820190508181036000830152614e2e81614dd9565b9050614e3d6020830184614e06565b92915050565b7f4f776e61626c6500000000000000000000000000000000000000000000000000600082015250565b6000614e79600783613e7d565b9150614e8482614e43565b602082019050919050565b60006020820190508181036000830152614ea881614e6c565b9050919050565b6000614eba82613749565b91506fffffffffffffffffffffffffffffffff821415614edd57614edc6141aa565b5b600182019050919050565b600081519050614ef78161393d565b92915050565b600060208284031215614f1357614f1261373f565b5b6000614f2184828501614ee8565b91505092915050565b7f436f6c6c61746572616c436f6e66696775726174696f6e000000000000000000600082015250565b6000614f60601783613e7d565b9150614f6b82614f2a565b602082019050919050565b60006040820190508181036000830152614f8f81614f53565b9050614f9e6020830184613c36565b92915050565b600069ffffffffffffffffffff82169050919050565b614fc381614fa4565b8114614fce57600080fd5b50565b600081519050614fe081614fba565b92915050565b614fef81613d8a565b8114614ffa57600080fd5b50565b60008151905061500c81614fe6565b92915050565b600080600080600060a0868803121561502e5761502d61373f565b5b600061503c88828901614fd1565b955050602061504d88828901614ffd565b945050604061505e88828901614ee8565b935050606061506f88828901614ee8565b925050608061508088828901614fd1565b9150509295509295909350565b7f54686520636f6c6c61746572616c2076616c7565206973203000000000000000600082015250565b60006150c3601983613e7d565b91506150ce8261508d565b602082019050919050565b600060208201905081810360008301526150f2816150b6565b905091905056fea2646970667358221220fa4acc4fcf4ef5fa74b898e2d367873c1aae371ef419bae090e8759776c3df6464736f6c634300080b0033",
  "linkReferences": {},
  "deployedLinkReferences": {}
}