{
  "_format": "hh-sol-artifact-1",
  "contractName": "PoolModule",
  "sourceName": "contracts/modules/core/PoolModule.sol",
  "abi": [
    {
      "inputs": [
        {
          "internalType": "uint256",
          "name": "marketId",
          "type": "uint256"
        }
      ],
      "name": "CapacityLocked",
      "type": "error"
    },
    {
      "inputs": [],
      "name": "EmptyDistribution",
      "type": "error"
    },
    {
      "inputs": [],
      "name": "FeatureUnavailable",
      "type": "error"
    },
    {
      "inputs": [
        {
          "internalType": "string",
          "name": "incorrectParameter",
          "type": "string"
        },
        {
          "internalType": "string",
          "name": "help",
          "type": "string"
        }
      ],
      "name": "InvalidParameters",
      "type": "error"
    },
    {
      "inputs": [
        {
          "internalType": "uint128",
          "name": "marketId",
          "type": "uint128"
        }
      ],
      "name": "MarketNotFound",
      "type": "error"
    },
    {
      "inputs": [
        {
          "internalType": "uint128",
          "name": "poolId",
          "type": "uint128"
        }
      ],
      "name": "PoolAlreadyExists",
      "type": "error"
    },
    {
      "inputs": [
        {
          "internalType": "uint128",
          "name": "poolId",
          "type": "uint128"
        }
      ],
      "name": "PoolNotFound",
      "type": "error"
    },
    {
      "inputs": [
        {
          "internalType": "uint128",
          "name": "poolId",
          "type": "uint128"
        }
      ],
      "name": "PoolNotFound",
      "type": "error"
    },
    {
      "inputs": [
        {
          "internalType": "address",
          "name": "addr",
          "type": "address"
        }
      ],
      "name": "Unauthorized",
      "type": "error"
    },
    {
      "inputs": [],
      "name": "ZeroAddress",
      "type": "error"
    },
    {
      "anonymous": false,
      "inputs": [
        {
          "indexed": true,
          "internalType": "uint128",
          "name": "poolId",
          "type": "uint128"
        },
        {
          "indexed": true,
          "internalType": "address",
          "name": "owner",
          "type": "address"
        }
      ],
      "name": "NominatedPoolOwner",
      "type": "event"
    },
    {
      "anonymous": false,
      "inputs": [
        {
          "indexed": true,
          "internalType": "uint128",
          "name": "poolId",
          "type": "uint128"
        },
        {
          "components": [
            {
              "internalType": "uint128",
              "name": "market",
              "type": "uint128"
            },
            {
              "internalType": "uint128",
              "name": "weight",
              "type": "uint128"
            },
            {
              "internalType": "int128",
              "name": "maxDebtShareValue",
              "type": "int128"
            }
          ],
          "indexed": false,
          "internalType": "struct MarketConfiguration.Data[]",
          "name": "markets",
          "type": "tuple[]"
        },
        {
          "indexed": true,
          "internalType": "address",
          "name": "sender",
          "type": "address"
        }
      ],
      "name": "PoolConfigurationSet",
      "type": "event"
    },
    {
      "anonymous": false,
      "inputs": [
        {
          "indexed": true,
          "internalType": "uint128",
          "name": "poolId",
          "type": "uint128"
        },
        {
          "indexed": true,
          "internalType": "address",
          "name": "owner",
          "type": "address"
        }
      ],
      "name": "PoolCreated",
      "type": "event"
    },
    {
      "anonymous": false,
      "inputs": [
        {
          "indexed": true,
          "internalType": "uint128",
          "name": "poolId",
          "type": "uint128"
        },
        {
          "indexed": true,
          "internalType": "string",
          "name": "name",
          "type": "string"
        },
        {
          "indexed": true,
          "internalType": "address",
          "name": "sender",
          "type": "address"
        }
      ],
      "name": "PoolNameUpdated",
      "type": "event"
    },
    {
      "anonymous": false,
      "inputs": [
        {
          "indexed": true,
          "internalType": "uint128",
          "name": "poolId",
          "type": "uint128"
        },
        {
          "indexed": true,
          "internalType": "address",
          "name": "owner",
          "type": "address"
        }
      ],
      "name": "PoolNominationRenounced",
      "type": "event"
    },
    {
      "anonymous": false,
      "inputs": [
        {
          "indexed": true,
          "internalType": "uint128",
          "name": "poolId",
          "type": "uint128"
        },
        {
          "indexed": true,
          "internalType": "address",
          "name": "owner",
          "type": "address"
        }
      ],
      "name": "PoolNominationRevoked",
      "type": "event"
    },
    {
      "anonymous": false,
      "inputs": [
        {
          "indexed": true,
          "internalType": "uint128",
          "name": "poolId",
          "type": "uint128"
        },
        {
          "indexed": true,
          "internalType": "address",
          "name": "owner",
          "type": "address"
        }
      ],
      "name": "PoolOwnershipAccepted",
      "type": "event"
    },
    {
      "anonymous": false,
      "inputs": [
        {
          "indexed": true,
          "internalType": "uint128",
          "name": "poolId",
          "type": "uint128"
        },
        {
          "indexed": true,
          "internalType": "address",
          "name": "owner",
          "type": "address"
        }
      ],
      "name": "PoolOwnershipRenounced",
      "type": "event"
    },
    {
      "inputs": [
        {
          "internalType": "uint128",
          "name": "poolId",
          "type": "uint128"
        }
      ],
      "name": "acceptPoolOwnership",
      "outputs": [],
      "stateMutability": "nonpayable",
      "type": "function"
    },
    {
      "inputs": [
        {
          "internalType": "uint128",
          "name": "requestedPoolId",
          "type": "uint128"
        },
        {
          "internalType": "address",
          "name": "owner",
          "type": "address"
        }
      ],
      "name": "createPool",
      "outputs": [],
      "stateMutability": "nonpayable",
      "type": "function"
    },
    {
      "inputs": [],
      "name": "getMinLiquidityRatio",
      "outputs": [
        {
          "internalType": "uint256",
          "name": "",
          "type": "uint256"
        }
      ],
      "stateMutability": "view",
      "type": "function"
    },
    {
      "inputs": [
        {
          "internalType": "uint128",
          "name": "poolId",
          "type": "uint128"
        }
      ],
      "name": "getNominatedPoolOwner",
      "outputs": [
        {
          "internalType": "address",
          "name": "",
          "type": "address"
        }
      ],
      "stateMutability": "view",
      "type": "function"
    },
    {
      "inputs": [
        {
          "internalType": "uint128",
          "name": "poolId",
          "type": "uint128"
        }
      ],
      "name": "getPoolConfiguration",
      "outputs": [
        {
          "components": [
            {
              "internalType": "uint128",
              "name": "market",
              "type": "uint128"
            },
            {
              "internalType": "uint128",
              "name": "weight",
              "type": "uint128"
            },
            {
              "internalType": "int128",
              "name": "maxDebtShareValue",
              "type": "int128"
            }
          ],
          "internalType": "struct MarketConfiguration.Data[]",
          "name": "",
          "type": "tuple[]"
        }
      ],
      "stateMutability": "view",
      "type": "function"
    },
    {
      "inputs": [
        {
          "internalType": "uint128",
          "name": "poolId",
          "type": "uint128"
        }
      ],
      "name": "getPoolName",
      "outputs": [
        {
          "internalType": "string",
          "name": "poolName",
          "type": "string"
        }
      ],
      "stateMutability": "view",
      "type": "function"
    },
    {
      "inputs": [
        {
          "internalType": "uint128",
          "name": "poolId",
          "type": "uint128"
        }
      ],
      "name": "getPoolOwner",
      "outputs": [
        {
          "internalType": "address",
          "name": "",
          "type": "address"
        }
      ],
      "stateMutability": "view",
      "type": "function"
    },
    {
      "inputs": [
        {
          "internalType": "address",
          "name": "nominatedOwner",
          "type": "address"
        },
        {
          "internalType": "uint128",
          "name": "poolId",
          "type": "uint128"
        }
      ],
      "name": "nominatePoolOwner",
      "outputs": [],
      "stateMutability": "nonpayable",
      "type": "function"
    },
    {
      "inputs": [
        {
          "internalType": "uint128",
          "name": "poolId",
          "type": "uint128"
        }
      ],
      "name": "renouncePoolNomination",
      "outputs": [],
      "stateMutability": "nonpayable",
      "type": "function"
    },
    {
      "inputs": [
        {
          "internalType": "uint128",
          "name": "poolId",
          "type": "uint128"
        }
      ],
      "name": "renouncePoolOwnership",
      "outputs": [],
      "stateMutability": "nonpayable",
      "type": "function"
    },
    {
      "inputs": [
        {
          "internalType": "uint256",
          "name": "minLiquidityRatio",
          "type": "uint256"
        }
      ],
      "name": "setMinLiquidityRatio",
      "outputs": [],
      "stateMutability": "nonpayable",
      "type": "function"
    },
    {
      "inputs": [
        {
          "internalType": "uint128",
          "name": "poolId",
          "type": "uint128"
        },
        {
          "components": [
            {
              "internalType": "uint128",
              "name": "market",
              "type": "uint128"
            },
            {
              "internalType": "uint128",
              "name": "weight",
              "type": "uint128"
            },
            {
              "internalType": "int128",
              "name": "maxDebtShareValue",
              "type": "int128"
            }
          ],
          "internalType": "struct MarketConfiguration.Data[]",
          "name": "newDistributions",
          "type": "tuple[]"
        }
      ],
      "name": "setPoolConfiguration",
      "outputs": [],
      "stateMutability": "nonpayable",
      "type": "function"
    },
    {
      "inputs": [
        {
          "internalType": "uint128",
          "name": "poolId",
          "type": "uint128"
        },
        {
          "internalType": "string",
          "name": "name",
          "type": "string"
        }
      ],
      "name": "setPoolName",
      "outputs": [],
      "stateMutability": "nonpayable",
      "type": "function"
    }
  ],
  "bytecode": "0x608060405234801561001057600080fd5b50615559806100206000396000f3fe608060405234801561001057600080fd5b50600436106100cf5760003560e01c8063bbdd7c5a1161008c578063caab529b11610066578063caab529b146101f8578063efecf13714610214578063f86e6f9114610244578063fd85c1f814610274576100cf565b8063bbdd7c5a14610190578063c707a39f146101c0578063ca5bed77146101dc576100cf565b806311e72a43146100d457806334078a01146100f05780635d8c88441461010c5780636141f7a2146101285780637cc14a92146101445780639851af0114610160575b600080fd5b6100ee60048036038101906100e99190613e95565b610292565b005b61010a60048036038101906101059190613f27565b610336565b005b610126600480360381019061012191906140be565b610351565b005b610142600480360381019061013d9190614178565b61094c565b005b61015e600480360381019061015991906141b8565b6109fb565b005b61017a600480360381019061017591906141b8565b610aaa565b60405161018791906141f4565b60405180910390f35b6101aa60048036038101906101a591906141b8565b610ae0565b6040516101b791906141f4565b60405180910390f35b6101da60048036038101906101d591906141b8565b610b16565b005b6101f660048036038101906101f191906141b8565b610c98565b005b610212600480360381019061020d919061420f565b610dd7565b005b61022e600480360381019061022991906141b8565b610ecc565b60405161023b919061435e565b60405180910390f35b61025e600480360381019061025991906141b8565b611068565b60405161026b9190614408565b60405180910390f35b61027c611106565b6040516102899190614439565b60405180910390f35b61029b82611119565b6102a58233611166565b806102af83611206565b60010190805190602001906102c5929190613bd9565b503373ffffffffffffffffffffffffffffffffffffffff16816040516102eb9190614490565b6040518091039020836fffffffffffffffffffffffffffffffff167f63b42abaf7e145a993f20bc64259f45d09c43d18838ab0bca078b15093ac55f460405160405180910390a45050565b61033e61123b565b806103476112b4565b6000018190555050565b61035a82611119565b6103648233611166565b600061036f83611206565b905061037a816112e5565b600080610387838561153c565b915091506000805b84600501805490508651106103ab5784600501805490506103ae565b85515b811015610508578581815181106103c8576103c76144a7565b5b60200260200101518560050182815481106103e6576103e56144a7565b5b906000526020600020906002020160008201518160000160006101000a8154816fffffffffffffffffffffffffffffffff02191690836fffffffffffffffffffffffffffffffff16021790555060208201518160000160106101000a8154816fffffffffffffffffffffffffffffffff02191690836fffffffffffffffffffffffffffffffff16021790555060408201518160010160006101000a8154816fffffffffffffffffffffffffffffffff0219169083600f0b6fffffffffffffffffffffffffffffffff1602179055509050508581815181106104ca576104c96144a7565b5b6020026020010151602001516fffffffffffffffffffffffffffffffff16826104f39190614505565b915080806105009061455b565b91505061038f565b5b855181101561066d5784600501868281518110610529576105286144a7565b5b6020026020010151908060018154018082558091505060019003906000526020600020906002020160009091909190915060008201518160000160006101000a8154816fffffffffffffffffffffffffffffffff02191690836fffffffffffffffffffffffffffffffff16021790555060208201518160000160106101000a8154816fffffffffffffffffffffffffffffffff02191690836fffffffffffffffffffffffffffffffff16021790555060408201518160010160006101000a8154816fffffffffffffffffffffffffffffffff0219169083600f0b6fffffffffffffffffffffffffffffffff160217905550505085818151811061062f5761062e6144a7565b5b6020026020010151602001516fffffffffffffffffffffffffffffffff16826106589190614505565b915080806106659061455b565b915050610509565b600081866005018054905061068291906145a4565b9050600091505b8082101561073a57856005018054806106a5576106a46145d8565b5b6001900381819060005260206000209060020201600080820160006101000a8154906fffffffffffffffffffffffffffffffff02191690556000820160106101000a8154906fffffffffffffffffffffffffffffffff02191690556001820160006101000a8154906fffffffffffffffffffffffffffffffff02191690555050905581806107329061455b565b925050610689565b600091505b83518210801561077c5750600084838151811061075f5761075e6144a7565b5b60200260200101516fffffffffffffffffffffffffffffffff1614155b156107bc576107a8848381518110610797576107966144a7565b5b602002602001015189600080611c87565b5081806107b49061455b565b92505061073f565b828660040160006101000a8154816fffffffffffffffffffffffffffffffff02191690836fffffffffffffffffffffffffffffffff160217905550610800866112e5565b600091505b84518210801561084257506000858381518110610825576108246144a7565b5b60200260200101516fffffffffffffffffffffffffffffffff1614155b156108e15761087261086d8684815181106108605761085f6144a7565b5b6020026020010151611d51565b611d86565b156108ce5784828151811061088a576108896144a7565b5b60200260200101516040517f91b9419f0000000000000000000000000000000000000000000000000000000081526004016108c59190614642565b60405180910390fd5b81806108d99061455b565b925050610805565b3373ffffffffffffffffffffffffffffffffffffffff16886fffffffffffffffffffffffffffffffff167fdd812c2e47943d98e6c66b2b9872d1f9270b8523c82eb60ad5c8d580a614081c8960405161093a919061435e565b60405180910390a35050505050505050565b6109568133611166565b8161096082611206565b60030160006101000a81548173ffffffffffffffffffffffffffffffffffffffff021916908373ffffffffffffffffffffffffffffffffffffffff1602179055508173ffffffffffffffffffffffffffffffffffffffff16816fffffffffffffffffffffffffffffffff167f8003776a8bebc2616839b1bce6ab7fdb54516369d079fb0bb0550a1965989e6560405160405180910390a35050565b610a058133611166565b6000610a1082611206565b60030160006101000a81548173ffffffffffffffffffffffffffffffffffffffff021916908373ffffffffffffffffffffffffffffffffffffffff1602179055503373ffffffffffffffffffffffffffffffffffffffff16816fffffffffffffffffffffffffffffffff167f0d1df5c898ce9334fe91f342f5c07b0eea630d388f90b4e07e85753d6125273460405160405180910390a350565b6000610ab582611206565b60030160009054906101000a900473ffffffffffffffffffffffffffffffffffffffff169050919050565b6000610aeb82611206565b60020160009054906101000a900473ffffffffffffffffffffffffffffffffffffffff169050919050565b6000610b2182611206565b90503373ffffffffffffffffffffffffffffffffffffffff168160030160009054906101000a900473ffffffffffffffffffffffffffffffffffffffff1673ffffffffffffffffffffffffffffffffffffffff1614610bb757336040517f8e4a23d6000000000000000000000000000000000000000000000000000000008152600401610bae91906141f4565b60405180910390fd5b338160020160006101000a81548173ffffffffffffffffffffffffffffffffffffffff021916908373ffffffffffffffffffffffffffffffffffffffff16021790555060008160030160006101000a81548173ffffffffffffffffffffffffffffffffffffffff021916908373ffffffffffffffffffffffffffffffffffffffff1602179055503373ffffffffffffffffffffffffffffffffffffffff16826fffffffffffffffffffffffffffffffff167f4f86f2ce8b08e27d0e470f4269b71c3bbc68407d51a2e692f6573236074ebc5a60405160405180910390a35050565b6000610ca382611206565b90503373ffffffffffffffffffffffffffffffffffffffff168160030160009054906101000a900473ffffffffffffffffffffffffffffffffffffffff1673ffffffffffffffffffffffffffffffffffffffff1614610d3957336040517f8e4a23d6000000000000000000000000000000000000000000000000000000008152600401610d3091906141f4565b60405180910390fd5b60008160030160006101000a81548173ffffffffffffffffffffffffffffffffffffffff021916908373ffffffffffffffffffffffffffffffffffffffff1602179055503373ffffffffffffffffffffffffffffffffffffffff16826fffffffffffffffffffffffffffffffff167f28301da5fb0feefb138efa6310af4547a74f415d62616f90519436dc169c3ae060405160405180910390a35050565b610e007f637265617465506f6f6c00000000000000000000000000000000000000000000611dcc565b600073ffffffffffffffffffffffffffffffffffffffff168173ffffffffffffffffffffffffffffffffffffffff161415610e67576040517fd92e233d00000000000000000000000000000000000000000000000000000000815260040160405180910390fd5b610e718282611e0f565b508073ffffffffffffffffffffffffffffffffffffffff16826fffffffffffffffffffffffffffffffff167f4dfd1dac627094e53abc04dd7243d9a095a40b99486b50296644f64deff98bbb60405160405180910390a35050565b60606000610ed983611206565b90506000816005018054905067ffffffffffffffff811115610efe57610efd613d6a565b5b604051908082528060200260200182016040528015610f3757816020015b610f24613c5f565b815260200190600190039081610f1c5790505b50905060005b826005018054905081101561105d57826005018181548110610f6257610f616144a7565b5b90600052602060002090600202016040518060600160405290816000820160009054906101000a90046fffffffffffffffffffffffffffffffff166fffffffffffffffffffffffffffffffff166fffffffffffffffffffffffffffffffff1681526020016000820160109054906101000a90046fffffffffffffffffffffffffffffffff166fffffffffffffffffffffffffffffffff166fffffffffffffffffffffffffffffffff1681526020016001820160009054906101000a9004600f0b600f0b600f0b8152505082828151811061103f5761103e6144a7565b5b602002602001018190525080806110559061455b565b915050610f3d565b508092505050919050565b606061107382611206565b60010180546110819061468c565b80601f01602080910402602001604051908101604052809291908181526020018280546110ad9061468c565b80156110fa5780601f106110cf576101008083540402835291602001916110fa565b820191906000526020600020905b8154815290600101906020018083116110dd57829003601f168201915b50505050509050919050565b60006111106112b4565b60000154905090565b61112281611eeb565b61116357806040517f32b961eb00000000000000000000000000000000000000000000000000000000815260040161115a91906146cd565b60405180910390fd5b50565b8073ffffffffffffffffffffffffffffffffffffffff1661118683611206565b60020160009054906101000a900473ffffffffffffffffffffffffffffffffffffffff1673ffffffffffffffffffffffffffffffffffffffff161461120257806040517f8e4a23d60000000000000000000000000000000000000000000000000000000081526004016111f991906141f4565b60405180910390fd5b5050565b6000808260405160200161121a9190614734565b60405160208183030381529060405280519060200120905080915050919050565b611243611f5f565b73ffffffffffffffffffffffffffffffffffffffff163373ffffffffffffffffffffffffffffffffffffffff16146112b257336040517f8e4a23d60000000000000000000000000000000000000000000000000000000081526004016112a991906141f4565b60405180910390fd5b565b6000806040516020016112c6906147ae565b6040516020818303038152906040528051906020012090508091505090565b60008160040160009054906101000a90046fffffffffffffffffffffffffffffffff166fffffffffffffffffffffffffffffffff169050600081141561132b5750611539565b60008260060160000160009054906101000a90046fffffffffffffffffffffffffffffffff16600f0b905060008360040160109054906101000a90046fffffffffffffffffffffffffffffffff1690506000805b856005018054905081101561151d5760008660050182815481106113a6576113a56144a7565b5b9060005260206000209060020201905060008160000160109054906101000a90046fffffffffffffffffffffffffffffffff166fffffffffffffffffffffffffffffffff16905060008087136113fd576000611415565b87828861140a91906147ce565b6114149190614857565b5b905060008883886fffffffffffffffffffffffffffffffff1661143891906147ce565b6114429190614857565b9050600061146f8560000160009054906101000a90046fffffffffffffffffffffffffffffffff16611d51565b9050600061147e8c8385611f92565b905060008660010160009054906101000a9004600f0b600f0b90508082126114a657806114a8565b815b91506114f68760000160009054906101000a90046fffffffffffffffffffffffffffffffff168e60000160009054906101000a90046fffffffffffffffffffffffffffffffff168488611c87565b896115019190614892565b98505050505050505080806115159061455b565b91505061137f565b50611534818660060161206590919063ffffffff16565b505050505b50565b606080600080600080876005018054905067ffffffffffffffff81111561156657611565613d6a565b5b6040519080825280602002602001820160405280156115945781602001602082028036833780820191505090505b509550876005018054905067ffffffffffffffff8111156115b8576115b7613d6a565b5b6040519080825280602002602001820160405280156115e65781602001602082028036833780820191505090505b5094506000805b885181101561164757888181518110611609576116086144a7565b5b6020026020010151602001516fffffffffffffffffffffffffffffffff16826116329190614505565b9150808061163f9061455b565b9150506115ed565b5060005b8851811015611bc257826fffffffffffffffffffffffffffffffff1689828151811061167a576116796144a7565b5b6020026020010151600001516fffffffffffffffffffffffffffffffff16116116d8576040517f01674a6b0000000000000000000000000000000000000000000000000000000081526004016116cf906149e4565b60405180910390fd5b8881815181106116eb576116ea6144a7565b5b6020026020010151600001519250600089828151811061170e5761170d6144a7565b5b6020026020010151602001516fffffffffffffffffffffffffffffffff16141561176d576040517f01674a6b00000000000000000000000000000000000000000000000000000000815260040161176490614aaf565b60405180910390fd5b5b8960050180549050861080156118085750888181518110611792576117916144a7565b5b6020026020010151600001516fffffffffffffffffffffffffffffffff168a60050187815481106117c6576117c56144a7565b5b906000526020600020906002020160000160009054906101000a90046fffffffffffffffffffffffffffffffff166fffffffffffffffffffffffffffffffff16105b1561192d57896005018681548110611823576118226144a7565b5b906000526020600020906002020160000160009054906101000a90046fffffffffffffffffffffffffffffffff1688868061185d9061455b565b9750815181106118705761186f6144a7565b5b60200260200101906fffffffffffffffffffffffffffffffff1690816fffffffffffffffffffffffffffffffff1681525050876001866118b091906145a4565b815181106118c1576118c06144a7565b5b60200260200101518785806118d59061455b565b9650815181106118e8576118e76144a7565b5b60200260200101906fffffffffffffffffffffffffffffffff1690816fffffffffffffffffffffffffffffffff168152505085806119259061455b565b96505061176e565b8960050180549050861080156119c75750888181518110611951576119506144a7565b5b6020026020010151600001516fffffffffffffffffffffffffffffffff168a6005018781548110611985576119846144a7565b5b906000526020600020906002020160000160009054906101000a90046fffffffffffffffffffffffffffffffff166fffffffffffffffffffffffffffffffff16145b15611baf578960050186815481106119e2576119e16144a7565b5b906000526020600020906002020160010160009054906101000a9004600f0b600f0b898281518110611a1757611a166144a7565b5b602002602001015160400151600f0b1280611b2a5750611ad68a60040160009054906101000a90046fffffffffffffffffffffffffffffffff166fffffffffffffffffffffffffffffffff16633b9aca008c6005018981548110611a7e57611a7d6144a7565b5b906000526020600020906002020160000160109054906101000a90046fffffffffffffffffffffffffffffffff16611ab69190614ae2565b6fffffffffffffffffffffffffffffffff1661217290919063ffffffff16565b611b2883633b9aca008c8581518110611af257611af16144a7565b5b602002602001015160200151611b089190614ae2565b6fffffffffffffffffffffffffffffffff1661217290919063ffffffff16565b105b15611ba057888181518110611b4257611b416144a7565b5b602002602001015160000151888680611b5a9061455b565b975081518110611b6d57611b6c6144a7565b5b60200260200101906fffffffffffffffffffffffffffffffff1690816fffffffffffffffffffffffffffffffff16815250505b8580611bab9061455b565b9650505b8080611bba9061455b565b91505061164b565b505b8860050180549050851015611c7b57886005018581548110611be957611be86144a7565b5b906000526020600020906002020160000160009054906101000a90046fffffffffffffffffffffffffffffffff16868480611c239061455b565b955081518110611c3657611c356144a7565b5b60200260200101906fffffffffffffffffffffffffffffffff1690816fffffffffffffffffffffffffffffffff16815250508480611c739061455b565b955050611bc4565b50505050509250929050565b600080611c9386611d51565b9050600073ffffffffffffffffffffffffffffffffffffffff168160010160009054906101000a900473ffffffffffffffffffffffffffffffffffffffff1673ffffffffffffffffffffffffffffffffffffffff161415611d2b57856040517ff080c1ea000000000000000000000000000000000000000000000000000000008152600401611d2291906146cd565b60405180910390fd5b611d3a816402540be3ff612197565b611d468186858761260d565b915050949350505050565b60008082604051602001611d659190614b78565b60405160208183030381529060405280519060200120905080915050919050565b6000611d91826128ae565b8260020160109054906101000a90046fffffffffffffffffffffffffffffffff166fffffffffffffffffffffffffffffffff16109050919050565b611dd68133612975565b611e0c576040517fe8298be500000000000000000000000000000000000000000000000000000000815260040160405180910390fd5b50565b6000611e1a83611eeb565b15611e5c57826040517f2aa3ed12000000000000000000000000000000000000000000000000000000008152600401611e5391906146cd565b60405180910390fd5b611e6583611206565b9050828160000160006101000a8154816fffffffffffffffffffffffffffffffff02191690836fffffffffffffffffffffffffffffffff160217905550818160020160006101000a81548173ffffffffffffffffffffffffffffffffffffffff021916908373ffffffffffffffffffffffffffffffffffffffff16021790555092915050565b600080826fffffffffffffffffffffffffffffffff161480611f585750816fffffffffffffffffffffffffffffffff16611f2483611206565b60000160009054906101000a90046fffffffffffffffffffffffffffffffff166fffffffffffffffffffffffffffffffff16145b9050919050565b6000611f696129bb565b60000160019054906101000a900473ffffffffffffffffffffffffffffffffffffffff16905090565b600080611f9d6112b4565b6000015490506000633b9aca0085600a0160000160109054906101000a9004600f0b611fc99190614ba6565b9050600080831415611fed57601260ff16600a611fe69190614d43565b905061204a565b6120478760060160000160009054906101000a90046fffffffffffffffffffffffffffffffff166fffffffffffffffffffffffffffffffff16612039858861217290919063ffffffff16565b61217290919063ffffffff16565b90505b8082600f0b6120599190614892565b93505050509392505050565b60008114156120735761216e565b60008260000160009054906101000a90046fffffffffffffffffffffffffffffffff166fffffffffffffffffffffffffffffffff16905060008114156120e5576040517f3b182f5500000000000000000000000000000000000000000000000000000000815260040160405180910390fd5b60006b033b2e3c9fd0803ce8000000836120ff9190614d8e565b90506000828261210f9190614ea5565b9050808560000160108282829054906101000a9004600f0b6121319190614f0f565b92506101000a8154816fffffffffffffffffffffffffffffffff0219169083600f0b6fffffffffffffffffffffffffffffffff1602179055505050505b5050565b600061218f83601260ff16600a6121899190614d43565b846129ec565b905092915050565b600082600a0160000160009054906101000a90046fffffffffffffffffffffffffffffffff166fffffffffffffffffffffffffffffffff1614156121da57612609565b60006121e583612a14565b905060008360030160009054906101000a9004600f0b600f0b9050600084600a0160000160009054906101000a90046fffffffffffffffffffffffffffffffff16600f0b601260ff16600a61223a9190614d43565b83856122469190614f93565b6122509190614d8e565b61225a9190614ea5565b633b9aca0086600a0160000160109054906101000a9004600f0b61227e9190614ba6565b600f0b61228b9190614892565b905060005b600061229e87600401612a58565b1180156122c55750816122b387600401612a8b565b602001516122c090615027565b600f0b125b80156122d057508481105b156125a55760006122e387600401612aa5565b90506000670de0b6b3a7640000633b9aca0089600a0160000160109054906101000a9004600f0b6123149190614ba6565b836020015161232290615027565b61232c9190615070565b600f0b89600a0160000160009054906101000a90046fffffffffffffffffffffffffffffffff16600f0b6123609190614d8e565b61236a9190614ea5565b90506123828189600a0161206590919063ffffffff16565b808561238e9190614892565b945060006123c183600001516fffffffffffffffffffffffffffffffff1660001b8a600a01612abf90919063ffffffff16565b11612401576040517f08c379a00000000000000000000000000000000000000000000000000000000081526004016123f890615140565b60405180910390fd5b600061243583600001516fffffffffffffffffffffffffffffffff1660001b60008b600a01612b109092919063ffffffff16565b90508089600c01600085600001516fffffffffffffffffffffffffffffffff166fffffffffffffffffffffffffffffffff16815260200190815260200160002060008282546124849190614892565b92505081905550600089600a0160000160009054906101000a90046fffffffffffffffffffffffffffffffff166fffffffffffffffffffffffffffffffff16141561251357858960030160006101000a8154816fffffffffffffffffffffffffffffffff0219169083600f0b6fffffffffffffffffffffffffffffffff16021790555050505050505050612609565b88600a0160000160009054906101000a90046fffffffffffffffffffffffffffffffff16600f0b601260ff16600a61254b9190614d43565b87896125579190614f93565b6125619190614d8e565b61256b9190614ea5565b89600a0160000160109054906101000a9004600f0b600f0b61258d9190614892565b9450505050808061259d9061455b565b915050612290565b506125c782846125b59190614f93565b86600a0161206590919063ffffffff16565b828560030160006101000a8154816fffffffffffffffffffffffffffffffff0219169083600f0b6fffffffffffffffffffffffffffffffff1602179055505050505b5050565b60008061261a8686612d05565b905060006126348688600401612d3a90919063ffffffff16565b6020015161264190615027565b600f0b9050633b9aca0087600a0160000160109054906101000a9004600f0b61266a9190614ba6565b600f0b8413612693576000945061268d8688600401612d8d90919063ffffffff16565b506126b6565b6126b486856126a190615027565b89600401612de09092919063ffffffff16565b505b6126e3866fffffffffffffffffffffffffffffffff1660001b8689600a01612b109092919063ffffffff16565b87600c016000886fffffffffffffffffffffffffffffffff166fffffffffffffffffffffffffffffffff168152602001908152602001600020546127279190614892565b9250600087600c016000886fffffffffffffffffffffffffffffffff166fffffffffffffffffffffffffffffffff16815260200190815260200160002081905550633b9aca0087600a0160000160109054906101000a9004600f0b61278c9190614ba6565b600f0b841315612806576127a1878686612ef0565b8760020160108282829054906101000a90046fffffffffffffffffffffffffffffffff166127cf9190615160565b92506101000a8154816fffffffffffffffffffffffffffffffff02191690836fffffffffffffffffffffffffffffffff1602179055505b633b9aca0087600a0160000160109054906101000a9004600f0b61282a9190614ba6565b600f0b8113156128a45761283f878383612ef0565b8760020160108282829054906101000a90046fffffffffffffffffffffffffffffffff1661286d91906151a6565b92506101000a8154816fffffffffffffffffffffffffffffffff02191690836fffffffffffffffffffffffffffffffff1602179055505b5050949350505050565b60008160010160009054906101000a900473ffffffffffffffffffffffffffffffffffffffff1673ffffffffffffffffffffffffffffffffffffffff1663c9c04a7f8360000160009054906101000a90046fffffffffffffffffffffffffffffffff166040518263ffffffff1660e01b815260040161292d91906146cd565b602060405180830381865afa15801561294a573d6000803e3d6000fd5b505050506040513d601f19601f8201168201806040525081019061296e91906151ef565b9050919050565b60008061298184612f3f565b90508060010160009054906101000a900460ff16806129b257506129b18382600201612f7490919063ffffffff16565b5b91505092915050565b6000806040516020016129cd90615268565b6040516020818303038152906040528051906020012090508091505090565b60008284029050828482041484151782151516612a0857600080fd5b81810490509392505050565b6000612a1f82612fa4565b8260020160009054906101000a9004600f0b600f0b612a3d846130a6565b612a479190614892565b612a519190614f93565b9050919050565b600080826001018054905011612a6f576000612a84565b60018260010180549050612a8391906145a4565b5b9050919050565b612a93613ca7565b612a9e82600161316d565b9050919050565b612aad613ca7565b612ab882600161324f565b9050919050565b600082600101600083815260200190815260200160002060000160009054906101000a90046fffffffffffffffffffffffffffffffff166fffffffffffffffffffffffffffffffff16905092915050565b600080846001016000858152602001908152602001600020905060008160000160109054906101000a9004600f0b8660000160109054906101000a9004600f0b612b5a9190615070565b905060008260000160009054906101000a90046fffffffffffffffffffffffffffffffff16600f0b82600f0b612b909190614d8e565b90506b033b2e3c9fd0803ce800000081612baa9190614ea5565b93508260000160009054906101000a90046fffffffffffffffffffffffffffffffff166fffffffffffffffffffffffffffffffff16858860000160009054906101000a90046fffffffffffffffffffffffffffffffff166fffffffffffffffffffffffffffffffff16612c1d9190614505565b612c2791906145a4565b8760000160006101000a8154816fffffffffffffffffffffffffffffffff02191690836fffffffffffffffffffffffffffffffff160217905550848360000160006101000a8154816fffffffffffffffffffffffffffffffff02191690836fffffffffffffffffffffffffffffffff16021790555060008514612cbb578660000160109054906101000a9004600f0b612cbe565b60005b8360000160106101000a8154816fffffffffffffffffffffffffffffffff0219169083600f0b6fffffffffffffffffffffffffffffffff1602179055505050509392505050565b6000612d32826fffffffffffffffffffffffffffffffff1660001b84600a01612abf90919063ffffffff16565b905092915050565b612d42613ca7565b612d8583846002016000856fffffffffffffffffffffffffffffffff166fffffffffffffffffffffffffffffffff1681526020019081526020016000205461316d565b905092915050565b612d95613ca7565b612dd883846002016000856fffffffffffffffffffffffffffffffff166fffffffffffffffffffffffffffffffff1681526020019081526020016000205461324f565b905092915050565b612de8613ca7565b600084600101805490501415612e0257612e0184613558565b5b612e0a613ca7565b612e148585612d8d565b5084600001600081819054906101000a90046fffffffffffffffffffffffffffffffff1680929190612e4590615288565b91906101000a8154816fffffffffffffffffffffffffffffffff02191690836fffffffffffffffffffffffffffffffff16021790555050846001016001816001815401808255809150500390600052602060002050506040518060400160405280856fffffffffffffffffffffffffffffffff16815260200184600f0b8152509050612ee5858260018860010180549050612ee091906145a4565b613644565b809150509392505050565b6000612f3683633b9aca0086600a0160000160109054906101000a9004600f0b612f1a9190614ba6565b600f0b84612f289190614f93565b61377390919063ffffffff16565b90509392505050565b60008082604051602001612f539190615326565b60405160208183030381529060405280519060200120905080915050919050565b6000612f9c836000018373ffffffffffffffffffffffffffffffffffffffff1660001b613798565b905092915050565b6000806000905060005b83600d018054905081101561309c57600084600d018281548110612fd557612fd46144a7565b5b90600052602060002090600202016040518060400160405290816000820160009054906101000a900473ffffffffffffffffffffffffffffffffffffffff1673ffffffffffffffffffffffffffffffffffffffff1673ffffffffffffffffffffffffffffffffffffffff168152602001600182015481525050905061307b816020015161306d61306884600001516137bb565b6137f0565b61377390919063ffffffff16565b836130869190614505565b92505080806130949061455b565b915050612fae565b5080915050919050565b60008160010160009054906101000a900473ffffffffffffffffffffffffffffffffffffffff1673ffffffffffffffffffffffffffffffffffffffff1663bcec0d0f8360000160009054906101000a90046fffffffffffffffffffffffffffffffff166040518263ffffffff1660e01b815260040161312591906146cd565b602060405180830381865afa158015613142573d6000803e3d6000fd5b505050506040513d601f19601f8201168201806040525081019061316691906151ef565b9050919050565b613175613ca7565b818360010180549050116131b457604051806040016040528060006fffffffffffffffffffffffffffffffff1681526020016000600f0b815250613247565b8260010182815481106131ca576131c96144a7565b5b906000526020600020016040518060400160405290816000820160009054906101000a90046fffffffffffffffffffffffffffffffff166fffffffffffffffffffffffffffffffff166fffffffffffffffffffffffffffffffff1681526020016000820160109054906101000a9004600f0b600f0b600f0b815250505b905092915050565b613257613ca7565b81836001018054905011158061326e575060008211155b156132a657604051806040016040528060006fffffffffffffffffffffffffffffffff1681526020016000600f0b8152509050613552565b60008360010183815481106132be576132bd6144a7565b5b906000526020600020016040518060400160405290816000820160009054906101000a90046fffffffffffffffffffffffffffffffff166fffffffffffffffffffffffffffffffff166fffffffffffffffffffffffffffffffff1681526020016000820160109054906101000a9004600f0b600f0b600f0b81525050905083600201600082600001516fffffffffffffffffffffffffffffffff166fffffffffffffffffffffffffffffffff168152602001908152602001600020600090556000846001016001866001018054905061339791906145a4565b815481106133a8576133a76144a7565b5b906000526020600020016040518060400160405290816000820160009054906101000a90046fffffffffffffffffffffffffffffffff166fffffffffffffffffffffffffffffffff166fffffffffffffffffffffffffffffffff1681526020016000820160109054906101000a9004600f0b600f0b600f0b8152505090508460010180548061343a576134396145d8565b5b60019003818190600052602060002001600080820160006101000a8154906fffffffffffffffffffffffffffffffff02191690556000820160106101000a8154906fffffffffffffffffffffffffffffffff021916905550509055846001018054905084101561354c576134af858286613644565b61354b858660010186815481106134c9576134c86144a7565b5b906000526020600020016040518060400160405290816000820160009054906101000a90046fffffffffffffffffffffffffffffffff166fffffffffffffffffffffffffffffffff166fffffffffffffffffffffffffffffffff1681526020016000820160109054906101000a9004600f0b600f0b600f0b81525050866138d8565b5b81925050505b92915050565b6000816001018054905014156136415780600101604051806040016040528060006fffffffffffffffffffffffffffffffff1681526020016000600f0b8152509080600181540180825580915050600190039060005260206000200160009091909190915060008201518160000160006101000a8154816fffffffffffffffffffffffffffffffff02191690836fffffffffffffffffffffffffffffffff16021790555060208201518160000160106101000a8154816fffffffffffffffffffffffffffffffff0219169083600f0b6fffffffffffffffffffffffffffffffff16021790555050505b50565b600181148061369957508260010160028261365f9190614857565b815481106136705761366f6144a7565b5b9060005260206000200160000160109054906101000a9004600f0b600f0b8260200151600f0b13155b156136ae576136a9838383613aed565b61376e565b61375683846001016002846136c39190614857565b815481106136d4576136d36144a7565b5b906000526020600020016040518060400160405290816000820160009054906101000a90046fffffffffffffffffffffffffffffffff166fffffffffffffffffffffffffffffffff166fffffffffffffffffffffffffffffffff1681526020016000820160109054906101000a9004600f0b600f0b600f0b8152505083613aed565b61376d83836002846137689190614857565b613644565b5b505050565b60006137908383601260ff16600a61378b9190614d43565b6129ec565b905092915050565b600080836001016000848152602001908152602001600020541415905092915050565b600080826040516020016137cf91906153a0565b60405160208183030381529060405280519060200120905080915050919050565b6000808260040160009054906101000a900473ffffffffffffffffffffffffffffffffffffffff1673ffffffffffffffffffffffffffffffffffffffff1663feaf968c6040518163ffffffff1660e01b815260040160a060405180830381865afa158015613862573d6000803e3d6000fd5b505050506040513d601f19601f82011682018060405250810190613886919061543c565b505050915050600081136138cf576040517f08c379a00000000000000000000000000000000000000000000000000000000081526004016138c690615503565b60405180910390fd5b80915050919050565b60008360010180549050905060006002836138f391906147ce565b905080821161390c57613907858585613aed565b613ae6565b6000856001018281548110613924576139236144a7565b5b906000526020600020016040518060400160405290816000820160009054906101000a90046fffffffffffffffffffffffffffffffff166fffffffffffffffffffffffffffffffff166fffffffffffffffffffffffffffffffff1681526020016000820160109054906101000a9004600f0b600f0b600f0b8152505090506001826139af9190614505565b83118015613a0257508060200151600f0b866001016001846139d19190614505565b815481106139e2576139e16144a7565b5b9060005260206000200160000160109054906101000a9004600f0b600f0b135b15613aa8578560010182613a159061455b565b92508281548110613a2957613a286144a7565b5b906000526020600020016040518060400160405290816000820160009054906101000a90046fffffffffffffffffffffffffffffffff166fffffffffffffffffffffffffffffffff166fffffffffffffffffffffffffffffffff1681526020016000820160109054906101000a9004600f0b600f0b600f0b8152505090505b8460200151600f0b8160200151600f0b13613acd57613ac8868686613aed565b613ae4565b613ad8868286613aed565b613ae38686846138d8565b5b505b5050505050565b81836001018281548110613b0457613b036144a7565b5b9060005260206000200160008201518160000160006101000a8154816fffffffffffffffffffffffffffffffff02191690836fffffffffffffffffffffffffffffffff16021790555060208201518160000160106101000a8154816fffffffffffffffffffffffffffffffff0219169083600f0b6fffffffffffffffffffffffffffffffff1602179055509050508083600201600084600001516fffffffffffffffffffffffffffffffff166fffffffffffffffffffffffffffffffff16815260200190815260200160002081905550505050565b828054613be59061468c565b90600052602060002090601f016020900481019282613c075760008555613c4e565b82601f10613c2057805160ff1916838001178555613c4e565b82800160010185558215613c4e579182015b82811115613c4d578251825591602001919060010190613c32565b5b509050613c5b9190613cd6565b5090565b604051806060016040528060006fffffffffffffffffffffffffffffffff16815260200160006fffffffffffffffffffffffffffffffff1681526020016000600f0b81525090565b604051806040016040528060006fffffffffffffffffffffffffffffffff1681526020016000600f0b81525090565b5b80821115613cef576000816000905550600101613cd7565b5090565b6000604051905090565b600080fd5b600080fd5b60006fffffffffffffffffffffffffffffffff82169050919050565b613d2c81613d07565b8114613d3757600080fd5b50565b600081359050613d4981613d23565b92915050565b600080fd5b600080fd5b6000601f19601f8301169050919050565b7f4e487b7100000000000000000000000000000000000000000000000000000000600052604160045260246000fd5b613da282613d59565b810181811067ffffffffffffffff82111715613dc157613dc0613d6a565b5b80604052505050565b6000613dd4613cf3565b9050613de08282613d99565b919050565b600067ffffffffffffffff821115613e0057613dff613d6a565b5b613e0982613d59565b9050602081019050919050565b82818337600083830152505050565b6000613e38613e3384613de5565b613dca565b905082815260208101848484011115613e5457613e53613d54565b5b613e5f848285613e16565b509392505050565b600082601f830112613e7c57613e7b613d4f565b5b8135613e8c848260208601613e25565b91505092915050565b60008060408385031215613eac57613eab613cfd565b5b6000613eba85828601613d3a565b925050602083013567ffffffffffffffff811115613edb57613eda613d02565b5b613ee785828601613e67565b9150509250929050565b6000819050919050565b613f0481613ef1565b8114613f0f57600080fd5b50565b600081359050613f2181613efb565b92915050565b600060208284031215613f3d57613f3c613cfd565b5b6000613f4b84828501613f12565b91505092915050565b600067ffffffffffffffff821115613f6f57613f6e613d6a565b5b602082029050602081019050919050565b600080fd5b600080fd5b600081600f0b9050919050565b613fa081613f8a565b8114613fab57600080fd5b50565b600081359050613fbd81613f97565b92915050565b600060608284031215613fd957613fd8613f85565b5b613fe36060613dca565b90506000613ff384828501613d3a565b600083015250602061400784828501613d3a565b602083015250604061401b84828501613fae565b60408301525092915050565b600061403a61403584613f54565b613dca565b9050808382526020820190506060840283018581111561405d5761405c613f80565b5b835b8181101561408657806140728882613fc3565b84526020840193505060608101905061405f565b5050509392505050565b600082601f8301126140a5576140a4613d4f565b5b81356140b5848260208601614027565b91505092915050565b600080604083850312156140d5576140d4613cfd565b5b60006140e385828601613d3a565b925050602083013567ffffffffffffffff81111561410457614103613d02565b5b61411085828601614090565b9150509250929050565b600073ffffffffffffffffffffffffffffffffffffffff82169050919050565b60006141458261411a565b9050919050565b6141558161413a565b811461416057600080fd5b50565b6000813590506141728161414c565b92915050565b6000806040838503121561418f5761418e613cfd565b5b600061419d85828601614163565b92505060206141ae85828601613d3a565b9150509250929050565b6000602082840312156141ce576141cd613cfd565b5b60006141dc84828501613d3a565b91505092915050565b6141ee8161413a565b82525050565b600060208201905061420960008301846141e5565b92915050565b6000806040838503121561422657614225613cfd565b5b600061423485828601613d3a565b925050602061424585828601614163565b9150509250929050565b600081519050919050565b600082825260208201905092915050565b6000819050602082019050919050565b61428481613d07565b82525050565b61429381613f8a565b82525050565b6060820160008201516142af600085018261427b565b5060208201516142c2602085018261427b565b5060408201516142d5604085018261428a565b50505050565b60006142e78383614299565b60608301905092915050565b6000602082019050919050565b600061430b8261424f565b614315818561425a565b93506143208361426b565b8060005b8381101561435157815161433888826142db565b9750614343836142f3565b925050600181019050614324565b5085935050505092915050565b600060208201905081810360008301526143788184614300565b905092915050565b600081519050919050565b600082825260208201905092915050565b60005b838110156143ba57808201518184015260208101905061439f565b838111156143c9576000848401525b50505050565b60006143da82614380565b6143e4818561438b565b93506143f481856020860161439c565b6143fd81613d59565b840191505092915050565b6000602082019050818103600083015261442281846143cf565b905092915050565b61443381613ef1565b82525050565b600060208201905061444e600083018461442a565b92915050565b600081905092915050565b600061446a82614380565b6144748185614454565b935061448481856020860161439c565b80840191505092915050565b600061449c828461445f565b915081905092915050565b7f4e487b7100000000000000000000000000000000000000000000000000000000600052603260045260246000fd5b7f4e487b7100000000000000000000000000000000000000000000000000000000600052601160045260246000fd5b600061451082613ef1565b915061451b83613ef1565b9250827fffffffffffffffffffffffffffffffffffffffffffffffffffffffffffffffff038211156145505761454f6144d6565b5b828201905092915050565b600061456682613ef1565b91507fffffffffffffffffffffffffffffffffffffffffffffffffffffffffffffffff821415614599576145986144d6565b5b600182019050919050565b60006145af82613ef1565b91506145ba83613ef1565b9250828210156145cd576145cc6144d6565b5b828203905092915050565b7f4e487b7100000000000000000000000000000000000000000000000000000000600052603160045260246000fd5b6000819050919050565b600061462c61462761462284613d07565b614607565b613ef1565b9050919050565b61463c81614611565b82525050565b60006020820190506146576000830184614633565b92915050565b7f4e487b7100000000000000000000000000000000000000000000000000000000600052602260045260246000fd5b600060028204905060018216806146a457607f821691505b602082108114156146b8576146b761465d565b5b50919050565b6146c781613d07565b82525050565b60006020820190506146e260008301846146be565b92915050565b7f506f6f6c00000000000000000000000000000000000000000000000000000000600082015250565b600061471e60048361438b565b9150614729826146e8565b602082019050919050565b6000604082019050818103600083015261474d81614711565b905061475c60208301846146be565b92915050565b7f506f6f6c436f6e66696775726174696f6e000000000000000000000000000000600082015250565b600061479860118361438b565b91506147a382614762565b602082019050919050565b600060208201905081810360008301526147c78161478b565b9050919050565b60006147d982613ef1565b91506147e483613ef1565b9250817fffffffffffffffffffffffffffffffffffffffffffffffffffffffffffffffff048311821515161561481d5761481c6144d6565b5b828202905092915050565b7f4e487b7100000000000000000000000000000000000000000000000000000000600052601260045260246000fd5b600061486282613ef1565b915061486d83613ef1565b92508261487d5761487c614828565b5b828204905092915050565b6000819050919050565b600061489d82614888565b91506148a883614888565b9250817f7fffffffffffffffffffffffffffffffffffffffffffffffffffffffffffffff038313600083121516156148e3576148e26144d6565b5b817f800000000000000000000000000000000000000000000000000000000000000003831260008312161561491b5761491a6144d6565b5b828201905092915050565b7f6d61726b65747300000000000000000000000000000000000000000000000000600082015250565b600061495c60078361438b565b915061496782614926565b602082019050919050565b7f6d75737420626520737570706c69656420696e207374726963746c792061736360008201527f656e64696e67206f726465720000000000000000000000000000000000000000602082015250565b60006149ce602c8361438b565b91506149d982614972565b604082019050919050565b600060408201905081810360008301526149fd8161494f565b90508181036020830152614a10816149c1565b9050919050565b7f7765696768747300000000000000000000000000000000000000000000000000600082015250565b6000614a4d60078361438b565b9150614a5882614a17565b602082019050919050565b7f776569676874206d757374206265206e6f6e2d7a65726f000000000000000000600082015250565b6000614a9960178361438b565b9150614aa482614a63565b602082019050919050565b60006040820190508181036000830152614ac881614a40565b90508181036020830152614adb81614a8c565b9050919050565b6000614aed82613d07565b9150614af883613d07565b9250816fffffffffffffffffffffffffffffffff0483118215151615614b2157614b206144d6565b5b828202905092915050565b7f4d61726b65740000000000000000000000000000000000000000000000000000600082015250565b6000614b6260068361438b565b9150614b6d82614b2c565b602082019050919050565b60006040820190508181036000830152614b9181614b55565b9050614ba060208301846146be565b92915050565b6000614bb182613f8a565b9150614bbc83613f8a565b925082614bcc57614bcb614828565b5b600160000383147fffffffffffffffffffffffffffffffff8000000000000000000000000000000083141615614c0557614c046144d6565b5b828205905092915050565b60008160011c9050919050565b6000808291508390505b6001851115614c6757808604811115614c4357614c426144d6565b5b6001851615614c525780820291505b8081029050614c6085614c10565b9450614c27565b94509492505050565b600082614c805760019050614d3c565b81614c8e5760009050614d3c565b8160018114614ca45760028114614cae57614cdd565b6001915050614d3c565b60ff841115614cc057614cbf6144d6565b5b8360020a915084821115614cd757614cd66144d6565b5b50614d3c565b5060208310610133831016604e8410600b8410161715614d125782820a905083811115614d0d57614d0c6144d6565b5b614d3c565b614d1f8484846001614c1d565b92509050818404811115614d3657614d356144d6565b5b81810290505b9392505050565b6000614d4e82613ef1565b9150614d5983613ef1565b9250614d867fffffffffffffffffffffffffffffffffffffffffffffffffffffffffffffffff8484614c70565b905092915050565b6000614d9982614888565b9150614da483614888565b9250827f7fffffffffffffffffffffffffffffffffffffffffffffffffffffffffffffff0482116000841360008413161615614de357614de26144d6565b5b817f80000000000000000000000000000000000000000000000000000000000000000583126000841260008413161615614e2057614e1f6144d6565b5b827f80000000000000000000000000000000000000000000000000000000000000000582126000841360008412161615614e5d57614e5c6144d6565b5b827f7fffffffffffffffffffffffffffffffffffffffffffffffffffffffffffffff0582126000841260008412161615614e9a57614e996144d6565b5b828202905092915050565b6000614eb082614888565b9150614ebb83614888565b925082614ecb57614eca614828565b5b600160000383147f800000000000000000000000000000000000000000000000000000000000000083141615614f0457614f036144d6565b5b828205905092915050565b6000614f1a82613f8a565b9150614f2583613f8a565b9250816f7fffffffffffffffffffffffffffffff03831360008312151615614f5057614f4f6144d6565b5b817fffffffffffffffffffffffffffffffff80000000000000000000000000000000038312600083121615614f8857614f876144d6565b5b828201905092915050565b6000614f9e82614888565b9150614fa983614888565b9250827f800000000000000000000000000000000000000000000000000000000000000001821260008412151615614fe457614fe36144d6565b5b827f7fffffffffffffffffffffffffffffffffffffffffffffffffffffffffffffff01821360008412161561501c5761501b6144d6565b5b828203905092915050565b600061503282613f8a565b91507fffffffffffffffffffffffffffffffff80000000000000000000000000000000821415615065576150646144d6565b5b816000039050919050565b600061507b82613f8a565b915061508683613f8a565b9250827fffffffffffffffffffffffffffffffff80000000000000000000000000000000018212600084121516156150c1576150c06144d6565b5b826f7fffffffffffffffffffffffffffffff0182136000841216156150e9576150e86144d6565b5b828203905092915050565b7f6e6f20736861726573206f6e206163746f722072656d6f76616c000000000000600082015250565b600061512a601a8361438b565b9150615135826150f4565b602082019050919050565b600060208201905081810360008301526151598161511d565b9050919050565b600061516b82613d07565b915061517683613d07565b9250826fffffffffffffffffffffffffffffffff0382111561519b5761519a6144d6565b5b828201905092915050565b60006151b182613d07565b91506151bc83613d07565b9250828210156151cf576151ce6144d6565b5b828203905092915050565b6000815190506151e981613efb565b92915050565b60006020828403121561520557615204613cfd565b5b6000615213848285016151da565b91505092915050565b7f4f776e61626c6500000000000000000000000000000000000000000000000000600082015250565b600061525260078361438b565b915061525d8261521c565b602082019050919050565b6000602082019050818103600083015261528181615245565b9050919050565b600061529382613d07565b91506fffffffffffffffffffffffffffffffff8214156152b6576152b56144d6565b5b600182019050919050565b7f46656174757265466c6167000000000000000000000000000000000000000000600082015250565b60006152f7600b8361438b565b9150615302826152c1565b602082019050919050565b6000819050919050565b6153208161530d565b82525050565b6000604082019050818103600083015261533f816152ea565b905061534e6020830184615317565b92915050565b7f436f6c6c61746572616c436f6e66696775726174696f6e000000000000000000600082015250565b600061538a60178361438b565b915061539582615354565b602082019050919050565b600060408201905081810360008301526153b98161537d565b90506153c860208301846141e5565b92915050565b600069ffffffffffffffffffff82169050919050565b6153ed816153ce565b81146153f857600080fd5b50565b60008151905061540a816153e4565b92915050565b61541981614888565b811461542457600080fd5b50565b60008151905061543681615410565b92915050565b600080600080600060a0868803121561545857615457613cfd565b5b6000615466888289016153fb565b955050602061547788828901615427565b9450506040615488888289016151da565b9350506060615499888289016151da565b92505060806154aa888289016153fb565b9150509295509295909350565b7f54686520636f6c6c61746572616c2076616c7565206973203000000000000000600082015250565b60006154ed60198361438b565b91506154f8826154b7565b602082019050919050565b6000602082019050818103600083015261551c816154e0565b905091905056fea264697066735822122040582d3ba2a4e58c4e938c9d88f8c09d9fb24dd56f36a72bbf04d0de2a4599ad64736f6c634300080b0033",
  "linkReferences": {},
  "deployedLinkReferences": {}
}