{
  "_format": "hh-sol-artifact-1",
  "contractName": "RewardsManagerModule",
  "sourceName": "contracts/modules/core/RewardsManagerModule.sol",
  "abi": [
    {
      "inputs": [
        {
          "internalType": "string",
          "name": "incorrectParameter",
          "type": "string"
        },
        {
          "internalType": "string",
          "name": "help",
          "type": "string"
        }
      ],
      "name": "InvalidParameters",
      "type": "error"
    },
    {
      "inputs": [
        {
          "internalType": "string",
          "name": "incorrectParameter",
          "type": "string"
        },
        {
          "internalType": "string",
          "name": "help",
          "type": "string"
        }
      ],
      "name": "InvalidParameters",
      "type": "error"
    },
    {
      "inputs": [
        {
          "internalType": "uint128",
          "name": "accountId",
          "type": "uint128"
        },
        {
          "internalType": "bytes32",
          "name": "permission",
          "type": "bytes32"
        },
        {
          "internalType": "address",
          "name": "target",
          "type": "address"
        }
      ],
      "name": "PermissionDenied",
      "type": "error"
    },
    {
      "inputs": [],
      "name": "PositionOutOfBounds",
      "type": "error"
    },
    {
      "inputs": [
        {
          "internalType": "address",
          "name": "addr",
          "type": "address"
        }
      ],
      "name": "Unauthorized",
      "type": "error"
    },
    {
      "inputs": [],
      "name": "ValueAlreadyInSet",
      "type": "error"
    },
    {
      "anonymous": false,
      "inputs": [
        {
          "indexed": true,
          "internalType": "uint128",
          "name": "accountId",
          "type": "uint128"
        },
        {
          "indexed": true,
          "internalType": "uint128",
          "name": "poolId",
          "type": "uint128"
        },
        {
          "indexed": true,
          "internalType": "address",
          "name": "collateralType",
          "type": "address"
        },
        {
          "indexed": false,
          "internalType": "address",
          "name": "distributor",
          "type": "address"
        },
        {
          "indexed": false,
          "internalType": "uint256",
          "name": "amount",
          "type": "uint256"
        }
      ],
      "name": "RewardsClaimed",
      "type": "event"
    },
    {
      "anonymous": false,
      "inputs": [
        {
          "indexed": true,
          "internalType": "uint128",
          "name": "poolId",
          "type": "uint128"
        },
        {
          "indexed": true,
          "internalType": "address",
          "name": "collateralType",
          "type": "address"
        },
        {
          "indexed": false,
          "internalType": "address",
          "name": "distributor",
          "type": "address"
        },
        {
          "indexed": false,
          "internalType": "uint256",
          "name": "amount",
          "type": "uint256"
        },
        {
          "indexed": false,
          "internalType": "uint256",
          "name": "start",
          "type": "uint256"
        },
        {
          "indexed": false,
          "internalType": "uint256",
          "name": "duration",
          "type": "uint256"
        }
      ],
      "name": "RewardsDistributed",
      "type": "event"
    },
    {
      "anonymous": false,
      "inputs": [
        {
          "indexed": true,
          "internalType": "uint128",
          "name": "poolId",
          "type": "uint128"
        },
        {
          "indexed": true,
          "internalType": "address",
          "name": "collateralType",
          "type": "address"
        },
        {
          "indexed": true,
          "internalType": "address",
          "name": "distributor",
          "type": "address"
        }
      ],
      "name": "RewardsDistributorRegistered",
      "type": "event"
    },
    {
      "inputs": [
        {
          "internalType": "uint128",
          "name": "poolId",
          "type": "uint128"
        },
        {
          "internalType": "address",
          "name": "collateralType",
          "type": "address"
        },
        {
          "internalType": "uint128",
          "name": "accountId",
          "type": "uint128"
        },
        {
          "internalType": "address",
          "name": "distributor",
          "type": "address"
        }
      ],
      "name": "claimRewards",
      "outputs": [
        {
          "internalType": "uint256",
          "name": "",
          "type": "uint256"
        }
      ],
      "stateMutability": "nonpayable",
      "type": "function"
    },
    {
      "inputs": [
        {
          "internalType": "uint128",
          "name": "poolId",
          "type": "uint128"
        },
        {
          "internalType": "address",
          "name": "collateralType",
          "type": "address"
        },
        {
          "internalType": "uint256",
          "name": "amount",
          "type": "uint256"
        },
        {
          "internalType": "uint256",
          "name": "start",
          "type": "uint256"
        },
        {
          "internalType": "uint256",
          "name": "duration",
          "type": "uint256"
        }
      ],
      "name": "distributeRewards",
      "outputs": [],
      "stateMutability": "nonpayable",
      "type": "function"
    },
    {
      "inputs": [
        {
          "internalType": "uint128",
          "name": "poolId",
          "type": "uint128"
        },
        {
          "internalType": "address",
          "name": "collateralType",
          "type": "address"
        },
        {
          "internalType": "address",
          "name": "distributor",
          "type": "address"
        }
      ],
      "name": "getRewardRate",
      "outputs": [
        {
          "internalType": "uint256",
          "name": "",
          "type": "uint256"
        }
      ],
      "stateMutability": "view",
      "type": "function"
    },
    {
      "inputs": [
        {
          "internalType": "uint128",
          "name": "poolId",
          "type": "uint128"
        },
        {
          "internalType": "address",
          "name": "collateralType",
          "type": "address"
        },
        {
          "internalType": "uint128",
          "name": "accountId",
          "type": "uint128"
        }
      ],
      "name": "getRewards",
      "outputs": [
        {
          "internalType": "uint256[]",
          "name": "",
          "type": "uint256[]"
        },
        {
          "internalType": "address[]",
          "name": "",
          "type": "address[]"
        }
      ],
      "stateMutability": "nonpayable",
      "type": "function"
    },
    {
      "inputs": [
        {
          "internalType": "uint128",
          "name": "poolId",
          "type": "uint128"
        },
        {
          "internalType": "address",
          "name": "collateralType",
          "type": "address"
        },
        {
          "internalType": "address",
          "name": "distributor",
          "type": "address"
        }
      ],
      "name": "registerRewardsDistributor",
      "outputs": [],
      "stateMutability": "nonpayable",
      "type": "function"
    }
  ],
  "bytecode": "0x608060405234801561001057600080fd5b506117e5806100206000396000f3fe608060405234801561001057600080fd5b50600436106100575760003560e01c80630dd2395a1461005c578063170c13511461008257806327f731181461009757806330d503da146100b8578063573b6715146100cb575b600080fd5b61006f61006a3660046111ee565b6100de565b6040519081526020015b60405180910390f35b6100956100903660046111ee565b6100f5565b005b6100aa6100a5366004611231565b61028e565b60405161007992919061126b565b6100956100c63660046112ef565b6102d1565b61006f6100d936600461133c565b6104ac565b60006100eb8484846106e3565b90505b9392505050565b600061010084610828565b6001600160a01b038085166000908152600a83016020526040902060028301549293506004019116331461014e5760405163472511eb60e11b81523360048201526024015b60405180910390fd5b600a610158825490565b11156101b157604080516301674a6b60e01b8152600481019190915260056044820152640d2dcc8caf60db1b6064820152608060248201526009608482015268746f6f206c6172676560b81b60a482015260c401610145565b60006101be868686610885565b90506101ca82826108d7565b156101e8576040516301674a6b60e01b815260040161014590611390565b6101f282826108f1565b6001600160a01b038416610219576040516301674a6b60e01b8152600401610145906113ef565b6001600160a01b038581166000818152600a86016020908152604080832086845260030190915280822080546001600160a01b0319169489169485179055516001600160801b038a16917f9d3609c05a83dc93a5b355d62c2b37dfde8f0833b1184d4d05c6f51cd46b6e5b91a4505050505050565b606080600061029c86610828565b6001600160a01b0386166000908152600a919091016020526040902090506102c48185610943565b9250925050935093915050565b60006102dc86610828565b6001600160a01b0386166000908152600a82016020526040812091925060049091019061030a888833610885565b905061031682826108d7565b6103a357604080516301674a6b60e01b81526004810191909152602160448201527f706f6f6c49642d636f6c6c61746572616c547970652d6469737472696275746f6064820152603960f91b608482015260a06024820152601860a48201527f726577617264206973206e6f742072656769737465726564000000000000000060c482015260e401610145565b6001600160a01b0387166000908152600a8401602090815260408083208484526003810183528184208154855260029091019092529091206103ee9060018381019101898989610adf565b60028201805460009061040b9084906001600160801b031661145f565b92506101000a8154816001600160801b0302191690836001600160801b03160217905550876001600160a01b0316896001600160801b03167f19ced31d71d1db45f99d5a8d3a7616fe9d78828df58f2a28feb68c9f9ab876ca338a8a8a60405161049994939291906001600160a01b0394909416845260208401929092526040830152606082015260800190565b60405180910390a3505050505050505050565b60006104c283665245574152445360c81b610c4f565b60006104cd86610828565b6001600160a01b038087166000818152600a939093016020908152604080852081516001600160801b038d1693810193909352908201929092529186166060830152925060800160408051601f198184030181529190528051602090910120905061053b60048301826108d7565b6105a557604080516301674a6b60e01b81526004810191909152600e60448201526d696e76616c69642d706172616d7360901b60648201526080602482015260136084820152721c995dd85c99081a5cc81b9bdd08199bdd5b99606a1b60a482015260c401610145565b60006105b2838784610c9f565b600083815260038501602052604090819020549051636910f3f960e11b81526001600160801b03808a1660048301528b1660248201526001600160a01b038a811660448301523360648301526084820184905292935091169063d221e7f29060a4016020604051808303816000875af1158015610633573d6000803e3d6000fd5b505050506040513d601f19601f82011682018060405250810190610657919061148a565b5060008281526003848101602081815260408085206001600160801b038c8116808852958201845282872080548216905595889052928252915482516001600160a01b0391821681529182018690528b16938c1692917fa4a60be4203e7975e54ab5314c7e9e18aba9ad71e8da714d8de987f4f05410f2910160405180910390a4979650505050505050565b6000806106ef85610828565b6001600160a01b0385166000908152600a919091016020908152604080832080548452600281019092528220600101549092506001600160801b031690610737878787610885565b600081815260038501602052604090205490915042906001600160a01b0316158061077e57506000828152600385016020526040902060010154600160801b900460070b81125b806107c057506000828152600380860160205260409091206001015482916107ba91600160c01b810490910b90600160801b900460070b6114ac565b60070b13155b156107d25760009450505050506100ee565b6000828152600380860160205260409091206001015461081c916107ff91600160c01b9004900b85610e5b565b6000848152600387016020526040902060010154600f0b90610e5b565b98975050505050505050565b600080826040516020016108669190604080825260049082015263141bdbdb60e21b60608201526001600160801b0391909116602082015260800190565b60408051601f1981840301815291905280516020909101209392505050565b604080516001600160801b03851660208201526001600160a01b038085169282019290925290821660608201526000906080016040516020818303038152906040528051906020012090509392505050565b600081815260018301602052604090205415155b92915050565b6108fb82826108d7565b156109195760405163682ad32d60e01b815260040160405180910390fd5b81546001818101845560008481526020808220909301849055845493815293019052604090912055565b6060806000610953856004015490565b67ffffffffffffffff81111561096b5761096b6114fd565b604051908082528060200260200182016040528015610994578160200160208202803683370190505b50905060006109a4866004015490565b67ffffffffffffffff8111156109bc576109bc6114fd565b6040519080825280602002602001820160405280156109e5578160200160208202803683370190505b50905060005b6004870154811015610ad35760006003880181610a16610a0c856001611513565b60048c0190610e7a565b8152602081019190915260400160002080549091506001600160a01b0316610a3e5750610ac1565b610a608888610a5b610a51866001611513565b60048d0190610e7a565b610c9f565b848381518110610a7257610a7261152b565b6020908102919091010152805483516001600160a01b0390911690849084908110610a9f57610a9f61152b565b60200260200101906001600160a01b031690816001600160a01b031681525050505b80610acb81611541565b9150506109eb565b50909590945092505050565b83546000906001600160801b031680610b6957604080516301674a6b60e01b815260048101919091526006604482015265185b5bdd5b9d60d21b606482015260806024820152602660848201527f63616e2774206469737472696275746520746f20656d7074792064697374726960a482015265313aba34b7b760d11b60c482015260e401610145565b855442600f0b90610b849089906001600160801b0316610edf565b610b9190600f0b8461155c565b925080610b9e8587611513565b11610bd55781610bb687670de0b6b3a764000061159d565b610bc09190611638565b610bca908461155c565b600089559250610c44565b87546001600160801b038781166001600160c01b031990921691909117600160801b67ffffffffffffffff881602176001600160c01b0316600160c01b63ffffffff8716026001600160e01b03161789558754610c34918a9116610edf565b610c4190600f0b8461155c565b92505b505095945050505050565b610c678133610c5d856110ef565b6001019190611130565b610c9b5760405162ef2a9160e11b81526001600160801b038316600482015260248101829052336044820152606401610145565b5050565b8254600090815260028085016020908152604080842060018101546001600160801b038881168752919094018352818520548686526003890190935290842080549382169392909116916001600160a01b0316610d2f5760405162461bcd60e51b815260206004820152600e60248201526d2737903234b9ba3934b13aba37b960911b6044820152606401610145565b610d3c6001820184610edf565b600282018054600090610d599084906001600160801b031661145f565b82546101009290920a6001600160801b0381810219909316918316021790915587811660009081526003840160205260409020546002840154610db59350610da5929182169116611666565b83906001600160801b031661116d565b6001600160801b038088166000908152600384016020526040902080549091601091610dea918591600160801b90041661145f565b82546101009290920a6001600160801b03818102199093169183160217909155600283015497811660009081526003909301602052604090922080549783166fffffffffffffffffffffffffffffffff19909816979097179687905550600160801b90950490941695945050505050565b600081610e70670de0b6b3a76400008561168e565b6100ee91906116ad565b6000811580610e895750825482115b15610ea75760405163eb9bc44760e01b815260040160405180910390fd5b6000610eb46001846116c1565b9050836000018181548110610ecb57610ecb61152b565b906000526020600020015491505092915050565b8154600090600f0b1580610ef1575081155b15610efe575060006108eb565b82544290600090600160801b900460070b600f83900b1215610f25576000925050506108eb565b8454600160c01b900460030b158015610f5257508454600160801b810460070b600160e01b90910460030b125b15610f815784548490610f7090600f0b670de0b6b3a764000061159d565b610f7a9190611638565b90506110c6565b8454610fa190600160c01b810460030b90600160801b900460070b6114ac565b855460079190910b600160e01b90910460030b12156110c6578454600090600160801b810460070b600160e01b90910460030b12611026578554600160c01b8104600390810b9161100591600160801b820460070b91600160e01b9004900b6116d8565b87546110179160070b90600f0b61159d565b6110219190611638565b611029565b60005b8654909150600f81900b9061105290600160c01b810460030b90600160801b900460070b6114ac565b60070b84600f0b121561109a578654600160c01b810460030b9061108090600160801b900460070b8661172a565b61108d90600f0b8361159d565b6110979190611638565b90505b856110a58383611770565b6110b790670de0b6b3a764000061159d565b6110c19190611638565b925050505b845463ffffffff909216600160e01b026001600160e01b03909216919091178455905092915050565b6000808260405160200161086691906040808252600790820152661058d8dbdd5b9d60ca1b60608201526001600160801b0391909116602082015260800190565b82546000906001600160a01b038381169116148061115c575061115c846420a226a4a760d91b84611182565b806100eb57506100eb848484611182565b6000670de0b6b3a7640000610e70838561168e565b60006001600160a01b038216158015906100eb57506001600160a01b038216600090815260018501602052604090206100eb90846108d7565b80356001600160801b03811681146111d257600080fd5b919050565b80356001600160a01b03811681146111d257600080fd5b60008060006060848603121561120357600080fd5b61120c846111bb565b925061121a602085016111d7565b9150611228604085016111d7565b90509250925092565b60008060006060848603121561124657600080fd5b61124f846111bb565b925061125d602085016111d7565b9150611228604085016111bb565b604080825283519082018190526000906020906060840190828701845b828110156112a457815184529284019290840190600101611288565b5050508381038285015284518082528583019183019060005b818110156112e25783516001600160a01b0316835292840192918401916001016112bd565b5090979650505050505050565b600080600080600060a0868803121561130757600080fd5b611310866111bb565b945061131e602087016111d7565b94979496505050506040830135926060810135926080909101359150565b6000806000806080858703121561135257600080fd5b61135b856111bb565b9350611369602086016111d7565b9250611377604086016111bb565b9150611385606086016111d7565b905092959194509250565b6040815260006113bb60408301600b81526a3234b9ba3934b13aba37b960a91b602082015260400190565b82810360209384015260158152741a5cc8185b1c9958591e481c9959da5cdd195c9959605a1b928101929092525060400190565b60408152600061141a60408301600b81526a3234b9ba3934b13aba37b960a91b602082015260400190565b828103602093840152601081526f6d757374206265206e6f6e2d7a65726f60801b928101929092525060400190565b634e487b7160e01b600052601160045260246000fd5b60006001600160801b0380831681851680830382111561148157611481611449565b01949350505050565b60006020828403121561149c57600080fd5b815180151581146100ee57600080fd5b60008160070b8360070b6000821282677fffffffffffffff038213811516156114d7576114d7611449565b82677fffffffffffffff190382128116156114f4576114f4611449565b50019392505050565b634e487b7160e01b600052604160045260246000fd5b6000821982111561152657611526611449565b500190565b634e487b7160e01b600052603260045260246000fd5b600060001982141561155557611555611449565b5060010190565b600080821280156001600160ff1b038490038513161561157e5761157e611449565b600160ff1b839003841281161561159757611597611449565b50500190565b60006001600160ff1b03818413828413808216868404861116156115c3576115c3611449565b600160ff1b60008712828116878305891216156115e2576115e2611449565b600087129250878205871284841616156115fe576115fe611449565b8785058712818416161561161457611614611449565b505050929093029392505050565b634e487b7160e01b600052601260045260246000fd5b60008261164757611647611622565b600160ff1b82146000198414161561166157611661611449565b500590565b60006001600160801b038381169083168181101561168657611686611449565b039392505050565b60008160001904831182151516156116a8576116a8611449565b500290565b6000826116bc576116bc611622565b500490565b6000828210156116d3576116d3611449565b500390565b60008160070b8360070b6000811281677fffffffffffffff190183128115161561170457611704611449565b81677fffffffffffffff01831381161561172057611720611449565b5090039392505050565b600081600f0b83600f0b600081128160016001607f1b03190183128115161561175557611755611449565b8160016001607f1b0301831381161561172057611720611449565b60008083128015600160ff1b85018412161561178e5761178e611449565b6001600160ff1b03840183138116156117a9576117a9611449565b5050039056fea2646970667358221220eef23d8fc4f4e109d62f1ff04ea62ba839a455fd70aa7a37f07025571b127fa464736f6c634300080b0033",
  "linkReferences": {},
  "deployedLinkReferences": {}
}