{
  "_format": "hh-sol-artifact-1",
  "contractName": "RewardsManagerModule",
  "sourceName": "contracts/modules/core/RewardsManagerModule.sol",
  "abi": [
    {
      "inputs": [
        {
          "internalType": "string",
          "name": "incorrectParameter",
          "type": "string"
        },
        {
          "internalType": "string",
          "name": "help",
          "type": "string"
        }
      ],
      "name": "InvalidParameters",
      "type": "error"
    },
    {
      "inputs": [
        {
          "internalType": "string",
          "name": "incorrectParameter",
          "type": "string"
        },
        {
          "internalType": "string",
          "name": "help",
          "type": "string"
        }
      ],
      "name": "InvalidParameters",
      "type": "error"
    },
    {
      "inputs": [
        {
          "internalType": "uint128",
          "name": "accountId",
          "type": "uint128"
        },
        {
          "internalType": "bytes32",
          "name": "permission",
          "type": "bytes32"
        },
        {
          "internalType": "address",
          "name": "target",
          "type": "address"
        }
      ],
      "name": "PermissionDenied",
      "type": "error"
    },
    {
      "inputs": [],
      "name": "PositionOutOfBounds",
      "type": "error"
    },
    {
      "inputs": [
        {
          "internalType": "address",
          "name": "addr",
          "type": "address"
        }
      ],
      "name": "Unauthorized",
      "type": "error"
    },
    {
      "inputs": [],
      "name": "ValueAlreadyInSet",
      "type": "error"
    },
    {
      "anonymous": false,
      "inputs": [
        {
          "indexed": true,
          "internalType": "uint128",
          "name": "accountId",
          "type": "uint128"
        },
        {
          "indexed": true,
          "internalType": "uint128",
          "name": "poolId",
          "type": "uint128"
        },
        {
          "indexed": true,
          "internalType": "address",
          "name": "collateralType",
          "type": "address"
        },
        {
          "indexed": false,
          "internalType": "address",
          "name": "distributor",
          "type": "address"
        },
        {
          "indexed": false,
          "internalType": "uint256",
          "name": "amount",
          "type": "uint256"
        }
      ],
      "name": "RewardsClaimed",
      "type": "event"
    },
    {
      "anonymous": false,
      "inputs": [
        {
          "indexed": true,
          "internalType": "uint128",
          "name": "poolId",
          "type": "uint128"
        },
        {
          "indexed": true,
          "internalType": "address",
          "name": "collateralType",
          "type": "address"
        },
        {
          "indexed": false,
          "internalType": "address",
          "name": "distributor",
          "type": "address"
        },
        {
          "indexed": false,
          "internalType": "uint256",
          "name": "amount",
          "type": "uint256"
        },
        {
          "indexed": false,
          "internalType": "uint256",
          "name": "start",
          "type": "uint256"
        },
        {
          "indexed": false,
          "internalType": "uint256",
          "name": "duration",
          "type": "uint256"
        }
      ],
      "name": "RewardsDistributed",
      "type": "event"
    },
    {
      "inputs": [
        {
          "internalType": "uint128",
          "name": "poolId",
          "type": "uint128"
        },
        {
          "internalType": "address",
          "name": "collateralType",
          "type": "address"
        },
        {
          "internalType": "uint128",
          "name": "accountId",
          "type": "uint128"
        },
        {
          "internalType": "address",
          "name": "distributor",
          "type": "address"
        }
      ],
      "name": "claimRewards",
      "outputs": [
        {
          "internalType": "uint256",
          "name": "",
          "type": "uint256"
        }
      ],
      "stateMutability": "nonpayable",
      "type": "function"
    },
    {
      "inputs": [
        {
          "internalType": "uint128",
          "name": "poolId",
          "type": "uint128"
        },
        {
          "internalType": "address",
          "name": "collateralType",
          "type": "address"
        },
        {
          "internalType": "uint256",
          "name": "amount",
          "type": "uint256"
        },
        {
          "internalType": "uint256",
          "name": "start",
          "type": "uint256"
        },
        {
          "internalType": "uint256",
          "name": "duration",
          "type": "uint256"
        }
      ],
      "name": "distributeRewards",
      "outputs": [],
      "stateMutability": "nonpayable",
      "type": "function"
    },
    {
      "inputs": [
        {
          "internalType": "uint128",
          "name": "poolId",
          "type": "uint128"
        },
        {
          "internalType": "address",
          "name": "collateralType",
          "type": "address"
        },
        {
          "internalType": "address",
          "name": "distributor",
          "type": "address"
        }
      ],
      "name": "getRewardRate",
      "outputs": [
        {
          "internalType": "uint256",
          "name": "",
          "type": "uint256"
        }
      ],
      "stateMutability": "view",
      "type": "function"
    },
    {
      "inputs": [
        {
          "internalType": "uint128",
          "name": "poolId",
          "type": "uint128"
        },
        {
          "internalType": "address",
          "name": "collateralType",
          "type": "address"
        },
        {
          "internalType": "uint128",
          "name": "accountId",
          "type": "uint128"
        }
      ],
      "name": "getRewards",
      "outputs": [
        {
          "internalType": "uint256[]",
          "name": "",
          "type": "uint256[]"
        },
        {
          "internalType": "address[]",
          "name": "",
          "type": "address[]"
        }
      ],
      "stateMutability": "nonpayable",
      "type": "function"
    },
    {
      "inputs": [
        {
          "internalType": "uint128",
          "name": "poolId",
          "type": "uint128"
        },
        {
          "internalType": "address",
          "name": "collateralType",
          "type": "address"
        },
        {
          "internalType": "address",
          "name": "distributor",
          "type": "address"
        }
      ],
      "name": "registerRewardsDistributor",
      "outputs": [],
      "stateMutability": "nonpayable",
      "type": "function"
    }
  ],
  "bytecode": "0x608060405234801561001057600080fd5b50612f82806100206000396000f3fe608060405234801561001057600080fd5b50600436106100575760003560e01c80630dd2395a1461005c578063170c13511461008c57806327f73118146100a857806330d503da146100d9578063573b6715146100f5575b600080fd5b61007660048036038101906100719190611cbb565b610125565b6040516100839190611d27565b60405180910390f35b6100a660048036038101906100a19190611cbb565b61013b565b005b6100c260048036038101906100bd9190611d42565b6103f4565b6040516100d0929190611f11565b60405180910390f35b6100f360048036038101906100ee9190611f74565b610464565b005b61010f600480360381019061010a9190611fef565b6106b0565b60405161011c9190611d27565b60405180910390f35b60006101328484846109b5565b90509392505050565b600061014684610bfd565b9050600081600a0160008573ffffffffffffffffffffffffffffffffffffffff1673ffffffffffffffffffffffffffffffffffffffff16815260200190815260200160002060040190503373ffffffffffffffffffffffffffffffffffffffff168260020160009054906101000a900473ffffffffffffffffffffffffffffffffffffffff1673ffffffffffffffffffffffffffffffffffffffff161461022457336040517f8e4a23d600000000000000000000000000000000000000000000000000000000815260040161021b9190612065565b60405180910390fd5b600a61022f82610c32565b1115610270576040517f01674a6b00000000000000000000000000000000000000000000000000000000815260040161026790612129565b60405180910390fd5b600061027d868686610c43565b90506102928183610c7990919063ffffffff16565b156102d2576040517f01674a6b0000000000000000000000000000000000000000000000000000000081526004016102c9906121f4565b60405180910390fd5b6102e58183610c9c90919063ffffffff16565b600073ffffffffffffffffffffffffffffffffffffffff168473ffffffffffffffffffffffffffffffffffffffff161415610355576040517f01674a6b00000000000000000000000000000000000000000000000000000000815260040161034c90612273565b60405180910390fd5b8383600a0160008773ffffffffffffffffffffffffffffffffffffffff1673ffffffffffffffffffffffffffffffffffffffff168152602001908152602001600020600301600083815260200190815260200160002060000160006101000a81548173ffffffffffffffffffffffffffffffffffffffff021916908373ffffffffffffffffffffffffffffffffffffffff160217905550505050505050565b606080600061040286610bfd565b600a0160008673ffffffffffffffffffffffffffffffffffffffff1673ffffffffffffffffffffffffffffffffffffffff16815260200190815260200160002090506104578482610d2d90919063ffffffff16565b9250925050935093915050565b600061046f86610bfd565b9050600081600a0160008773ffffffffffffffffffffffffffffffffffffffff1673ffffffffffffffffffffffffffffffffffffffff168152602001908152602001600020600401905060006104c6888833610c43565b90506104db8183610c7990919063ffffffff16565b61051a576040517f01674a6b00000000000000000000000000000000000000000000000000000000815260040161051190612364565b60405180910390fd5b600083600a0160008973ffffffffffffffffffffffffffffffffffffffff1673ffffffffffffffffffffffffffffffffffffffff168152602001908152602001600020600301600083815260200190815260200160002090506105da6105bf85600a0160008b73ffffffffffffffffffffffffffffffffffffffff1673ffffffffffffffffffffffffffffffffffffffff168152602001908152602001600020610f71565b60010188888885600101610f9390949392919063ffffffff16565b8160020160008282829054906101000a90046fffffffffffffffffffffffffffffffff1661060891906123c6565b92506101000a8154816fffffffffffffffffffffffffffffffff02191690836fffffffffffffffffffffffffffffffff1602179055508773ffffffffffffffffffffffffffffffffffffffff16896fffffffffffffffffffffffffffffffff167f19ced31d71d1db45f99d5a8d3a7616fe9d78828df58f2a28feb68c9f9ab876ca338a8a8a60405161069d949392919061240c565b60405180910390a3505050505050505050565b60006106dc837f5245574152445300000000000000000000000000000000000000000000000000611273565b60006106e786610bfd565b600a0160008673ffffffffffffffffffffffffffffffffffffffff1673ffffffffffffffffffffffffffffffffffffffff1681526020019081526020016000209050600086868560405160200161074093929190612460565b60405160208183030381529060405280519060200120905061076e8183600401610c7990919063ffffffff16565b6107ad576040517f01674a6b0000000000000000000000000000000000000000000000000000000081526004016107a49061252f565b60405180910390fd5b60006107c48683856112dc9092919063ffffffff16565b905082600301600083815260200190815260200160002060000160009054906101000a900473ffffffffffffffffffffffffffffffffffffffff1673ffffffffffffffffffffffffffffffffffffffff1663d221e7f2878a8a33866040518663ffffffff1660e01b815260040161083f959493929190612562565b6020604051808303816000875af115801561085e573d6000803e3d6000fd5b505050506040513d601f19601f8201168201806040525081019061088291906125ed565b5060008360030160008481526020019081526020016000206003016000886fffffffffffffffffffffffffffffffff16815260200190815260200160002060000160106101000a8154816fffffffffffffffffffffffffffffffff02191690836fffffffffffffffffffffffffffffffff1602179055508673ffffffffffffffffffffffffffffffffffffffff16886fffffffffffffffffffffffffffffffff16876fffffffffffffffffffffffffffffffff167fa4a60be4203e7975e54ab5314c7e9e18aba9ad71e8da714d8de987f4f05410f286600301600087815260200190815260200160002060000160009054906101000a900473ffffffffffffffffffffffffffffffffffffffff168560405161099f92919061261a565b60405180910390a4809350505050949350505050565b6000806109c185610bfd565b600a0160008573ffffffffffffffffffffffffffffffffffffffff1673ffffffffffffffffffffffffffffffffffffffff16815260200190815260200160002090506000610a0e82610f71565b60010160000160009054906101000a90046fffffffffffffffffffffffffffffffff166fffffffffffffffffffffffffffffffff1690506000610a52878787610c43565b90506000429050600073ffffffffffffffffffffffffffffffffffffffff1684600301600084815260200190815260200160002060000160009054906101000a900473ffffffffffffffffffffffffffffffffffffffff1673ffffffffffffffffffffffffffffffffffffffff161480610af657508084600301600084815260200190815260200160002060010160000160109054906101000a900460070b60070b135b80610b6257508084600301600084815260200190815260200160002060010160000160189054906101000a900460030b60030b85600301600085815260200190815260200160002060010160000160109054906101000a900460070b610b5c9190612650565b60070b13155b15610b74576000945050505050610bf6565b610bef610bb58486600301600086815260200190815260200160002060010160000160189054906101000a900460030b60030b61168390919063ffffffff16565b85600301600085815260200190815260200160002060010160000160009054906101000a9004600f0b600f0b61168390919063ffffffff16565b9450505050505b9392505050565b60008082604051602001610c119190612718565b60405160208183030381529060405280519060200120905080915050919050565b600081600001805490509050919050565b6000838383604051602001610c5a93929190612460565b6040516020818303038152906040528051906020012090509392505050565b600080836001016000848152602001908152602001600020541415905092915050565b610ca68282610c79565b15610cdd576040517f682ad32d00000000000000000000000000000000000000000000000000000000815260040160405180910390fd5b816000018190806001815401808255809150506001900390600052602060002001600090919091909150558160000180549050826001016000838152602001908152602001600020819055505050565b6060806000610d3e85600401610c32565b67ffffffffffffffff811115610d5757610d56612746565b5b604051908082528060200260200182016040528015610d855781602001602082028036833780820191505090505b5090506000610d9686600401610c32565b67ffffffffffffffff811115610daf57610dae612746565b5b604051908082528060200260200182016040528015610ddd5781602001602082028036833780820191505090505b50905060005b610def87600401610c32565b811015610f61576000876003016000610e20600185610e0e9190612775565b8b6004016116ac90919063ffffffff16565b81526020019081526020016000209050600073ffffffffffffffffffffffffffffffffffffffff168160000160009054906101000a900473ffffffffffffffffffffffffffffffffffffffff1673ffffffffffffffffffffffffffffffffffffffff161415610e8f5750610f4e565b610ebb8888610eb6600186610ea49190612775565b8c6004016116ac90919063ffffffff16565b6112dc565b848381518110610ece57610ecd6127cb565b5b6020026020010181815250508060000160009054906101000a900473ffffffffffffffffffffffffffffffffffffffff16838381518110610f1257610f116127cb565b5b602002602001019073ffffffffffffffffffffffffffffffffffffffff16908173ffffffffffffffffffffffffffffffffffffffff1681525050505b8080610f59906127fa565b915050610de3565b5081819350935050509250929050565b6000816002016000836000015481526020019081526020016000209050919050565b6000808560000160009054906101000a90046fffffffffffffffffffffffffffffffff166fffffffffffffffffffffffffffffffff169050600081141561100f576040517f01674a6b00000000000000000000000000000000000000000000000000000000815260040161100690612901565b60405180910390fd5b600042600f0b9050611053888860000160009054906101000a90046fffffffffffffffffffffffffffffffff166fffffffffffffffffffffffffffffffff16611734565b600f0b83611061919061293e565b92508084866110709190612775565b116111625781670de0b6b3a76400008761108a91906129d2565b6110949190612b18565b8361109f919061293e565b9250600088600001601c6101000a81548163ffffffff021916908360030b63ffffffff16021790555060008860000160106101000a81548167ffffffffffffffff021916908360070b67ffffffffffffffff16021790555060008860000160186101000a81548163ffffffff021916908360030b63ffffffff16021790555060008860000160006101000a8154816fffffffffffffffffffffffffffffffff0219169083600f0b6fffffffffffffffffffffffffffffffff160217905550611268565b858860000160006101000a8154816fffffffffffffffffffffffffffffffff0219169083600f0b6fffffffffffffffffffffffffffffffff160217905550848860000160106101000a81548167ffffffffffffffff021916908360070b67ffffffffffffffff160217905550838860000160186101000a81548163ffffffff021916908360030b63ffffffff160217905550600088600001601c6101000a81548163ffffffff021916908360030b63ffffffff160217905550611257888860000160009054906101000a90046fffffffffffffffffffffffffffffffff166fffffffffffffffffffffffffffffffff16611734565b600f0b83611265919061293e565b92505b505095945050505050565b611293813361128185611a29565b600101611a5e9092919063ffffffff16565b6112d8578181336040517f01de55220000000000000000000000000000000000000000000000000000000081526004016112cf93929190612b9b565b60405180910390fd5b5050565b6000806112e885610f71565b60010160000160009054906101000a90046fffffffffffffffffffffffffffffffff166fffffffffffffffffffffffffffffffff1690506000611354856fffffffffffffffffffffffffffffffff1660001b61134388610f71565b600101611b0090919063ffffffff16565b905060008660030160008681526020019081526020016000209050600073ffffffffffffffffffffffffffffffffffffffff168160000160009054906101000a900473ffffffffffffffffffffffffffffffffffffffff1673ffffffffffffffffffffffffffffffffffffffff161415611403576040517f08c379a00000000000000000000000000000000000000000000000000000000081526004016113fa90612c1e565b60405180910390fd5b611419838260010161173490919063ffffffff16565b8160020160008282829054906101000a90046fffffffffffffffffffffffffffffffff1661144791906123c6565b92506101000a8154816fffffffffffffffffffffffffffffffff02191690836fffffffffffffffffffffffffffffffff160217905550611513816003016000886fffffffffffffffffffffffffffffffff16815260200190815260200160002060000160009054906101000a90046fffffffffffffffffffffffffffffffff168260020160009054906101000a90046fffffffffffffffffffffffffffffffff166114f29190612c3e565b6fffffffffffffffffffffffffffffffff1683611b5190919063ffffffff16565b816003016000886fffffffffffffffffffffffffffffffff16815260200190815260200160002060000160108282829054906101000a90046fffffffffffffffffffffffffffffffff1661156791906123c6565b92506101000a8154816fffffffffffffffffffffffffffffffff02191690836fffffffffffffffffffffffffffffffff1602179055508060020160009054906101000a90046fffffffffffffffffffffffffffffffff16816003016000886fffffffffffffffffffffffffffffffff16815260200190815260200160002060000160006101000a8154816fffffffffffffffffffffffffffffffff02191690836fffffffffffffffffffffffffffffffff160217905550806003016000876fffffffffffffffffffffffffffffffff16815260200190815260200160002060000160109054906101000a90046fffffffffffffffffffffffffffffffff166fffffffffffffffffffffffffffffffff1693505050509392505050565b600081670de0b6b3a76400008461169a9190612c72565b6116a49190612ccc565b905092915050565b6000808214806116c25750826000018054905082115b156116f9576040517feb9bc44700000000000000000000000000000000000000000000000000000000815260040160405180910390fd5b60006001836117089190612cfd565b90508360000181815481106117205761171f6127cb565b5b906000526020600020015491505092915050565b6000808360000160009054906101000a9004600f0b600f0b14806117585750600082145b156117665760009050611a23565b600042905060008460000160109054906101000a900460070b60070b82600f0b121561179757600092505050611a23565b60008560000160189054906101000a900460030b60030b1480156117e257508460000160109054906101000a900460070b60070b85600001601c9054906101000a900460030b60030b125b156118215783670de0b6b3a76400008660000160009054906101000a9004600f0b600f0b61181091906129d2565b61181a9190612b18565b90506119f7565b8460000160189054906101000a900460030b60030b8560000160109054906101000a900460070b6118529190612650565b60070b85600001601c9054906101000a900460030b60030b12156119f65760008560000160109054906101000a900460070b60070b86600001601c9054906101000a900460030b60030b12611918578560000160189054906101000a900460030b60030b8660000160109054906101000a900460070b87600001601c9054906101000a900460030b60030b6118e79190612d31565b60070b8760000160009054906101000a9004600f0b600f0b61190991906129d2565b6119139190612b18565b61191e565b6000600f0b5b905060008660000160009054906101000a9004600f0b600f0b90508660000160189054906101000a900460030b60030b8760000160109054906101000a900460070b61196a9190612650565b60070b84600f0b12156119c7578660000160189054906101000a900460030b60030b8760000160109054906101000a900460070b60070b856119ac9190612dba565b600f0b826119ba91906129d2565b6119c49190612b18565b90505b85670de0b6b3a764000083836119dd9190612e3e565b6119e791906129d2565b6119f19190612b18565b925050505b5b8185600001601c6101000a81548163ffffffff021916908360030b63ffffffff16021790555080925050505b92915050565b60008082604051602001611a3d9190612f1e565b60405160208183030381529060405280519060200120905080915050919050565b60008360000160009054906101000a900473ffffffffffffffffffffffffffffffffffffffff1673ffffffffffffffffffffffffffffffffffffffff168273ffffffffffffffffffffffffffffffffffffffff161480611ae55750611ae4847f41444d494e00000000000000000000000000000000000000000000000000000084611b7a565b5b80611af75750611af6848484611b7a565b5b90509392505050565b600082600101600083815260200190815260200160002060000160009054906101000a90046fffffffffffffffffffffffffffffffff166fffffffffffffffffffffffffffffffff16905092915050565b6000670de0b6b3a76400008284611b689190612c72565b611b729190612ccc565b905092915050565b60008073ffffffffffffffffffffffffffffffffffffffff168273ffffffffffffffffffffffffffffffffffffffff1614158015611c075750611c06838560010160008573ffffffffffffffffffffffffffffffffffffffff1673ffffffffffffffffffffffffffffffffffffffff168152602001908152602001600020610c7990919063ffffffff16565b5b90509392505050565b600080fd5b60006fffffffffffffffffffffffffffffffff82169050919050565b611c3a81611c15565b8114611c4557600080fd5b50565b600081359050611c5781611c31565b92915050565b600073ffffffffffffffffffffffffffffffffffffffff82169050919050565b6000611c8882611c5d565b9050919050565b611c9881611c7d565b8114611ca357600080fd5b50565b600081359050611cb581611c8f565b92915050565b600080600060608486031215611cd457611cd3611c10565b5b6000611ce286828701611c48565b9350506020611cf386828701611ca6565b9250506040611d0486828701611ca6565b9150509250925092565b6000819050919050565b611d2181611d0e565b82525050565b6000602082019050611d3c6000830184611d18565b92915050565b600080600060608486031215611d5b57611d5a611c10565b5b6000611d6986828701611c48565b9350506020611d7a86828701611ca6565b9250506040611d8b86828701611c48565b9150509250925092565b600081519050919050565b600082825260208201905092915050565b6000819050602082019050919050565b611dca81611d0e565b82525050565b6000611ddc8383611dc1565b60208301905092915050565b6000602082019050919050565b6000611e0082611d95565b611e0a8185611da0565b9350611e1583611db1565b8060005b83811015611e46578151611e2d8882611dd0565b9750611e3883611de8565b925050600181019050611e19565b5085935050505092915050565b600081519050919050565b600082825260208201905092915050565b6000819050602082019050919050565b611e8881611c7d565b82525050565b6000611e9a8383611e7f565b60208301905092915050565b6000602082019050919050565b6000611ebe82611e53565b611ec88185611e5e565b9350611ed383611e6f565b8060005b83811015611f04578151611eeb8882611e8e565b9750611ef683611ea6565b925050600181019050611ed7565b5085935050505092915050565b60006040820190508181036000830152611f2b8185611df5565b90508181036020830152611f3f8184611eb3565b90509392505050565b611f5181611d0e565b8114611f5c57600080fd5b50565b600081359050611f6e81611f48565b92915050565b600080600080600060a08688031215611f9057611f8f611c10565b5b6000611f9e88828901611c48565b9550506020611faf88828901611ca6565b9450506040611fc088828901611f5f565b9350506060611fd188828901611f5f565b9250506080611fe288828901611f5f565b9150509295509295909350565b6000806000806080858703121561200957612008611c10565b5b600061201787828801611c48565b945050602061202887828801611ca6565b935050604061203987828801611c48565b925050606061204a87828801611ca6565b91505092959194509250565b61205f81611c7d565b82525050565b600060208201905061207a6000830184612056565b92915050565b600082825260208201905092915050565b7f696e646578000000000000000000000000000000000000000000000000000000600082015250565b60006120c7600583612080565b91506120d282612091565b602082019050919050565b7f746f6f206c617267650000000000000000000000000000000000000000000000600082015250565b6000612113600983612080565b915061211e826120dd565b602082019050919050565b60006040820190508181036000830152612142816120ba565b9050818103602083015261215581612106565b9050919050565b7f6469737472696275746f72000000000000000000000000000000000000000000600082015250565b6000612192600b83612080565b915061219d8261215c565b602082019050919050565b7f697320616c726561647920726567697374657265640000000000000000000000600082015250565b60006121de601583612080565b91506121e9826121a8565b602082019050919050565b6000604082019050818103600083015261220d81612185565b90508181036020830152612220816121d1565b9050919050565b7f6d757374206265206e6f6e2d7a65726f00000000000000000000000000000000600082015250565b600061225d601083612080565b915061226882612227565b602082019050919050565b6000604082019050818103600083015261228c81612185565b9050818103602083015261229f81612250565b9050919050565b7f706f6f6c49642d636f6c6c61746572616c547970652d6469737472696275746f60008201527f7200000000000000000000000000000000000000000000000000000000000000602082015250565b6000612302602183612080565b915061230d826122a6565b604082019050919050565b7f726577617264206973206e6f7420726567697374657265640000000000000000600082015250565b600061234e601883612080565b915061235982612318565b602082019050919050565b6000604082019050818103600083015261237d816122f5565b9050818103602083015261239081612341565b9050919050565b7f4e487b7100000000000000000000000000000000000000000000000000000000600052601160045260246000fd5b60006123d182611c15565b91506123dc83611c15565b9250826fffffffffffffffffffffffffffffffff0382111561240157612400612397565b5b828201905092915050565b60006080820190506124216000830187612056565b61242e6020830186611d18565b61243b6040830185611d18565b6124486060830184611d18565b95945050505050565b61245a81611c15565b82525050565b60006060820190506124756000830186612451565b6124826020830185612056565b61248f6040830184612056565b949350505050565b7f696e76616c69642d706172616d73000000000000000000000000000000000000600082015250565b60006124cd600e83612080565b91506124d882612497565b602082019050919050565b7f726577617264206973206e6f7420666f756e6400000000000000000000000000600082015250565b6000612519601383612080565b9150612524826124e3565b602082019050919050565b60006040820190508181036000830152612548816124c0565b9050818103602083015261255b8161250c565b9050919050565b600060a0820190506125776000830188612451565b6125846020830187612451565b6125916040830186612056565b61259e6060830185612056565b6125ab6080830184611d18565b9695505050505050565b60008115159050919050565b6125ca816125b5565b81146125d557600080fd5b50565b6000815190506125e7816125c1565b92915050565b60006020828403121561260357612602611c10565b5b6000612611848285016125d8565b91505092915050565b600060408201905061262f6000830185612056565b61263c6020830184611d18565b9392505050565b60008160070b9050919050565b600061265b82612643565b915061266683612643565b925081677fffffffffffffff0383136000831215161561268957612688612397565b5b817fffffffffffffffffffffffffffffffffffffffffffffffff80000000000000000383126000831216156126c1576126c0612397565b5b828201905092915050565b7f506f6f6c00000000000000000000000000000000000000000000000000000000600082015250565b6000612702600483612080565b915061270d826126cc565b602082019050919050565b60006040820190508181036000830152612731816126f5565b90506127406020830184612451565b92915050565b7f4e487b7100000000000000000000000000000000000000000000000000000000600052604160045260246000fd5b600061278082611d0e565b915061278b83611d0e565b9250827fffffffffffffffffffffffffffffffffffffffffffffffffffffffffffffffff038211156127c0576127bf612397565b5b828201905092915050565b7f4e487b7100000000000000000000000000000000000000000000000000000000600052603260045260246000fd5b600061280582611d0e565b91507fffffffffffffffffffffffffffffffffffffffffffffffffffffffffffffffff82141561283857612837612397565b5b600182019050919050565b7f616d6f756e740000000000000000000000000000000000000000000000000000600082015250565b6000612879600683612080565b915061288482612843565b602082019050919050565b7f63616e2774206469737472696275746520746f20656d7074792064697374726960008201527f627574696f6e0000000000000000000000000000000000000000000000000000602082015250565b60006128eb602683612080565b91506128f68261288f565b604082019050919050565b6000604082019050818103600083015261291a8161286c565b9050818103602083015261292d816128de565b9050919050565b6000819050919050565b600061294982612934565b915061295483612934565b9250817f7fffffffffffffffffffffffffffffffffffffffffffffffffffffffffffffff0383136000831215161561298f5761298e612397565b5b817f80000000000000000000000000000000000000000000000000000000000000000383126000831216156129c7576129c6612397565b5b828201905092915050565b60006129dd82612934565b91506129e883612934565b9250827f7fffffffffffffffffffffffffffffffffffffffffffffffffffffffffffffff0482116000841360008413161615612a2757612a26612397565b5b817f80000000000000000000000000000000000000000000000000000000000000000583126000841260008413161615612a6457612a63612397565b5b827f80000000000000000000000000000000000000000000000000000000000000000582126000841360008412161615612aa157612aa0612397565b5b827f7fffffffffffffffffffffffffffffffffffffffffffffffffffffffffffffff0582126000841260008412161615612ade57612add612397565b5b828202905092915050565b7f4e487b7100000000000000000000000000000000000000000000000000000000600052601260045260246000fd5b6000612b2382612934565b9150612b2e83612934565b925082612b3e57612b3d612ae9565b5b600160000383147f800000000000000000000000000000000000000000000000000000000000000083141615612b7757612b76612397565b5b828205905092915050565b6000819050919050565b612b9581612b82565b82525050565b6000606082019050612bb06000830186612451565b612bbd6020830185612b8c565b612bca6040830184612056565b949350505050565b7f4e6f206469737472696275746f72000000000000000000000000000000000000600082015250565b6000612c08600e83612080565b9150612c1382612bd2565b602082019050919050565b60006020820190508181036000830152612c3781612bfb565b9050919050565b6000612c4982611c15565b9150612c5483611c15565b925082821015612c6757612c66612397565b5b828203905092915050565b6000612c7d82611d0e565b9150612c8883611d0e565b9250817fffffffffffffffffffffffffffffffffffffffffffffffffffffffffffffffff0483118215151615612cc157612cc0612397565b5b828202905092915050565b6000612cd782611d0e565b9150612ce283611d0e565b925082612cf257612cf1612ae9565b5b828204905092915050565b6000612d0882611d0e565b9150612d1383611d0e565b925082821015612d2657612d25612397565b5b828203905092915050565b6000612d3c82612643565b9150612d4783612643565b9250827fffffffffffffffffffffffffffffffffffffffffffffffff800000000000000001821260008412151615612d8257612d81612397565b5b82677fffffffffffffff018213600084121615612da257612da1612397565b5b828203905092915050565b600081600f0b9050919050565b6000612dc582612dad565b9150612dd083612dad565b9250827fffffffffffffffffffffffffffffffff8000000000000000000000000000000001821260008412151615612e0b57612e0a612397565b5b826f7fffffffffffffffffffffffffffffff018213600084121615612e3357612e32612397565b5b828203905092915050565b6000612e4982612934565b9150612e5483612934565b9250827f800000000000000000000000000000000000000000000000000000000000000001821260008412151615612e8f57612e8e612397565b5b827f7fffffffffffffffffffffffffffffffffffffffffffffffffffffffffffffff018213600084121615612ec757612ec6612397565b5b828203905092915050565b7f4163636f756e7400000000000000000000000000000000000000000000000000600082015250565b6000612f08600783612080565b9150612f1382612ed2565b602082019050919050565b60006040820190508181036000830152612f3781612efb565b9050612f466020830184612451565b9291505056fea264697066735822122070992a337d622c6cdacd3f9366cddb6bb0a2c9e58a3b74f14ce6fb790535821264736f6c634300080b0033",
  "linkReferences": {},
  "deployedLinkReferences": {}
}